{"Contracts/ifelse.sol":{"IfElse":{"abi":[{"inputs":[{"internalType":"uint256","name":"x","type":"uint256"}],"name":"foo","outputs":[{"internalType":"uint256","name":"","type":"uint256"}],"stateMutability":"pure","type":"function"},{"inputs":[{"internalType":"uint256","name":"_x","type":"uint256"}],"name":"ternary","outputs":[{"internalType":"uint256","name":"","type":"uint256"}],"stateMutability":"pure","type":"function"}],"evm":{"bytecode":{"linkReferences":{},"object":"608060405234801561001057600080fd5b506101a8806100206000396000f3fe608060405234801561001057600080fd5b50600436106100365760003560e01c80632fbebd381461003b57806355278c5b1461006b575b600080fd5b610055600480360381019061005091906100fe565b61009b565b6040516100629190610136565b60405180910390f35b610085600480360381019061008091906100fe565b6100cb565b6040516100929190610136565b60405180910390f35b6000600a8210156100af57600090506100c6565b60148210156100c157600190506100c6565b600290505b919050565b6000600a82106100dc5760026100df565b60015b60ff169050919050565b6000813590506100f88161015b565b92915050565b60006020828403121561011057600080fd5b600061011e848285016100e9565b91505092915050565b61013081610151565b82525050565b600060208201905061014b6000830184610127565b92915050565b6000819050919050565b61016481610151565b811461016f57600080fd5b5056fea26469706673582212202f716838abc2d1aa2fdf65f59e5c606395d95439914574011a30a99d364162c764736f6c63430008010033","opcodes":"PUSH1 0x80 PUSH1 0x40 MSTORE CALLVALUE DUP1 ISZERO PUSH2 0x10 JUMPI PUSH1 0x0 DUP1 REVERT JUMPDEST POP PUSH2 0x1A8 DUP1 PUSH2 0x20 PUSH1 0x0 CODECOPY PUSH1 0x0 RETURN INVALID PUSH1 0x80 PUSH1 0x40 MSTORE CALLVALUE DUP1 ISZERO PUSH2 0x10 JUMPI PUSH1 0x0 DUP1 REVERT JUMPDEST POP PUSH1 0x4 CALLDATASIZE LT PUSH2 0x36 JUMPI PUSH1 0x0 CALLDATALOAD PUSH1 0xE0 SHR DUP1 PUSH4 0x2FBEBD38 EQ PUSH2 0x3B JUMPI DUP1 PUSH4 0x55278C5B EQ PUSH2 0x6B JUMPI JUMPDEST PUSH1 0x0 DUP1 REVERT JUMPDEST PUSH2 0x55 PUSH1 0x4 DUP1 CALLDATASIZE SUB DUP2 ADD SWAP1 PUSH2 0x50 SWAP2 SWAP1 PUSH2 0xFE JUMP JUMPDEST PUSH2 0x9B JUMP JUMPDEST PUSH1 0x40 MLOAD PUSH2 0x62 SWAP2 SWAP1 PUSH2 0x136 JUMP JUMPDEST PUSH1 0x40 MLOAD DUP1 SWAP2 SUB SWAP1 RETURN JUMPDEST PUSH2 0x85 PUSH1 0x4 DUP1 CALLDATASIZE SUB DUP2 ADD SWAP1 PUSH2 0x80 SWAP2 SWAP1 PUSH2 0xFE JUMP JUMPDEST PUSH2 0xCB JUMP JUMPDEST PUSH1 0x40 MLOAD PUSH2 0x92 SWAP2 SWAP1 PUSH2 0x136 JUMP JUMPDEST PUSH1 0x40 MLOAD DUP1 SWAP2 SUB SWAP1 RETURN JUMPDEST PUSH1 0x0 PUSH1 0xA DUP3 LT ISZERO PUSH2 0xAF JUMPI PUSH1 0x0 SWAP1 POP PUSH2 0xC6 JUMP JUMPDEST PUSH1 0x14 DUP3 LT ISZERO PUSH2 0xC1 JUMPI PUSH1 0x1 SWAP1 POP PUSH2 0xC6 JUMP JUMPDEST PUSH1 0x2 SWAP1 POP JUMPDEST SWAP2 SWAP1 POP JUMP JUMPDEST PUSH1 0x0 PUSH1 0xA DUP3 LT PUSH2 0xDC JUMPI PUSH1 0x2 PUSH2 0xDF JUMP JUMPDEST PUSH1 0x1 JUMPDEST PUSH1 0xFF AND SWAP1 POP SWAP2 SWAP1 POP JUMP JUMPDEST PUSH1 0x0 DUP2 CALLDATALOAD SWAP1 POP PUSH2 0xF8 DUP2 PUSH2 0x15B JUMP JUMPDEST SWAP3 SWAP2 POP POP JUMP JUMPDEST PUSH1 0x0 PUSH1 0x20 DUP3 DUP5 SUB SLT ISZERO PUSH2 0x110 JUMPI PUSH1 0x0 DUP1 REVERT JUMPDEST PUSH1 0x0 PUSH2 0x11E DUP5 DUP3 DUP6 ADD PUSH2 0xE9 JUMP JUMPDEST SWAP2 POP POP SWAP3 SWAP2 POP POP JUMP JUMPDEST PUSH2 0x130 DUP2 PUSH2 0x151 JUMP JUMPDEST DUP3 MSTORE POP POP JUMP JUMPDEST PUSH1 0x0 PUSH1 0x20 DUP3 ADD SWAP1 POP PUSH2 0x14B PUSH1 0x0 DUP4 ADD DUP5 PUSH2 0x127 JUMP JUMPDEST SWAP3 SWAP2 POP POP JUMP JUMPDEST PUSH1 0x0 DUP2 SWAP1 POP SWAP2 SWAP1 POP JUMP JUMPDEST PUSH2 0x164 DUP2 PUSH2 0x151 JUMP JUMPDEST DUP2 EQ PUSH2 0x16F JUMPI PUSH1 0x0 DUP1 REVERT JUMPDEST POP JUMP INVALID LOG2 PUSH5 0x6970667358 0x22 SLT KECCAK256 0x2F PUSH18 0x6838ABC2D1AA2FDF65F59E5C606395D95439 SWAP2 GASLIMIT PUSH21 0x11A30A99D364162C764736F6C6343000801003300 "},"methodIdentifiers":{"foo(uint256)":"2fbebd38","ternary(uint256)":"55278c5b"}},"storageLayout":{"storage":[],"types":null}}}}