{"Contracts/CharityRewards.sol":{"CharityRewards":{"abi":[{"inputs":[],"stateMutability":"nonpayable","type":"constructor"},{"anonymous":false,"inputs":[{"indexed":false,"internalType":"uint256","name":"tokenId","type":"uint256"},{"indexed":false,"internalType":"string","name":"tokenName","type":"string"},{"indexed":false,"internalType":"string","name":"tokenUri","type":"string"}],"name":"Added","type":"event"},{"anonymous":false,"inputs":[{"indexed":true,"internalType":"address","name":"account","type":"address"},{"indexed":true,"internalType":"address","name":"operator","type":"address"},{"indexed":false,"internalType":"bool","name":"approved","type":"bool"}],"name":"ApprovalForAll","type":"event"},{"anonymous":false,"inputs":[{"indexed":true,"internalType":"address","name":"previousOwner","type":"address"},{"indexed":true,"internalType":"address","name":"newOwner","type":"address"}],"name":"OwnershipTransferred","type":"event"},{"anonymous":false,"inputs":[{"indexed":true,"internalType":"address","name":"operator","type":"address"},{"indexed":true,"internalType":"address","name":"from","type":"address"},{"indexed":true,"internalType":"address","name":"to","type":"address"},{"indexed":false,"internalType":"uint256[]","name":"ids","type":"uint256[]"},{"indexed":false,"internalType":"uint256[]","name":"values","type":"uint256[]"}],"name":"TransferBatch","type":"event"},{"anonymous":false,"inputs":[{"indexed":true,"internalType":"address","name":"operator","type":"address"},{"indexed":true,"internalType":"address","name":"from","type":"address"},{"indexed":true,"internalType":"address","name":"to","type":"address"},{"indexed":false,"internalType":"uint256","name":"id","type":"uint256"},{"indexed":false,"internalType":"uint256","name":"value","type":"uint256"}],"name":"TransferSingle","type":"event"},{"anonymous":false,"inputs":[{"indexed":false,"internalType":"string","name":"value","type":"string"},{"indexed":true,"internalType":"uint256","name":"id","type":"uint256"}],"name":"URI","type":"event"},{"inputs":[{"internalType":"string","name":"_tokenName","type":"string"},{"internalType":"string","name":"_tokenUri","type":"string"}],"name":"addToken","outputs":[],"stateMutability":"nonpayable","type":"function"},{"inputs":[{"internalType":"address","name":"account","type":"address"},{"internalType":"uint256","name":"id","type":"uint256"}],"name":"balanceOf","outputs":[{"internalType":"uint256","name":"","type":"uint256"}],"stateMutability":"view","type":"function"},{"inputs":[{"internalType":"address[]","name":"accounts","type":"address[]"},{"internalType":"uint256[]","name":"ids","type":"uint256[]"}],"name":"balanceOfBatch","outputs":[{"internalType":"uint256[]","name":"","type":"uint256[]"}],"stateMutability":"view","type":"function"},{"inputs":[{"internalType":"uint256","name":"_tokenId","type":"uint256"}],"name":"getToken","outputs":[{"internalType":"string","name":"_name","type":"string"},{"internalType":"string","name":"_uri","type":"string"}],"stateMutability":"view","type":"function"},{"inputs":[{"internalType":"address","name":"account","type":"address"},{"internalType":"address","name":"operator","type":"address"}],"name":"isApprovedForAll","outputs":[{"internalType":"bool","name":"","type":"bool"}],"stateMutability":"view","type":"function"},{"inputs":[{"internalType":"address","name":"_to","type":"address"},{"internalType":"uint256","name":"_tokenId","type":"uint256"},{"internalType":"uint256","name":"_tokenAmount","type":"uint256"}],"name":"mint","outputs":[],"stateMutability":"nonpayable","type":"function"},{"inputs":[{"internalType":"address","name":"_to","type":"address"},{"internalType":"uint256[]","name":"tokensIds","type":"uint256[]"},{"internalType":"uint256[]","name":"tokensAmounts","type":"uint256[]"}],"name":"mintBatch","outputs":[],"stateMutability":"nonpayable","type":"function"},{"inputs":[],"name":"owner","outputs":[{"internalType":"address","name":"","type":"address"}],"stateMutability":"view","type":"function"},{"inputs":[],"name":"renounceOwnership","outputs":[],"stateMutability":"nonpayable","type":"function"},{"inputs":[{"internalType":"address","name":"from","type":"address"},{"internalType":"address","name":"to","type":"address"},{"internalType":"uint256[]","name":"ids","type":"uint256[]"},{"internalType":"uint256[]","name":"amounts","type":"uint256[]"},{"internalType":"bytes","name":"data","type":"bytes"}],"name":"safeBatchTransferFrom","outputs":[],"stateMutability":"nonpayable","type":"function"},{"inputs":[{"internalType":"address","name":"from","type":"address"},{"internalType":"address","name":"to","type":"address"},{"internalType":"uint256","name":"id","type":"uint256"},{"internalType":"uint256","name":"amount","type":"uint256"},{"internalType":"bytes","name":"data","type":"bytes"}],"name":"safeTransferFrom","outputs":[],"stateMutability":"nonpayable","type":"function"},{"inputs":[{"internalType":"address","name":"operator","type":"address"},{"internalType":"bool","name":"approved","type":"bool"}],"name":"setApprovalForAll","outputs":[],"stateMutability":"nonpayable","type":"function"},{"inputs":[{"internalType":"bytes4","name":"interfaceId","type":"bytes4"}],"name":"supportsInterface","outputs":[{"internalType":"bool","name":"","type":"bool"}],"stateMutability":"view","type":"function"},{"inputs":[{"internalType":"uint256","name":"","type":"uint256"}],"name":"tokens","outputs":[{"internalType":"string","name":"name","type":"string"},{"internalType":"string","name":"uri","type":"string"}],"stateMutability":"view","type":"function"},{"inputs":[{"internalType":"address","name":"newOwner","type":"address"}],"name":"transferOwnership","outputs":[],"stateMutability":"nonpayable","type":"function"},{"inputs":[{"internalType":"uint256","name":"","type":"uint256"}],"name":"uri","outputs":[{"internalType":"string","name":"","type":"string"}],"stateMutability":"view","type":"function"}],"evm":{"bytecode":{"linkReferences":{},"object":"608060405260006004553480156200001657600080fd5b506040518060200160405280600081525062000038816200005f60201b60201c565b50620000596200004d6200007b60201b60201c565b6200008360201b60201c565b6200025e565b80600290805190602001906200007792919062000149565b5050565b600033905090565b6000600360009054906101000a900473ffffffffffffffffffffffffffffffffffffffff16905081600360006101000a81548173ffffffffffffffffffffffffffffffffffffffff021916908373ffffffffffffffffffffffffffffffffffffffff1602179055508173ffffffffffffffffffffffffffffffffffffffff168173ffffffffffffffffffffffffffffffffffffffff167f8be0079c531659141344cd1fd0a4f28419497f9722a3daafe3b4186f6b6457e060405160405180910390a35050565b8280546200015790620001f9565b90600052602060002090601f0160209004810192826200017b5760008555620001c7565b82601f106200019657805160ff1916838001178555620001c7565b82800160010185558215620001c7579182015b82811115620001c6578251825591602001919060010190620001a9565b5b509050620001d69190620001da565b5090565b5b80821115620001f5576000816000905550600101620001db565b5090565b600060028204905060018216806200021257607f821691505b602082108114156200022957620002286200022f565b5b50919050565b7f4e487b7100000000000000000000000000000000000000000000000000000000600052602260045260246000fd5b6136af806200026e6000396000f3fe608060405234801561001057600080fd5b50600436106100ff5760003560e01c8063715018a611610097578063e4b50cb811610066578063e4b50cb8146102a9578063e985e9c5146102da578063f242432a1461030a578063f2fde38b14610326576100ff565b8063715018a6146102495780638da5cb5b14610253578063a22cb46514610271578063d81d0a151461028d576100ff565b80632eb2c2d6116100d35780632eb2c2d6146101b05780634e1273f4146101cc5780634f64b2be146101fc5780635192a8f71461022d576100ff565b8062fdd58e1461010457806301ffc9a7146101345780630e89341c14610164578063156e29f614610194575b600080fd5b61011e60048036038101906101199190612536565b610342565b60405161012b9190612d86565b60405180910390f35b61014e6004803603810190610149919061262d565b61040b565b60405161015b9190612b92565b60405180910390f35b61017e600480360381019061017991906126eb565b6104ed565b60405161018b9190612bad565b60405180910390f35b6101ae60048036038101906101a99190612572565b610581565b005b6101ca60048036038101906101c5919061232d565b6105a1565b005b6101e660048036038101906101e191906125c1565b610642565b6040516101f39190612b39565b60405180910390f35b610216600480360381019061021191906126eb565b6107f3565b604051610224929190612bcf565b60405180910390f35b6102476004803603810190610242919061267f565b610927565b005b610251610a1d565b005b61025b610a31565b6040516102689190612a5c565b60405180910390f35b61028b600480360381019061028691906124fa565b610a5b565b005b6102a760048036038101906102a2919061247b565b610a71565b005b6102c360048036038101906102be91906126eb565b610a91565b6040516102d1929190612bcf565b60405180910390f35b6102f460048036038101906102ef91906122f1565b610be1565b6040516103019190612b92565b60405180910390f35b610324600480360381019061031f91906123ec565b610c75565b005b610340600480360381019061033b91906122c8565b610d16565b005b60008073ffffffffffffffffffffffffffffffffffffffff168373ffffffffffffffffffffffffffffffffffffffff1614156103b3576040517f08c379a00000000000000000000000000000000000000000000000000000000081526004016103aa90612c86565b60405180910390fd5b60008083815260200190815260200160002060008473ffffffffffffffffffffffffffffffffffffffff1673ffffffffffffffffffffffffffffffffffffffff16815260200190815260200160002054905092915050565b60007fd9b67a26000000000000000000000000000000000000000000000000000000007bffffffffffffffffffffffffffffffffffffffffffffffffffffffff1916827bffffffffffffffffffffffffffffffffffffffffffffffffffffffff191614806104d657507f0e89341c000000000000000000000000000000000000000000000000000000007bffffffffffffffffffffffffffffffffffffffffffffffffffffffff1916827bffffffffffffffffffffffffffffffffffffffffffffffffffffffff1916145b806104e657506104e582610d9a565b5b9050919050565b6060600280546104fc90613080565b80601f016020809104026020016040519081016040528092919081815260200182805461052890613080565b80156105755780601f1061054a57610100808354040283529160200191610575565b820191906000526020600020905b81548152906001019060200180831161055857829003601f168201915b50505050509050919050565b61059c83838360405180602001604052806000815250610e04565b505050565b6105a9610fb5565b73ffffffffffffffffffffffffffffffffffffffff168573ffffffffffffffffffffffffffffffffffffffff1614806105ef57506105ee856105e9610fb5565b610be1565b5b61062e576040517f08c379a000000000000000000000000000000000000000000000000000000000815260040161062590612c26565b60405180910390fd5b61063b8585858585610fbd565b5050505050565b60608151835114610688576040517f08c379a000000000000000000000000000000000000000000000000000000000815260040161067f90612d26565b60405180910390fd5b6000835167ffffffffffffffff8111156106cb577f4e487b7100000000000000000000000000000000000000000000000000000000600052604160045260246000fd5b6040519080825280602002602001820160405280156106f95781602001602082028036833780820191505090505b50905060005b84518110156107e857610792858281518110610744577f4e487b7100000000000000000000000000000000000000000000000000000000600052603260045260246000fd5b6020026020010151858381518110610785577f4e487b7100000000000000000000000000000000000000000000000000000000600052603260045260246000fd5b6020026020010151610342565b8282815181106107cb577f4e487b7100000000000000000000000000000000000000000000000000000000600052603260045260246000fd5b602002602001018181525050806107e1906130e3565b90506106ff565b508091505092915050565b600560205280600052604060002060009150905080600001805461081690613080565b80601f016020809104026020016040519081016040528092919081815260200182805461084290613080565b801561088f5780601f106108645761010080835404028352916020019161088f565b820191906000526020600020905b81548152906001019060200180831161087257829003601f168201915b5050505050908060010180546108a490613080565b80601f01602080910402602001604051908101604052809291908181526020018280546108d090613080565b801561091d5780601f106108f25761010080835404028352916020019161091d565b820191906000526020600020905b81548152906001019060200180831161090057829003601f168201915b5050505050905082565b61092f61132b565b60046000815480929190610942906130e3565b9190505550604051806040016040528083815260200182815250600560006004548152602001908152602001600020600082015181600001908051906020019061098d929190611fc0565b5060208201518160010190805190602001906109aa929190611fc0565b509050507f064380938bf3e3a2f9fc9392be0e05db59af7785fc0988c19ffdb2c3c2a8bb20600454600560006004548152602001908152602001600020600001600560006004548152602001908152602001600020600101604051610a1193929190612da1565b60405180910390a15050565b610a2561132b565b610a2f60006113a9565b565b6000600360009054906101000a900473ffffffffffffffffffffffffffffffffffffffff16905090565b610a6d610a66610fb5565b838361146f565b5050565b610a8c838383604051806020016040528060008152506115dc565b505050565b6060806005600084815260200190815260200160002060000160056000858152602001908152602001600020600101818054610acc90613080565b80601f0160208091040260200160405190810160405280929190818152602001828054610af890613080565b8015610b455780601f10610b1a57610100808354040283529160200191610b45565b820191906000526020600020905b815481529060010190602001808311610b2857829003601f168201915b50505050509150808054610b5890613080565b80601f0160208091040260200160405190810160405280929190818152602001828054610b8490613080565b8015610bd15780601f10610ba657610100808354040283529160200191610bd1565b820191906000526020600020905b815481529060010190602001808311610bb457829003601f168201915b5050505050905091509150915091565b6000600160008473ffffffffffffffffffffffffffffffffffffffff1673ffffffffffffffffffffffffffffffffffffffff16815260200190815260200160002060008373ffffffffffffffffffffffffffffffffffffffff1673ffffffffffffffffffffffffffffffffffffffff16815260200190815260200160002060009054906101000a900460ff16905092915050565b610c7d610fb5565b73ffffffffffffffffffffffffffffffffffffffff168573ffffffffffffffffffffffffffffffffffffffff161480610cc35750610cc285610cbd610fb5565b610be1565b5b610d02576040517f08c379a0000000000000000000000000000000000000000000000000000000008152600401610cf990612c26565b60405180910390fd5b610d0f8585858585611855565b5050505050565b610d1e61132b565b600073ffffffffffffffffffffffffffffffffffffffff168173ffffffffffffffffffffffffffffffffffffffff161415610d8e576040517f08c379a0000000000000000000000000000000000000000000000000000000008152600401610d8590612c66565b60405180910390fd5b610d97816113a9565b50565b60007f01ffc9a7000000000000000000000000000000000000000000000000000000007bffffffffffffffffffffffffffffffffffffffffffffffffffffffff1916827bffffffffffffffffffffffffffffffffffffffffffffffffffffffff1916149050919050565b600073ffffffffffffffffffffffffffffffffffffffff168473ffffffffffffffffffffffffffffffffffffffff161415610e74576040517f08c379a0000000000000000000000000000000000000000000000000000000008152600401610e6b90612d66565b60405180910390fd5b6000610e7e610fb5565b90506000610e8b85611af1565b90506000610e9885611af1565b9050610ea983600089858589611bb7565b8460008088815260200190815260200160002060008973ffffffffffffffffffffffffffffffffffffffff1673ffffffffffffffffffffffffffffffffffffffff1681526020019081526020016000206000828254610f089190612f74565b925050819055508673ffffffffffffffffffffffffffffffffffffffff16600073ffffffffffffffffffffffffffffffffffffffff168473ffffffffffffffffffffffffffffffffffffffff167fc3d58168c5ae7397731d063d5bbf3d657854427343f4c083240f7aacaa2d0f628989604051610f86929190612de6565b60405180910390a4610f9d83600089858589611bc7565b610fac83600089898989611bcf565b50505050505050565b600033905090565b8151835114611001576040517f08c379a0000000000000000000000000000000000000000000000000000000008152600401610ff890612d46565b60405180910390fd5b600073ffffffffffffffffffffffffffffffffffffffff168473ffffffffffffffffffffffffffffffffffffffff161415611071576040517f08c379a000000000000000000000000000000000000000000000000000000000815260040161106890612ca6565b60405180910390fd5b600061107b610fb5565b905061108b818787878787611bb7565b60005b84518110156112885760008582815181106110d2577f4e487b7100000000000000000000000000000000000000000000000000000000600052603260045260246000fd5b602002602001015190506000858381518110611117577f4e487b7100000000000000000000000000000000000000000000000000000000600052603260045260246000fd5b60200260200101519050600080600084815260200190815260200160002060008b73ffffffffffffffffffffffffffffffffffffffff1673ffffffffffffffffffffffffffffffffffffffff168152602001908152602001600020549050818110156111b8576040517f08c379a00000000000000000000000000000000000000000000000000000000081526004016111af90612cc6565b60405180910390fd5b81810360008085815260200190815260200160002060008c73ffffffffffffffffffffffffffffffffffffffff1673ffffffffffffffffffffffffffffffffffffffff168152602001908152602001600020819055508160008085815260200190815260200160002060008b73ffffffffffffffffffffffffffffffffffffffff1673ffffffffffffffffffffffffffffffffffffffff168152602001908152602001600020600082825461126d9190612f74565b9250508190555050505080611281906130e3565b905061108e565b508473ffffffffffffffffffffffffffffffffffffffff168673ffffffffffffffffffffffffffffffffffffffff168273ffffffffffffffffffffffffffffffffffffffff167f4a39dc06d4c0dbc64b70af90fd698a233a518aa5d07e595d983b8c0526c8f7fb87876040516112ff929190612b5b565b60405180910390a4611315818787878787611bc7565b611323818787878787611db6565b505050505050565b611333610fb5565b73ffffffffffffffffffffffffffffffffffffffff16611351610a31565b73ffffffffffffffffffffffffffffffffffffffff16146113a7576040517f08c379a000000000000000000000000000000000000000000000000000000000815260040161139e90612ce6565b60405180910390fd5b565b6000600360009054906101000a900473ffffffffffffffffffffffffffffffffffffffff16905081600360006101000a81548173ffffffffffffffffffffffffffffffffffffffff021916908373ffffffffffffffffffffffffffffffffffffffff1602179055508173ffffffffffffffffffffffffffffffffffffffff168173ffffffffffffffffffffffffffffffffffffffff167f8be0079c531659141344cd1fd0a4f28419497f9722a3daafe3b4186f6b6457e060405160405180910390a35050565b8173ffffffffffffffffffffffffffffffffffffffff168373ffffffffffffffffffffffffffffffffffffffff1614156114de576040517f08c379a00000000000000000000000000000000000000000000000000000000081526004016114d590612d06565b60405180910390fd5b80600160008573ffffffffffffffffffffffffffffffffffffffff1673ffffffffffffffffffffffffffffffffffffffff16815260200190815260200160002060008473ffffffffffffffffffffffffffffffffffffffff1673ffffffffffffffffffffffffffffffffffffffff16815260200190815260200160002060006101000a81548160ff0219169083151502179055508173ffffffffffffffffffffffffffffffffffffffff168373ffffffffffffffffffffffffffffffffffffffff167f17307eab39ab6107e8899845ad3d59bd9653f200f220920489ca2b5937696c31836040516115cf9190612b92565b60405180910390a3505050565b600073ffffffffffffffffffffffffffffffffffffffff168473ffffffffffffffffffffffffffffffffffffffff16141561164c576040517f08c379a000000000000000000000000000000000000000000000000000000000815260040161164390612d66565b60405180910390fd5b8151835114611690576040517f08c379a000000000000000000000000000000000000000000000000000000000815260040161168790612d46565b60405180910390fd5b600061169a610fb5565b90506116ab81600087878787611bb7565b60005b84518110156117b0578381815181106116f0577f4e487b7100000000000000000000000000000000000000000000000000000000600052603260045260246000fd5b6020026020010151600080878481518110611734577f4e487b7100000000000000000000000000000000000000000000000000000000600052603260045260246000fd5b6020026020010151815260200190815260200160002060008873ffffffffffffffffffffffffffffffffffffffff1673ffffffffffffffffffffffffffffffffffffffff16815260200190815260200160002060008282546117969190612f74565b9250508190555080806117a8906130e3565b9150506116ae565b508473ffffffffffffffffffffffffffffffffffffffff16600073ffffffffffffffffffffffffffffffffffffffff168273ffffffffffffffffffffffffffffffffffffffff167f4a39dc06d4c0dbc64b70af90fd698a233a518aa5d07e595d983b8c0526c8f7fb8787604051611828929190612b5b565b60405180910390a461183f81600087878787611bc7565b61184e81600087878787611db6565b5050505050565b600073ffffffffffffffffffffffffffffffffffffffff168473ffffffffffffffffffffffffffffffffffffffff1614156118c5576040517f08c379a00000000000000000000000000000000000000000000000000000000081526004016118bc90612ca6565b60405180910390fd5b60006118cf610fb5565b905060006118dc85611af1565b905060006118e985611af1565b90506118f9838989858589611bb7565b600080600088815260200190815260200160002060008a73ffffffffffffffffffffffffffffffffffffffff1673ffffffffffffffffffffffffffffffffffffffff16815260200190815260200160002054905085811015611990576040517f08c379a000000000000000000000000000000000000000000000000000000000815260040161198790612cc6565b60405180910390fd5b85810360008089815260200190815260200160002060008b73ffffffffffffffffffffffffffffffffffffffff1673ffffffffffffffffffffffffffffffffffffffff168152602001908152602001600020819055508560008089815260200190815260200160002060008a73ffffffffffffffffffffffffffffffffffffffff1673ffffffffffffffffffffffffffffffffffffffff1681526020019081526020016000206000828254611a459190612f74565b925050819055508773ffffffffffffffffffffffffffffffffffffffff168973ffffffffffffffffffffffffffffffffffffffff168573ffffffffffffffffffffffffffffffffffffffff167fc3d58168c5ae7397731d063d5bbf3d657854427343f4c083240f7aacaa2d0f628a8a604051611ac2929190612de6565b60405180910390a4611ad8848a8a86868a611bc7565b611ae6848a8a8a8a8a611bcf565b505050505050505050565b60606000600167ffffffffffffffff811115611b36577f4e487b7100000000000000000000000000000000000000000000000000000000600052604160045260246000fd5b604051908082528060200260200182016040528015611b645781602001602082028036833780820191505090505b5090508281600081518110611ba2577f4e487b7100000000000000000000000000000000000000000000000000000000600052603260045260246000fd5b60200260200101818152505080915050919050565b611bbf61132b565b505050505050565b505050505050565b611bee8473ffffffffffffffffffffffffffffffffffffffff16611f9d565b15611dae578373ffffffffffffffffffffffffffffffffffffffff1663f23a6e6187878686866040518663ffffffff1660e01b8152600401611c34959493929190612adf565b602060405180830381600087803b158015611c4e57600080fd5b505af1925050508015611c7f57506040513d601f19601f82011682018060405250810190611c7c9190612656565b60015b611d2557611c8b6131b9565b806308c379a01415611ce85750611ca0613587565b80611cab5750611cea565b806040517f08c379a0000000000000000000000000000000000000000000000000000000008152600401611cdf9190612bad565b60405180910390fd5b505b6040517f08c379a0000000000000000000000000000000000000000000000000000000008152600401611d1c90612c06565b60405180910390fd5b63f23a6e6160e01b7bffffffffffffffffffffffffffffffffffffffffffffffffffffffff1916817bffffffffffffffffffffffffffffffffffffffffffffffffffffffff191614611dac576040517f08c379a0000000000000000000000000000000000000000000000000000000008152600401611da390612c46565b60405180910390fd5b505b505050505050565b611dd58473ffffffffffffffffffffffffffffffffffffffff16611f9d565b15611f95578373ffffffffffffffffffffffffffffffffffffffff1663bc197c8187878686866040518663ffffffff1660e01b8152600401611e1b959493929190612a77565b602060405180830381600087803b158015611e3557600080fd5b505af1925050508015611e6657506040513d601f19601f82011682018060405250810190611e639190612656565b60015b611f0c57611e726131b9565b806308c379a01415611ecf5750611e87613587565b80611e925750611ed1565b806040517f08c379a0000000000000000000000000000000000000000000000000000000008152600401611ec69190612bad565b60405180910390fd5b505b6040517f08c379a0000000000000000000000000000000000000000000000000000000008152600401611f0390612c06565b60405180910390fd5b63bc197c8160e01b7bffffffffffffffffffffffffffffffffffffffffffffffffffffffff1916817bffffffffffffffffffffffffffffffffffffffffffffffffffffffff191614611f93576040517f08c379a0000000000000000000000000000000000000000000000000000000008152600401611f8a90612c46565b60405180910390fd5b505b505050505050565b6000808273ffffffffffffffffffffffffffffffffffffffff163b119050919050565b828054611fcc90613080565b90600052602060002090601f016020900481019282611fee5760008555612035565b82601f1061200757805160ff1916838001178555612035565b82800160010185558215612035579182015b82811115612034578251825591602001919060010190612019565b5b5090506120429190612046565b5090565b5b8082111561205f576000816000905550600101612047565b5090565b600061207661207184612e34565b612e0f565b9050808382526020820190508285602086028201111561209557600080fd5b60005b858110156120c557816120ab88826121b7565b845260208401935060208301925050600181019050612098565b5050509392505050565b60006120e26120dd84612e60565b612e0f565b9050808382526020820190508285602086028201111561210157600080fd5b60005b85811015612131578161211788826122b3565b845260208401935060208301925050600181019050612104565b5050509392505050565b600061214e61214984612e8c565b612e0f565b90508281526020810184848401111561216657600080fd5b61217184828561303e565b509392505050565b600061218c61218784612ebd565b612e0f565b9050828152602081018484840111156121a457600080fd5b6121af84828561303e565b509392505050565b6000813590506121c68161361d565b92915050565b600082601f8301126121dd57600080fd5b81356121ed848260208601612063565b91505092915050565b600082601f83011261220757600080fd5b81356122178482602086016120cf565b91505092915050565b60008135905061222f81613634565b92915050565b6000813590506122448161364b565b92915050565b6000815190506122598161364b565b92915050565b600082601f83011261227057600080fd5b813561228084826020860161213b565b91505092915050565b600082601f83011261229a57600080fd5b81356122aa848260208601612179565b91505092915050565b6000813590506122c281613662565b92915050565b6000602082840312156122da57600080fd5b60006122e8848285016121b7565b91505092915050565b6000806040838503121561230457600080fd5b6000612312858286016121b7565b9250506020612323858286016121b7565b9150509250929050565b600080600080600060a0868803121561234557600080fd5b6000612353888289016121b7565b9550506020612364888289016121b7565b945050604086013567ffffffffffffffff81111561238157600080fd5b61238d888289016121f6565b935050606086013567ffffffffffffffff8111156123aa57600080fd5b6123b6888289016121f6565b925050608086013567ffffffffffffffff8111156123d357600080fd5b6123df8882890161225f565b9150509295509295909350565b600080600080600060a0868803121561240457600080fd5b6000612412888289016121b7565b9550506020612423888289016121b7565b9450506040612434888289016122b3565b9350506060612445888289016122b3565b925050608086013567ffffffffffffffff81111561246257600080fd5b61246e8882890161225f565b9150509295509295909350565b60008060006060848603121561249057600080fd5b600061249e868287016121b7565b935050602084013567ffffffffffffffff8111156124bb57600080fd5b6124c7868287016121f6565b925050604084013567ffffffffffffffff8111156124e457600080fd5b6124f0868287016121f6565b9150509250925092565b6000806040838503121561250d57600080fd5b600061251b858286016121b7565b925050602061252c85828601612220565b9150509250929050565b6000806040838503121561254957600080fd5b6000612557858286016121b7565b9250506020612568858286016122b3565b9150509250929050565b60008060006060848603121561258757600080fd5b6000612595868287016121b7565b93505060206125a6868287016122b3565b92505060406125b7868287016122b3565b9150509250925092565b600080604083850312156125d457600080fd5b600083013567ffffffffffffffff8111156125ee57600080fd5b6125fa858286016121cc565b925050602083013567ffffffffffffffff81111561261757600080fd5b612623858286016121f6565b9150509250929050565b60006020828403121561263f57600080fd5b600061264d84828501612235565b91505092915050565b60006020828403121561266857600080fd5b60006126768482850161224a565b91505092915050565b6000806040838503121561269257600080fd5b600083013567ffffffffffffffff8111156126ac57600080fd5b6126b885828601612289565b925050602083013567ffffffffffffffff8111156126d557600080fd5b6126e185828601612289565b9150509250929050565b6000602082840312156126fd57600080fd5b600061270b848285016122b3565b91505092915050565b60006127208383612a3e565b60208301905092915050565b61273581612fca565b82525050565b600061274682612f13565b6127508185612f41565b935061275b83612eee565b8060005b8381101561278c5781516127738882612714565b975061277e83612f34565b92505060018101905061275f565b5085935050505092915050565b6127a281612fdc565b82525050565b60006127b382612f1e565b6127bd8185612f52565b93506127cd81856020860161304d565b6127d6816131db565b840191505092915050565b60006127ec82612f29565b6127f68185612f63565b935061280681856020860161304d565b61280f816131db565b840191505092915050565b6000815461282781613080565b6128318186612f63565b9450600182166000811461284c576001811461285e57612891565b60ff1983168652602086019350612891565b61286785612efe565b60005b838110156128895781548189015260018201915060208101905061286a565b808801955050505b50505092915050565b60006128a7603483612f63565b91506128b2826131f9565b604082019050919050565b60006128ca602f83612f63565b91506128d582613248565b604082019050919050565b60006128ed602883612f63565b91506128f882613297565b604082019050919050565b6000612910602683612f63565b915061291b826132e6565b604082019050919050565b6000612933602a83612f63565b915061293e82613335565b604082019050919050565b6000612956602583612f63565b915061296182613384565b604082019050919050565b6000612979602a83612f63565b9150612984826133d3565b604082019050919050565b600061299c602083612f63565b91506129a782613422565b602082019050919050565b60006129bf602983612f63565b91506129ca8261344b565b604082019050919050565b60006129e2602983612f63565b91506129ed8261349a565b604082019050919050565b6000612a05602883612f63565b9150612a10826134e9565b604082019050919050565b6000612a28602183612f63565b9150612a3382613538565b604082019050919050565b612a4781613034565b82525050565b612a5681613034565b82525050565b6000602082019050612a71600083018461272c565b92915050565b600060a082019050612a8c600083018861272c565b612a99602083018761272c565b8181036040830152612aab818661273b565b90508181036060830152612abf818561273b565b90508181036080830152612ad381846127a8565b90509695505050505050565b600060a082019050612af4600083018861272c565b612b01602083018761272c565b612b0e6040830186612a4d565b612b1b6060830185612a4d565b8181036080830152612b2d81846127a8565b90509695505050505050565b60006020820190508181036000830152612b53818461273b565b905092915050565b60006040820190508181036000830152612b75818561273b565b90508181036020830152612b89818461273b565b90509392505050565b6000602082019050612ba76000830184612799565b92915050565b60006020820190508181036000830152612bc781846127e1565b905092915050565b60006040820190508181036000830152612be981856127e1565b90508181036020830152612bfd81846127e1565b90509392505050565b60006020820190508181036000830152612c1f8161289a565b9050919050565b60006020820190508181036000830152612c3f816128bd565b9050919050565b60006020820190508181036000830152612c5f816128e0565b9050919050565b60006020820190508181036000830152612c7f81612903565b9050919050565b60006020820190508181036000830152612c9f81612926565b9050919050565b60006020820190508181036000830152612cbf81612949565b9050919050565b60006020820190508181036000830152612cdf8161296c565b9050919050565b60006020820190508181036000830152612cff8161298f565b9050919050565b60006020820190508181036000830152612d1f816129b2565b9050919050565b60006020820190508181036000830152612d3f816129d5565b9050919050565b60006020820190508181036000830152612d5f816129f8565b9050919050565b60006020820190508181036000830152612d7f81612a1b565b9050919050565b6000602082019050612d9b6000830184612a4d565b92915050565b6000606082019050612db66000830186612a4d565b8181036020830152612dc8818561281a565b90508181036040830152612ddc818461281a565b9050949350505050565b6000604082019050612dfb6000830185612a4d565b612e086020830184612a4d565b9392505050565b6000612e19612e2a565b9050612e2582826130b2565b919050565b6000604051905090565b600067ffffffffffffffff821115612e4f57612e4e61318a565b5b602082029050602081019050919050565b600067ffffffffffffffff821115612e7b57612e7a61318a565b5b602082029050602081019050919050565b600067ffffffffffffffff821115612ea757612ea661318a565b5b612eb0826131db565b9050602081019050919050565b600067ffffffffffffffff821115612ed857612ed761318a565b5b612ee1826131db565b9050602081019050919050565b6000819050602082019050919050565b60008190508160005260206000209050919050565b600081519050919050565b600081519050919050565b600081519050919050565b6000602082019050919050565b600082825260208201905092915050565b600082825260208201905092915050565b600082825260208201905092915050565b6000612f7f82613034565b9150612f8a83613034565b9250827fffffffffffffffffffffffffffffffffffffffffffffffffffffffffffffffff03821115612fbf57612fbe61312c565b5b828201905092915050565b6000612fd582613014565b9050919050565b60008115159050919050565b60007fffffffff0000000000000000000000000000000000000000000000000000000082169050919050565b600073ffffffffffffffffffffffffffffffffffffffff82169050919050565b6000819050919050565b82818337600083830152505050565b60005b8381101561306b578082015181840152602081019050613050565b8381111561307a576000848401525b50505050565b6000600282049050600182168061309857607f821691505b602082108114156130ac576130ab61315b565b5b50919050565b6130bb826131db565b810181811067ffffffffffffffff821117156130da576130d961318a565b5b80604052505050565b60006130ee82613034565b91507fffffffffffffffffffffffffffffffffffffffffffffffffffffffffffffffff8214156131215761312061312c565b5b600182019050919050565b7f4e487b7100000000000000000000000000000000000000000000000000000000600052601160045260246000fd5b7f4e487b7100000000000000000000000000000000000000000000000000000000600052602260045260246000fd5b7f4e487b7100000000000000000000000000000000000000000000000000000000600052604160045260246000fd5b600060033d11156131d85760046000803e6131d56000516131ec565b90505b90565b6000601f19601f8301169050919050565b60008160e01c9050919050565b7f455243313135353a207472616e7366657220746f206e6f6e204552433131353560008201527f526563656976657220696d706c656d656e746572000000000000000000000000602082015250565b7f455243313135353a2063616c6c6572206973206e6f7420746f6b656e206f776e60008201527f6572206e6f7220617070726f7665640000000000000000000000000000000000602082015250565b7f455243313135353a204552433131353552656365697665722072656a6563746560008201527f6420746f6b656e73000000000000000000000000000000000000000000000000602082015250565b7f4f776e61626c653a206e6577206f776e657220697320746865207a65726f206160008201527f6464726573730000000000000000000000000000000000000000000000000000602082015250565b7f455243313135353a2061646472657373207a65726f206973206e6f742061207660008201527f616c6964206f776e657200000000000000000000000000000000000000000000602082015250565b7f455243313135353a207472616e7366657220746f20746865207a65726f20616460008201527f6472657373000000000000000000000000000000000000000000000000000000602082015250565b7f455243313135353a20696e73756666696369656e742062616c616e636520666f60008201527f72207472616e7366657200000000000000000000000000000000000000000000602082015250565b7f4f776e61626c653a2063616c6c6572206973206e6f7420746865206f776e6572600082015250565b7f455243313135353a2073657474696e6720617070726f76616c2073746174757360008201527f20666f722073656c660000000000000000000000000000000000000000000000602082015250565b7f455243313135353a206163636f756e747320616e6420696473206c656e67746860008201527f206d69736d617463680000000000000000000000000000000000000000000000602082015250565b7f455243313135353a2069647320616e6420616d6f756e7473206c656e6774682060008201527f6d69736d61746368000000000000000000000000000000000000000000000000602082015250565b7f455243313135353a206d696e7420746f20746865207a65726f2061646472657360008201527f7300000000000000000000000000000000000000000000000000000000000000602082015250565b600060443d10156135975761361a565b61359f612e2a565b60043d036004823e80513d602482011167ffffffffffffffff821117156135c757505061361a565b808201805167ffffffffffffffff8111156135e5575050505061361a565b80602083010160043d03850181111561360257505050505061361a565b613611826020018501866130b2565b82955050505050505b90565b61362681612fca565b811461363157600080fd5b50565b61363d81612fdc565b811461364857600080fd5b50565b61365481612fe8565b811461365f57600080fd5b50565b61366b81613034565b811461367657600080fd5b5056fea26469706673582212202f1dbc32c33fdb48961f2dc95a909030aeba55cd953170b18fe80ee57006ae9964736f6c63430008010033","opcodes":"PUSH1 0x80 PUSH1 0x40 MSTORE PUSH1 0x0 PUSH1 0x4 SSTORE CALLVALUE DUP1 ISZERO PUSH3 0x16 JUMPI PUSH1 0x0 DUP1 REVERT JUMPDEST POP PUSH1 0x40 MLOAD DUP1 PUSH1 0x20 ADD PUSH1 0x40 MSTORE DUP1 PUSH1 0x0 DUP2 MSTORE POP PUSH3 0x38 DUP2 PUSH3 0x5F PUSH1 0x20 SHL PUSH1 0x20 SHR JUMP JUMPDEST POP PUSH3 0x59 PUSH3 0x4D PUSH3 0x7B PUSH1 0x20 SHL PUSH1 0x20 SHR JUMP JUMPDEST PUSH3 0x83 PUSH1 0x20 SHL PUSH1 0x20 SHR JUMP JUMPDEST PUSH3 0x25E JUMP JUMPDEST DUP1 PUSH1 0x2 SWAP1 DUP1 MLOAD SWAP1 PUSH1 0x20 ADD SWAP1 PUSH3 0x77 SWAP3 SWAP2 SWAP1 PUSH3 0x149 JUMP JUMPDEST POP POP JUMP JUMPDEST PUSH1 0x0 CALLER SWAP1 POP SWAP1 JUMP JUMPDEST PUSH1 0x0 PUSH1 0x3 PUSH1 0x0 SWAP1 SLOAD SWAP1 PUSH2 0x100 EXP SWAP1 DIV PUSH20 0xFFFFFFFFFFFFFFFFFFFFFFFFFFFFFFFFFFFFFFFF AND SWAP1 POP DUP2 PUSH1 0x3 PUSH1 0x0 PUSH2 0x100 EXP DUP2 SLOAD DUP2 PUSH20 0xFFFFFFFFFFFFFFFFFFFFFFFFFFFFFFFFFFFFFFFF MUL NOT AND SWAP1 DUP4 PUSH20 0xFFFFFFFFFFFFFFFFFFFFFFFFFFFFFFFFFFFFFFFF AND MUL OR SWAP1 SSTORE POP DUP2 PUSH20 0xFFFFFFFFFFFFFFFFFFFFFFFFFFFFFFFFFFFFFFFF AND DUP2 PUSH20 0xFFFFFFFFFFFFFFFFFFFFFFFFFFFFFFFFFFFFFFFF AND PUSH32 0x8BE0079C531659141344CD1FD0A4F28419497F9722A3DAAFE3B4186F6B6457E0 PUSH1 0x40 MLOAD PUSH1 0x40 MLOAD DUP1 SWAP2 SUB SWAP1 LOG3 POP POP JUMP JUMPDEST DUP3 DUP1 SLOAD PUSH3 0x157 SWAP1 PUSH3 0x1F9 JUMP JUMPDEST SWAP1 PUSH1 0x0 MSTORE PUSH1 0x20 PUSH1 0x0 KECCAK256 SWAP1 PUSH1 0x1F ADD PUSH1 0x20 SWAP1 DIV DUP2 ADD SWAP3 DUP3 PUSH3 0x17B JUMPI PUSH1 0x0 DUP6 SSTORE PUSH3 0x1C7 JUMP JUMPDEST DUP3 PUSH1 0x1F LT PUSH3 0x196 JUMPI DUP1 MLOAD PUSH1 0xFF NOT AND DUP4 DUP1 ADD OR DUP6 SSTORE PUSH3 0x1C7 JUMP JUMPDEST DUP3 DUP1 ADD PUSH1 0x1 ADD DUP6 SSTORE DUP3 ISZERO PUSH3 0x1C7 JUMPI SWAP2 DUP3 ADD JUMPDEST DUP3 DUP2 GT ISZERO PUSH3 0x1C6 JUMPI DUP3 MLOAD DUP3 SSTORE SWAP2 PUSH1 0x20 ADD SWAP2 SWAP1 PUSH1 0x1 ADD SWAP1 PUSH3 0x1A9 JUMP JUMPDEST JUMPDEST POP SWAP1 POP PUSH3 0x1D6 SWAP2 SWAP1 PUSH3 0x1DA JUMP JUMPDEST POP SWAP1 JUMP JUMPDEST JUMPDEST DUP1 DUP3 GT ISZERO PUSH3 0x1F5 JUMPI PUSH1 0x0 DUP2 PUSH1 0x0 SWAP1 SSTORE POP PUSH1 0x1 ADD PUSH3 0x1DB JUMP JUMPDEST POP SWAP1 JUMP JUMPDEST PUSH1 0x0 PUSH1 0x2 DUP3 DIV SWAP1 POP PUSH1 0x1 DUP3 AND DUP1 PUSH3 0x212 JUMPI PUSH1 0x7F DUP3 AND SWAP2 POP JUMPDEST PUSH1 0x20 DUP3 LT DUP2 EQ ISZERO PUSH3 0x229 JUMPI PUSH3 0x228 PUSH3 0x22F JUMP JUMPDEST JUMPDEST POP SWAP2 SWAP1 POP JUMP JUMPDEST PUSH32 0x4E487B7100000000000000000000000000000000000000000000000000000000 PUSH1 0x0 MSTORE PUSH1 0x22 PUSH1 0x4 MSTORE PUSH1 0x24 PUSH1 0x0 REVERT JUMPDEST PUSH2 0x36AF DUP1 PUSH3 0x26E PUSH1 0x0 CODECOPY PUSH1 0x0 RETURN INVALID PUSH1 0x80 PUSH1 0x40 MSTORE CALLVALUE DUP1 ISZERO PUSH2 0x10 JUMPI PUSH1 0x0 DUP1 REVERT JUMPDEST POP PUSH1 0x4 CALLDATASIZE LT PUSH2 0xFF JUMPI PUSH1 0x0 CALLDATALOAD PUSH1 0xE0 SHR DUP1 PUSH4 0x715018A6 GT PUSH2 0x97 JUMPI DUP1 PUSH4 0xE4B50CB8 GT PUSH2 0x66 JUMPI DUP1 PUSH4 0xE4B50CB8 EQ PUSH2 0x2A9 JUMPI DUP1 PUSH4 0xE985E9C5 EQ PUSH2 0x2DA JUMPI DUP1 PUSH4 0xF242432A EQ PUSH2 0x30A JUMPI DUP1 PUSH4 0xF2FDE38B EQ PUSH2 0x326 JUMPI PUSH2 0xFF JUMP JUMPDEST DUP1 PUSH4 0x715018A6 EQ PUSH2 0x249 JUMPI DUP1 PUSH4 0x8DA5CB5B EQ PUSH2 0x253 JUMPI DUP1 PUSH4 0xA22CB465 EQ PUSH2 0x271 JUMPI DUP1 PUSH4 0xD81D0A15 EQ PUSH2 0x28D JUMPI PUSH2 0xFF JUMP JUMPDEST DUP1 PUSH4 0x2EB2C2D6 GT PUSH2 0xD3 JUMPI DUP1 PUSH4 0x2EB2C2D6 EQ PUSH2 0x1B0 JUMPI DUP1 PUSH4 0x4E1273F4 EQ PUSH2 0x1CC JUMPI DUP1 PUSH4 0x4F64B2BE EQ PUSH2 0x1FC JUMPI DUP1 PUSH4 0x5192A8F7 EQ PUSH2 0x22D JUMPI PUSH2 0xFF JUMP JUMPDEST DUP1 PUSH3 0xFDD58E EQ PUSH2 0x104 JUMPI DUP1 PUSH4 0x1FFC9A7 EQ PUSH2 0x134 JUMPI DUP1 PUSH4 0xE89341C EQ PUSH2 0x164 JUMPI DUP1 PUSH4 0x156E29F6 EQ PUSH2 0x194 JUMPI JUMPDEST PUSH1 0x0 DUP1 REVERT JUMPDEST PUSH2 0x11E PUSH1 0x4 DUP1 CALLDATASIZE SUB DUP2 ADD SWAP1 PUSH2 0x119 SWAP2 SWAP1 PUSH2 0x2536 JUMP JUMPDEST PUSH2 0x342 JUMP JUMPDEST PUSH1 0x40 MLOAD PUSH2 0x12B SWAP2 SWAP1 PUSH2 0x2D86 JUMP JUMPDEST PUSH1 0x40 MLOAD DUP1 SWAP2 SUB SWAP1 RETURN JUMPDEST PUSH2 0x14E PUSH1 0x4 DUP1 CALLDATASIZE SUB DUP2 ADD SWAP1 PUSH2 0x149 SWAP2 SWAP1 PUSH2 0x262D JUMP JUMPDEST PUSH2 0x40B JUMP JUMPDEST PUSH1 0x40 MLOAD PUSH2 0x15B SWAP2 SWAP1 PUSH2 0x2B92 JUMP JUMPDEST PUSH1 0x40 MLOAD DUP1 SWAP2 SUB SWAP1 RETURN JUMPDEST PUSH2 0x17E PUSH1 0x4 DUP1 CALLDATASIZE SUB DUP2 ADD SWAP1 PUSH2 0x179 SWAP2 SWAP1 PUSH2 0x26EB JUMP JUMPDEST PUSH2 0x4ED JUMP JUMPDEST PUSH1 0x40 MLOAD PUSH2 0x18B SWAP2 SWAP1 PUSH2 0x2BAD JUMP JUMPDEST PUSH1 0x40 MLOAD DUP1 SWAP2 SUB SWAP1 RETURN JUMPDEST PUSH2 0x1AE PUSH1 0x4 DUP1 CALLDATASIZE SUB DUP2 ADD SWAP1 PUSH2 0x1A9 SWAP2 SWAP1 PUSH2 0x2572 JUMP JUMPDEST PUSH2 0x581 JUMP JUMPDEST STOP JUMPDEST PUSH2 0x1CA PUSH1 0x4 DUP1 CALLDATASIZE SUB DUP2 ADD SWAP1 PUSH2 0x1C5 SWAP2 SWAP1 PUSH2 0x232D JUMP JUMPDEST PUSH2 0x5A1 JUMP JUMPDEST STOP JUMPDEST PUSH2 0x1E6 PUSH1 0x4 DUP1 CALLDATASIZE SUB DUP2 ADD SWAP1 PUSH2 0x1E1 SWAP2 SWAP1 PUSH2 0x25C1 JUMP JUMPDEST PUSH2 0x642 JUMP JUMPDEST PUSH1 0x40 MLOAD PUSH2 0x1F3 SWAP2 SWAP1 PUSH2 0x2B39 JUMP JUMPDEST PUSH1 0x40 MLOAD DUP1 SWAP2 SUB SWAP1 RETURN JUMPDEST PUSH2 0x216 PUSH1 0x4 DUP1 CALLDATASIZE SUB DUP2 ADD SWAP1 PUSH2 0x211 SWAP2 SWAP1 PUSH2 0x26EB JUMP JUMPDEST PUSH2 0x7F3 JUMP JUMPDEST PUSH1 0x40 MLOAD PUSH2 0x224 SWAP3 SWAP2 SWAP1 PUSH2 0x2BCF JUMP JUMPDEST PUSH1 0x40 MLOAD DUP1 SWAP2 SUB SWAP1 RETURN JUMPDEST PUSH2 0x247 PUSH1 0x4 DUP1 CALLDATASIZE SUB DUP2 ADD SWAP1 PUSH2 0x242 SWAP2 SWAP1 PUSH2 0x267F JUMP JUMPDEST PUSH2 0x927 JUMP JUMPDEST STOP JUMPDEST PUSH2 0x251 PUSH2 0xA1D JUMP JUMPDEST STOP JUMPDEST PUSH2 0x25B PUSH2 0xA31 JUMP JUMPDEST PUSH1 0x40 MLOAD PUSH2 0x268 SWAP2 SWAP1 PUSH2 0x2A5C JUMP JUMPDEST PUSH1 0x40 MLOAD DUP1 SWAP2 SUB SWAP1 RETURN JUMPDEST PUSH2 0x28B PUSH1 0x4 DUP1 CALLDATASIZE SUB DUP2 ADD SWAP1 PUSH2 0x286 SWAP2 SWAP1 PUSH2 0x24FA JUMP JUMPDEST PUSH2 0xA5B JUMP JUMPDEST STOP JUMPDEST PUSH2 0x2A7 PUSH1 0x4 DUP1 CALLDATASIZE SUB DUP2 ADD SWAP1 PUSH2 0x2A2 SWAP2 SWAP1 PUSH2 0x247B JUMP JUMPDEST PUSH2 0xA71 JUMP JUMPDEST STOP JUMPDEST PUSH2 0x2C3 PUSH1 0x4 DUP1 CALLDATASIZE SUB DUP2 ADD SWAP1 PUSH2 0x2BE SWAP2 SWAP1 PUSH2 0x26EB JUMP JUMPDEST PUSH2 0xA91 JUMP JUMPDEST PUSH1 0x40 MLOAD PUSH2 0x2D1 SWAP3 SWAP2 SWAP1 PUSH2 0x2BCF JUMP JUMPDEST PUSH1 0x40 MLOAD DUP1 SWAP2 SUB SWAP1 RETURN JUMPDEST PUSH2 0x2F4 PUSH1 0x4 DUP1 CALLDATASIZE SUB DUP2 ADD SWAP1 PUSH2 0x2EF SWAP2 SWAP1 PUSH2 0x22F1 JUMP JUMPDEST PUSH2 0xBE1 JUMP JUMPDEST PUSH1 0x40 MLOAD PUSH2 0x301 SWAP2 SWAP1 PUSH2 0x2B92 JUMP JUMPDEST PUSH1 0x40 MLOAD DUP1 SWAP2 SUB SWAP1 RETURN JUMPDEST PUSH2 0x324 PUSH1 0x4 DUP1 CALLDATASIZE SUB DUP2 ADD SWAP1 PUSH2 0x31F SWAP2 SWAP1 PUSH2 0x23EC JUMP JUMPDEST PUSH2 0xC75 JUMP JUMPDEST STOP JUMPDEST PUSH2 0x340 PUSH1 0x4 DUP1 CALLDATASIZE SUB DUP2 ADD SWAP1 PUSH2 0x33B SWAP2 SWAP1 PUSH2 0x22C8 JUMP JUMPDEST PUSH2 0xD16 JUMP JUMPDEST STOP JUMPDEST PUSH1 0x0 DUP1 PUSH20 0xFFFFFFFFFFFFFFFFFFFFFFFFFFFFFFFFFFFFFFFF AND DUP4 PUSH20 0xFFFFFFFFFFFFFFFFFFFFFFFFFFFFFFFFFFFFFFFF AND EQ ISZERO PUSH2 0x3B3 JUMPI PUSH1 0x40 MLOAD PUSH32 0x8C379A000000000000000000000000000000000000000000000000000000000 DUP2 MSTORE PUSH1 0x4 ADD PUSH2 0x3AA SWAP1 PUSH2 0x2C86 JUMP JUMPDEST PUSH1 0x40 MLOAD DUP1 SWAP2 SUB SWAP1 REVERT JUMPDEST PUSH1 0x0 DUP1 DUP4 DUP2 MSTORE PUSH1 0x20 ADD SWAP1 DUP2 MSTORE PUSH1 0x20 ADD PUSH1 0x0 KECCAK256 PUSH1 0x0 DUP5 PUSH20 0xFFFFFFFFFFFFFFFFFFFFFFFFFFFFFFFFFFFFFFFF AND PUSH20 0xFFFFFFFFFFFFFFFFFFFFFFFFFFFFFFFFFFFFFFFF AND DUP2 MSTORE PUSH1 0x20 ADD SWAP1 DUP2 MSTORE PUSH1 0x20 ADD PUSH1 0x0 KECCAK256 SLOAD SWAP1 POP SWAP3 SWAP2 POP POP JUMP JUMPDEST PUSH1 0x0 PUSH32 0xD9B67A2600000000000000000000000000000000000000000000000000000000 PUSH28 0xFFFFFFFFFFFFFFFFFFFFFFFFFFFFFFFFFFFFFFFFFFFFFFFFFFFFFFFF NOT AND DUP3 PUSH28 0xFFFFFFFFFFFFFFFFFFFFFFFFFFFFFFFFFFFFFFFFFFFFFFFFFFFFFFFF NOT AND EQ DUP1 PUSH2 0x4D6 JUMPI POP PUSH32 0xE89341C00000000000000000000000000000000000000000000000000000000 PUSH28 0xFFFFFFFFFFFFFFFFFFFFFFFFFFFFFFFFFFFFFFFFFFFFFFFFFFFFFFFF NOT AND DUP3 PUSH28 0xFFFFFFFFFFFFFFFFFFFFFFFFFFFFFFFFFFFFFFFFFFFFFFFFFFFFFFFF NOT AND EQ JUMPDEST DUP1 PUSH2 0x4E6 JUMPI POP PUSH2 0x4E5 DUP3 PUSH2 0xD9A JUMP JUMPDEST JUMPDEST SWAP1 POP SWAP2 SWAP1 POP JUMP JUMPDEST PUSH1 0x60 PUSH1 0x2 DUP1 SLOAD PUSH2 0x4FC SWAP1 PUSH2 0x3080 JUMP JUMPDEST DUP1 PUSH1 0x1F ADD PUSH1 0x20 DUP1 SWAP2 DIV MUL PUSH1 0x20 ADD PUSH1 0x40 MLOAD SWAP1 DUP2 ADD PUSH1 0x40 MSTORE DUP1 SWAP3 SWAP2 SWAP1 DUP2 DUP2 MSTORE PUSH1 0x20 ADD DUP3 DUP1 SLOAD PUSH2 0x528 SWAP1 PUSH2 0x3080 JUMP JUMPDEST DUP1 ISZERO PUSH2 0x575 JUMPI DUP1 PUSH1 0x1F LT PUSH2 0x54A JUMPI PUSH2 0x100 DUP1 DUP4 SLOAD DIV MUL DUP4 MSTORE SWAP2 PUSH1 0x20 ADD SWAP2 PUSH2 0x575 JUMP JUMPDEST DUP3 ADD SWAP2 SWAP1 PUSH1 0x0 MSTORE PUSH1 0x20 PUSH1 0x0 KECCAK256 SWAP1 JUMPDEST DUP2 SLOAD DUP2 MSTORE SWAP1 PUSH1 0x1 ADD SWAP1 PUSH1 0x20 ADD DUP1 DUP4 GT PUSH2 0x558 JUMPI DUP3 SWAP1 SUB PUSH1 0x1F AND DUP3 ADD SWAP2 JUMPDEST POP POP POP POP POP SWAP1 POP SWAP2 SWAP1 POP JUMP JUMPDEST PUSH2 0x59C DUP4 DUP4 DUP4 PUSH1 0x40 MLOAD DUP1 PUSH1 0x20 ADD PUSH1 0x40 MSTORE DUP1 PUSH1 0x0 DUP2 MSTORE POP PUSH2 0xE04 JUMP JUMPDEST POP POP POP JUMP JUMPDEST PUSH2 0x5A9 PUSH2 0xFB5 JUMP JUMPDEST PUSH20 0xFFFFFFFFFFFFFFFFFFFFFFFFFFFFFFFFFFFFFFFF AND DUP6 PUSH20 0xFFFFFFFFFFFFFFFFFFFFFFFFFFFFFFFFFFFFFFFF AND EQ DUP1 PUSH2 0x5EF JUMPI POP PUSH2 0x5EE DUP6 PUSH2 0x5E9 PUSH2 0xFB5 JUMP JUMPDEST PUSH2 0xBE1 JUMP JUMPDEST JUMPDEST PUSH2 0x62E JUMPI PUSH1 0x40 MLOAD PUSH32 0x8C379A000000000000000000000000000000000000000000000000000000000 DUP2 MSTORE PUSH1 0x4 ADD PUSH2 0x625 SWAP1 PUSH2 0x2C26 JUMP JUMPDEST PUSH1 0x40 MLOAD DUP1 SWAP2 SUB SWAP1 REVERT JUMPDEST PUSH2 0x63B DUP6 DUP6 DUP6 DUP6 DUP6 PUSH2 0xFBD JUMP JUMPDEST POP POP POP POP POP JUMP JUMPDEST PUSH1 0x60 DUP2 MLOAD DUP4 MLOAD EQ PUSH2 0x688 JUMPI PUSH1 0x40 MLOAD PUSH32 0x8C379A000000000000000000000000000000000000000000000000000000000 DUP2 MSTORE PUSH1 0x4 ADD PUSH2 0x67F SWAP1 PUSH2 0x2D26 JUMP JUMPDEST PUSH1 0x40 MLOAD DUP1 SWAP2 SUB SWAP1 REVERT JUMPDEST PUSH1 0x0 DUP4 MLOAD PUSH8 0xFFFFFFFFFFFFFFFF DUP2 GT ISZERO PUSH2 0x6CB JUMPI PUSH32 0x4E487B7100000000000000000000000000000000000000000000000000000000 PUSH1 0x0 MSTORE PUSH1 0x41 PUSH1 0x4 MSTORE PUSH1 0x24 PUSH1 0x0 REVERT JUMPDEST PUSH1 0x40 MLOAD SWAP1 DUP1 DUP3 MSTORE DUP1 PUSH1 0x20 MUL PUSH1 0x20 ADD DUP3 ADD PUSH1 0x40 MSTORE DUP1 ISZERO PUSH2 0x6F9 JUMPI DUP2 PUSH1 0x20 ADD PUSH1 0x20 DUP3 MUL DUP1 CALLDATASIZE DUP4 CALLDATACOPY DUP1 DUP3 ADD SWAP2 POP POP SWAP1 POP JUMPDEST POP SWAP1 POP PUSH1 0x0 JUMPDEST DUP5 MLOAD DUP2 LT ISZERO PUSH2 0x7E8 JUMPI PUSH2 0x792 DUP6 DUP3 DUP2 MLOAD DUP2 LT PUSH2 0x744 JUMPI PUSH32 0x4E487B7100000000000000000000000000000000000000000000000000000000 PUSH1 0x0 MSTORE PUSH1 0x32 PUSH1 0x4 MSTORE PUSH1 0x24 PUSH1 0x0 REVERT JUMPDEST PUSH1 0x20 MUL PUSH1 0x20 ADD ADD MLOAD DUP6 DUP4 DUP2 MLOAD DUP2 LT PUSH2 0x785 JUMPI PUSH32 0x4E487B7100000000000000000000000000000000000000000000000000000000 PUSH1 0x0 MSTORE PUSH1 0x32 PUSH1 0x4 MSTORE PUSH1 0x24 PUSH1 0x0 REVERT JUMPDEST PUSH1 0x20 MUL PUSH1 0x20 ADD ADD MLOAD PUSH2 0x342 JUMP JUMPDEST DUP3 DUP3 DUP2 MLOAD DUP2 LT PUSH2 0x7CB JUMPI PUSH32 0x4E487B7100000000000000000000000000000000000000000000000000000000 PUSH1 0x0 MSTORE PUSH1 0x32 PUSH1 0x4 MSTORE PUSH1 0x24 PUSH1 0x0 REVERT JUMPDEST PUSH1 0x20 MUL PUSH1 0x20 ADD ADD DUP2 DUP2 MSTORE POP POP DUP1 PUSH2 0x7E1 SWAP1 PUSH2 0x30E3 JUMP JUMPDEST SWAP1 POP PUSH2 0x6FF JUMP JUMPDEST POP DUP1 SWAP2 POP POP SWAP3 SWAP2 POP POP JUMP JUMPDEST PUSH1 0x5 PUSH1 0x20 MSTORE DUP1 PUSH1 0x0 MSTORE PUSH1 0x40 PUSH1 0x0 KECCAK256 PUSH1 0x0 SWAP2 POP SWAP1 POP DUP1 PUSH1 0x0 ADD DUP1 SLOAD PUSH2 0x816 SWAP1 PUSH2 0x3080 JUMP JUMPDEST DUP1 PUSH1 0x1F ADD PUSH1 0x20 DUP1 SWAP2 DIV MUL PUSH1 0x20 ADD PUSH1 0x40 MLOAD SWAP1 DUP2 ADD PUSH1 0x40 MSTORE DUP1 SWAP3 SWAP2 SWAP1 DUP2 DUP2 MSTORE PUSH1 0x20 ADD DUP3 DUP1 SLOAD PUSH2 0x842 SWAP1 PUSH2 0x3080 JUMP JUMPDEST DUP1 ISZERO PUSH2 0x88F JUMPI DUP1 PUSH1 0x1F LT PUSH2 0x864 JUMPI PUSH2 0x100 DUP1 DUP4 SLOAD DIV MUL DUP4 MSTORE SWAP2 PUSH1 0x20 ADD SWAP2 PUSH2 0x88F JUMP JUMPDEST DUP3 ADD SWAP2 SWAP1 PUSH1 0x0 MSTORE PUSH1 0x20 PUSH1 0x0 KECCAK256 SWAP1 JUMPDEST DUP2 SLOAD DUP2 MSTORE SWAP1 PUSH1 0x1 ADD SWAP1 PUSH1 0x20 ADD DUP1 DUP4 GT PUSH2 0x872 JUMPI DUP3 SWAP1 SUB PUSH1 0x1F AND DUP3 ADD SWAP2 JUMPDEST POP POP POP POP POP SWAP1 DUP1 PUSH1 0x1 ADD DUP1 SLOAD PUSH2 0x8A4 SWAP1 PUSH2 0x3080 JUMP JUMPDEST DUP1 PUSH1 0x1F ADD PUSH1 0x20 DUP1 SWAP2 DIV MUL PUSH1 0x20 ADD PUSH1 0x40 MLOAD SWAP1 DUP2 ADD PUSH1 0x40 MSTORE DUP1 SWAP3 SWAP2 SWAP1 DUP2 DUP2 MSTORE PUSH1 0x20 ADD DUP3 DUP1 SLOAD PUSH2 0x8D0 SWAP1 PUSH2 0x3080 JUMP JUMPDEST DUP1 ISZERO PUSH2 0x91D JUMPI DUP1 PUSH1 0x1F LT PUSH2 0x8F2 JUMPI PUSH2 0x100 DUP1 DUP4 SLOAD DIV MUL DUP4 MSTORE SWAP2 PUSH1 0x20 ADD SWAP2 PUSH2 0x91D JUMP JUMPDEST DUP3 ADD SWAP2 SWAP1 PUSH1 0x0 MSTORE PUSH1 0x20 PUSH1 0x0 KECCAK256 SWAP1 JUMPDEST DUP2 SLOAD DUP2 MSTORE SWAP1 PUSH1 0x1 ADD SWAP1 PUSH1 0x20 ADD DUP1 DUP4 GT PUSH2 0x900 JUMPI DUP3 SWAP1 SUB PUSH1 0x1F AND DUP3 ADD SWAP2 JUMPDEST POP POP POP POP POP SWAP1 POP DUP3 JUMP JUMPDEST PUSH2 0x92F PUSH2 0x132B JUMP JUMPDEST PUSH1 0x4 PUSH1 0x0 DUP2 SLOAD DUP1 SWAP3 SWAP2 SWAP1 PUSH2 0x942 SWAP1 PUSH2 0x30E3 JUMP JUMPDEST SWAP2 SWAP1 POP SSTORE POP PUSH1 0x40 MLOAD DUP1 PUSH1 0x40 ADD PUSH1 0x40 MSTORE DUP1 DUP4 DUP2 MSTORE PUSH1 0x20 ADD DUP3 DUP2 MSTORE POP PUSH1 0x5 PUSH1 0x0 PUSH1 0x4 SLOAD DUP2 MSTORE PUSH1 0x20 ADD SWAP1 DUP2 MSTORE PUSH1 0x20 ADD PUSH1 0x0 KECCAK256 PUSH1 0x0 DUP3 ADD MLOAD DUP2 PUSH1 0x0 ADD SWAP1 DUP1 MLOAD SWAP1 PUSH1 0x20 ADD SWAP1 PUSH2 0x98D SWAP3 SWAP2 SWAP1 PUSH2 0x1FC0 JUMP JUMPDEST POP PUSH1 0x20 DUP3 ADD MLOAD DUP2 PUSH1 0x1 ADD SWAP1 DUP1 MLOAD SWAP1 PUSH1 0x20 ADD SWAP1 PUSH2 0x9AA SWAP3 SWAP2 SWAP1 PUSH2 0x1FC0 JUMP JUMPDEST POP SWAP1 POP POP PUSH32 0x64380938BF3E3A2F9FC9392BE0E05DB59AF7785FC0988C19FFDB2C3C2A8BB20 PUSH1 0x4 SLOAD PUSH1 0x5 PUSH1 0x0 PUSH1 0x4 SLOAD DUP2 MSTORE PUSH1 0x20 ADD SWAP1 DUP2 MSTORE PUSH1 0x20 ADD PUSH1 0x0 KECCAK256 PUSH1 0x0 ADD PUSH1 0x5 PUSH1 0x0 PUSH1 0x4 SLOAD DUP2 MSTORE PUSH1 0x20 ADD SWAP1 DUP2 MSTORE PUSH1 0x20 ADD PUSH1 0x0 KECCAK256 PUSH1 0x1 ADD PUSH1 0x40 MLOAD PUSH2 0xA11 SWAP4 SWAP3 SWAP2 SWAP1 PUSH2 0x2DA1 JUMP JUMPDEST PUSH1 0x40 MLOAD DUP1 SWAP2 SUB SWAP1 LOG1 POP POP JUMP JUMPDEST PUSH2 0xA25 PUSH2 0x132B JUMP JUMPDEST PUSH2 0xA2F PUSH1 0x0 PUSH2 0x13A9 JUMP JUMPDEST JUMP JUMPDEST PUSH1 0x0 PUSH1 0x3 PUSH1 0x0 SWAP1 SLOAD SWAP1 PUSH2 0x100 EXP SWAP1 DIV PUSH20 0xFFFFFFFFFFFFFFFFFFFFFFFFFFFFFFFFFFFFFFFF AND SWAP1 POP SWAP1 JUMP JUMPDEST PUSH2 0xA6D PUSH2 0xA66 PUSH2 0xFB5 JUMP JUMPDEST DUP4 DUP4 PUSH2 0x146F JUMP JUMPDEST POP POP JUMP JUMPDEST PUSH2 0xA8C DUP4 DUP4 DUP4 PUSH1 0x40 MLOAD DUP1 PUSH1 0x20 ADD PUSH1 0x40 MSTORE DUP1 PUSH1 0x0 DUP2 MSTORE POP PUSH2 0x15DC JUMP JUMPDEST POP POP POP JUMP JUMPDEST PUSH1 0x60 DUP1 PUSH1 0x5 PUSH1 0x0 DUP5 DUP2 MSTORE PUSH1 0x20 ADD SWAP1 DUP2 MSTORE PUSH1 0x20 ADD PUSH1 0x0 KECCAK256 PUSH1 0x0 ADD PUSH1 0x5 PUSH1 0x0 DUP6 DUP2 MSTORE PUSH1 0x20 ADD SWAP1 DUP2 MSTORE PUSH1 0x20 ADD PUSH1 0x0 KECCAK256 PUSH1 0x1 ADD DUP2 DUP1 SLOAD PUSH2 0xACC SWAP1 PUSH2 0x3080 JUMP JUMPDEST DUP1 PUSH1 0x1F ADD PUSH1 0x20 DUP1 SWAP2 DIV MUL PUSH1 0x20 ADD PUSH1 0x40 MLOAD SWAP1 DUP2 ADD PUSH1 0x40 MSTORE DUP1 SWAP3 SWAP2 SWAP1 DUP2 DUP2 MSTORE PUSH1 0x20 ADD DUP3 DUP1 SLOAD PUSH2 0xAF8 SWAP1 PUSH2 0x3080 JUMP JUMPDEST DUP1 ISZERO PUSH2 0xB45 JUMPI DUP1 PUSH1 0x1F LT PUSH2 0xB1A JUMPI PUSH2 0x100 DUP1 DUP4 SLOAD DIV MUL DUP4 MSTORE SWAP2 PUSH1 0x20 ADD SWAP2 PUSH2 0xB45 JUMP JUMPDEST DUP3 ADD SWAP2 SWAP1 PUSH1 0x0 MSTORE PUSH1 0x20 PUSH1 0x0 KECCAK256 SWAP1 JUMPDEST DUP2 SLOAD DUP2 MSTORE SWAP1 PUSH1 0x1 ADD SWAP1 PUSH1 0x20 ADD DUP1 DUP4 GT PUSH2 0xB28 JUMPI DUP3 SWAP1 SUB PUSH1 0x1F AND DUP3 ADD SWAP2 JUMPDEST POP POP POP POP POP SWAP2 POP DUP1 DUP1 SLOAD PUSH2 0xB58 SWAP1 PUSH2 0x3080 JUMP JUMPDEST DUP1 PUSH1 0x1F ADD PUSH1 0x20 DUP1 SWAP2 DIV MUL PUSH1 0x20 ADD PUSH1 0x40 MLOAD SWAP1 DUP2 ADD PUSH1 0x40 MSTORE DUP1 SWAP3 SWAP2 SWAP1 DUP2 DUP2 MSTORE PUSH1 0x20 ADD DUP3 DUP1 SLOAD PUSH2 0xB84 SWAP1 PUSH2 0x3080 JUMP JUMPDEST DUP1 ISZERO PUSH2 0xBD1 JUMPI DUP1 PUSH1 0x1F LT PUSH2 0xBA6 JUMPI PUSH2 0x100 DUP1 DUP4 SLOAD DIV MUL DUP4 MSTORE SWAP2 PUSH1 0x20 ADD SWAP2 PUSH2 0xBD1 JUMP JUMPDEST DUP3 ADD SWAP2 SWAP1 PUSH1 0x0 MSTORE PUSH1 0x20 PUSH1 0x0 KECCAK256 SWAP1 JUMPDEST DUP2 SLOAD DUP2 MSTORE SWAP1 PUSH1 0x1 ADD SWAP1 PUSH1 0x20 ADD DUP1 DUP4 GT PUSH2 0xBB4 JUMPI DUP3 SWAP1 SUB PUSH1 0x1F AND DUP3 ADD SWAP2 JUMPDEST POP POP POP POP POP SWAP1 POP SWAP2 POP SWAP2 POP SWAP2 POP SWAP2 JUMP JUMPDEST PUSH1 0x0 PUSH1 0x1 PUSH1 0x0 DUP5 PUSH20 0xFFFFFFFFFFFFFFFFFFFFFFFFFFFFFFFFFFFFFFFF AND PUSH20 0xFFFFFFFFFFFFFFFFFFFFFFFFFFFFFFFFFFFFFFFF AND DUP2 MSTORE PUSH1 0x20 ADD SWAP1 DUP2 MSTORE PUSH1 0x20 ADD PUSH1 0x0 KECCAK256 PUSH1 0x0 DUP4 PUSH20 0xFFFFFFFFFFFFFFFFFFFFFFFFFFFFFFFFFFFFFFFF AND PUSH20 0xFFFFFFFFFFFFFFFFFFFFFFFFFFFFFFFFFFFFFFFF AND DUP2 MSTORE PUSH1 0x20 ADD SWAP1 DUP2 MSTORE PUSH1 0x20 ADD PUSH1 0x0 KECCAK256 PUSH1 0x0 SWAP1 SLOAD SWAP1 PUSH2 0x100 EXP SWAP1 DIV PUSH1 0xFF AND SWAP1 POP SWAP3 SWAP2 POP POP JUMP JUMPDEST PUSH2 0xC7D PUSH2 0xFB5 JUMP JUMPDEST PUSH20 0xFFFFFFFFFFFFFFFFFFFFFFFFFFFFFFFFFFFFFFFF AND DUP6 PUSH20 0xFFFFFFFFFFFFFFFFFFFFFFFFFFFFFFFFFFFFFFFF AND EQ DUP1 PUSH2 0xCC3 JUMPI POP PUSH2 0xCC2 DUP6 PUSH2 0xCBD PUSH2 0xFB5 JUMP JUMPDEST PUSH2 0xBE1 JUMP JUMPDEST JUMPDEST PUSH2 0xD02 JUMPI PUSH1 0x40 MLOAD PUSH32 0x8C379A000000000000000000000000000000000000000000000000000000000 DUP2 MSTORE PUSH1 0x4 ADD PUSH2 0xCF9 SWAP1 PUSH2 0x2C26 JUMP JUMPDEST PUSH1 0x40 MLOAD DUP1 SWAP2 SUB SWAP1 REVERT JUMPDEST PUSH2 0xD0F DUP6 DUP6 DUP6 DUP6 DUP6 PUSH2 0x1855 JUMP JUMPDEST POP POP POP POP POP JUMP JUMPDEST PUSH2 0xD1E PUSH2 0x132B JUMP JUMPDEST PUSH1 0x0 PUSH20 0xFFFFFFFFFFFFFFFFFFFFFFFFFFFFFFFFFFFFFFFF AND DUP2 PUSH20 0xFFFFFFFFFFFFFFFFFFFFFFFFFFFFFFFFFFFFFFFF AND EQ ISZERO PUSH2 0xD8E JUMPI PUSH1 0x40 MLOAD PUSH32 0x8C379A000000000000000000000000000000000000000000000000000000000 DUP2 MSTORE PUSH1 0x4 ADD PUSH2 0xD85 SWAP1 PUSH2 0x2C66 JUMP JUMPDEST PUSH1 0x40 MLOAD DUP1 SWAP2 SUB SWAP1 REVERT JUMPDEST PUSH2 0xD97 DUP2 PUSH2 0x13A9 JUMP JUMPDEST POP JUMP JUMPDEST PUSH1 0x0 PUSH32 0x1FFC9A700000000000000000000000000000000000000000000000000000000 PUSH28 0xFFFFFFFFFFFFFFFFFFFFFFFFFFFFFFFFFFFFFFFFFFFFFFFFFFFFFFFF NOT AND DUP3 PUSH28 0xFFFFFFFFFFFFFFFFFFFFFFFFFFFFFFFFFFFFFFFFFFFFFFFFFFFFFFFF NOT AND EQ SWAP1 POP SWAP2 SWAP1 POP JUMP JUMPDEST PUSH1 0x0 PUSH20 0xFFFFFFFFFFFFFFFFFFFFFFFFFFFFFFFFFFFFFFFF AND DUP5 PUSH20 0xFFFFFFFFFFFFFFFFFFFFFFFFFFFFFFFFFFFFFFFF AND EQ ISZERO PUSH2 0xE74 JUMPI PUSH1 0x40 MLOAD PUSH32 0x8C379A000000000000000000000000000000000000000000000000000000000 DUP2 MSTORE PUSH1 0x4 ADD PUSH2 0xE6B SWAP1 PUSH2 0x2D66 JUMP JUMPDEST PUSH1 0x40 MLOAD DUP1 SWAP2 SUB SWAP1 REVERT JUMPDEST PUSH1 0x0 PUSH2 0xE7E PUSH2 0xFB5 JUMP JUMPDEST SWAP1 POP PUSH1 0x0 PUSH2 0xE8B DUP6 PUSH2 0x1AF1 JUMP JUMPDEST SWAP1 POP PUSH1 0x0 PUSH2 0xE98 DUP6 PUSH2 0x1AF1 JUMP JUMPDEST SWAP1 POP PUSH2 0xEA9 DUP4 PUSH1 0x0 DUP10 DUP6 DUP6 DUP10 PUSH2 0x1BB7 JUMP JUMPDEST DUP5 PUSH1 0x0 DUP1 DUP9 DUP2 MSTORE PUSH1 0x20 ADD SWAP1 DUP2 MSTORE PUSH1 0x20 ADD PUSH1 0x0 KECCAK256 PUSH1 0x0 DUP10 PUSH20 0xFFFFFFFFFFFFFFFFFFFFFFFFFFFFFFFFFFFFFFFF AND PUSH20 0xFFFFFFFFFFFFFFFFFFFFFFFFFFFFFFFFFFFFFFFF AND DUP2 MSTORE PUSH1 0x20 ADD SWAP1 DUP2 MSTORE PUSH1 0x20 ADD PUSH1 0x0 KECCAK256 PUSH1 0x0 DUP3 DUP3 SLOAD PUSH2 0xF08 SWAP2 SWAP1 PUSH2 0x2F74 JUMP JUMPDEST SWAP3 POP POP DUP2 SWAP1 SSTORE POP DUP7 PUSH20 0xFFFFFFFFFFFFFFFFFFFFFFFFFFFFFFFFFFFFFFFF AND PUSH1 0x0 PUSH20 0xFFFFFFFFFFFFFFFFFFFFFFFFFFFFFFFFFFFFFFFF AND DUP5 PUSH20 0xFFFFFFFFFFFFFFFFFFFFFFFFFFFFFFFFFFFFFFFF AND PUSH32 0xC3D58168C5AE7397731D063D5BBF3D657854427343F4C083240F7AACAA2D0F62 DUP10 DUP10 PUSH1 0x40 MLOAD PUSH2 0xF86 SWAP3 SWAP2 SWAP1 PUSH2 0x2DE6 JUMP JUMPDEST PUSH1 0x40 MLOAD DUP1 SWAP2 SUB SWAP1 LOG4 PUSH2 0xF9D DUP4 PUSH1 0x0 DUP10 DUP6 DUP6 DUP10 PUSH2 0x1BC7 JUMP JUMPDEST PUSH2 0xFAC DUP4 PUSH1 0x0 DUP10 DUP10 DUP10 DUP10 PUSH2 0x1BCF JUMP JUMPDEST POP POP POP POP POP POP POP JUMP JUMPDEST PUSH1 0x0 CALLER SWAP1 POP SWAP1 JUMP JUMPDEST DUP2 MLOAD DUP4 MLOAD EQ PUSH2 0x1001 JUMPI PUSH1 0x40 MLOAD PUSH32 0x8C379A000000000000000000000000000000000000000000000000000000000 DUP2 MSTORE PUSH1 0x4 ADD PUSH2 0xFF8 SWAP1 PUSH2 0x2D46 JUMP JUMPDEST PUSH1 0x40 MLOAD DUP1 SWAP2 SUB SWAP1 REVERT JUMPDEST PUSH1 0x0 PUSH20 0xFFFFFFFFFFFFFFFFFFFFFFFFFFFFFFFFFFFFFFFF AND DUP5 PUSH20 0xFFFFFFFFFFFFFFFFFFFFFFFFFFFFFFFFFFFFFFFF AND EQ ISZERO PUSH2 0x1071 JUMPI PUSH1 0x40 MLOAD PUSH32 0x8C379A000000000000000000000000000000000000000000000000000000000 DUP2 MSTORE PUSH1 0x4 ADD PUSH2 0x1068 SWAP1 PUSH2 0x2CA6 JUMP JUMPDEST PUSH1 0x40 MLOAD DUP1 SWAP2 SUB SWAP1 REVERT JUMPDEST PUSH1 0x0 PUSH2 0x107B PUSH2 0xFB5 JUMP JUMPDEST SWAP1 POP PUSH2 0x108B DUP2 DUP8 DUP8 DUP8 DUP8 DUP8 PUSH2 0x1BB7 JUMP JUMPDEST PUSH1 0x0 JUMPDEST DUP5 MLOAD DUP2 LT ISZERO PUSH2 0x1288 JUMPI PUSH1 0x0 DUP6 DUP3 DUP2 MLOAD DUP2 LT PUSH2 0x10D2 JUMPI PUSH32 0x4E487B7100000000000000000000000000000000000000000000000000000000 PUSH1 0x0 MSTORE PUSH1 0x32 PUSH1 0x4 MSTORE PUSH1 0x24 PUSH1 0x0 REVERT JUMPDEST PUSH1 0x20 MUL PUSH1 0x20 ADD ADD MLOAD SWAP1 POP PUSH1 0x0 DUP6 DUP4 DUP2 MLOAD DUP2 LT PUSH2 0x1117 JUMPI PUSH32 0x4E487B7100000000000000000000000000000000000000000000000000000000 PUSH1 0x0 MSTORE PUSH1 0x32 PUSH1 0x4 MSTORE PUSH1 0x24 PUSH1 0x0 REVERT JUMPDEST PUSH1 0x20 MUL PUSH1 0x20 ADD ADD MLOAD SWAP1 POP PUSH1 0x0 DUP1 PUSH1 0x0 DUP5 DUP2 MSTORE PUSH1 0x20 ADD SWAP1 DUP2 MSTORE PUSH1 0x20 ADD PUSH1 0x0 KECCAK256 PUSH1 0x0 DUP12 PUSH20 0xFFFFFFFFFFFFFFFFFFFFFFFFFFFFFFFFFFFFFFFF AND PUSH20 0xFFFFFFFFFFFFFFFFFFFFFFFFFFFFFFFFFFFFFFFF AND DUP2 MSTORE PUSH1 0x20 ADD SWAP1 DUP2 MSTORE PUSH1 0x20 ADD PUSH1 0x0 KECCAK256 SLOAD SWAP1 POP DUP2 DUP2 LT ISZERO PUSH2 0x11B8 JUMPI PUSH1 0x40 MLOAD PUSH32 0x8C379A000000000000000000000000000000000000000000000000000000000 DUP2 MSTORE PUSH1 0x4 ADD PUSH2 0x11AF SWAP1 PUSH2 0x2CC6 JUMP JUMPDEST PUSH1 0x40 MLOAD DUP1 SWAP2 SUB SWAP1 REVERT JUMPDEST DUP2 DUP2 SUB PUSH1 0x0 DUP1 DUP6 DUP2 MSTORE PUSH1 0x20 ADD SWAP1 DUP2 MSTORE PUSH1 0x20 ADD PUSH1 0x0 KECCAK256 PUSH1 0x0 DUP13 PUSH20 0xFFFFFFFFFFFFFFFFFFFFFFFFFFFFFFFFFFFFFFFF AND PUSH20 0xFFFFFFFFFFFFFFFFFFFFFFFFFFFFFFFFFFFFFFFF AND DUP2 MSTORE PUSH1 0x20 ADD SWAP1 DUP2 MSTORE PUSH1 0x20 ADD PUSH1 0x0 KECCAK256 DUP2 SWAP1 SSTORE POP DUP2 PUSH1 0x0 DUP1 DUP6 DUP2 MSTORE PUSH1 0x20 ADD SWAP1 DUP2 MSTORE PUSH1 0x20 ADD PUSH1 0x0 KECCAK256 PUSH1 0x0 DUP12 PUSH20 0xFFFFFFFFFFFFFFFFFFFFFFFFFFFFFFFFFFFFFFFF AND PUSH20 0xFFFFFFFFFFFFFFFFFFFFFFFFFFFFFFFFFFFFFFFF AND DUP2 MSTORE PUSH1 0x20 ADD SWAP1 DUP2 MSTORE PUSH1 0x20 ADD PUSH1 0x0 KECCAK256 PUSH1 0x0 DUP3 DUP3 SLOAD PUSH2 0x126D SWAP2 SWAP1 PUSH2 0x2F74 JUMP JUMPDEST SWAP3 POP POP DUP2 SWAP1 SSTORE POP POP POP POP DUP1 PUSH2 0x1281 SWAP1 PUSH2 0x30E3 JUMP JUMPDEST SWAP1 POP PUSH2 0x108E JUMP JUMPDEST POP DUP5 PUSH20 0xFFFFFFFFFFFFFFFFFFFFFFFFFFFFFFFFFFFFFFFF AND DUP7 PUSH20 0xFFFFFFFFFFFFFFFFFFFFFFFFFFFFFFFFFFFFFFFF AND DUP3 PUSH20 0xFFFFFFFFFFFFFFFFFFFFFFFFFFFFFFFFFFFFFFFF AND PUSH32 0x4A39DC06D4C0DBC64B70AF90FD698A233A518AA5D07E595D983B8C0526C8F7FB DUP8 DUP8 PUSH1 0x40 MLOAD PUSH2 0x12FF SWAP3 SWAP2 SWAP1 PUSH2 0x2B5B JUMP JUMPDEST PUSH1 0x40 MLOAD DUP1 SWAP2 SUB SWAP1 LOG4 PUSH2 0x1315 DUP2 DUP8 DUP8 DUP8 DUP8 DUP8 PUSH2 0x1BC7 JUMP JUMPDEST PUSH2 0x1323 DUP2 DUP8 DUP8 DUP8 DUP8 DUP8 PUSH2 0x1DB6 JUMP JUMPDEST POP POP POP POP POP POP JUMP JUMPDEST PUSH2 0x1333 PUSH2 0xFB5 JUMP JUMPDEST PUSH20 0xFFFFFFFFFFFFFFFFFFFFFFFFFFFFFFFFFFFFFFFF AND PUSH2 0x1351 PUSH2 0xA31 JUMP JUMPDEST PUSH20 0xFFFFFFFFFFFFFFFFFFFFFFFFFFFFFFFFFFFFFFFF AND EQ PUSH2 0x13A7 JUMPI PUSH1 0x40 MLOAD PUSH32 0x8C379A000000000000000000000000000000000000000000000000000000000 DUP2 MSTORE PUSH1 0x4 ADD PUSH2 0x139E SWAP1 PUSH2 0x2CE6 JUMP JUMPDEST PUSH1 0x40 MLOAD DUP1 SWAP2 SUB SWAP1 REVERT JUMPDEST JUMP JUMPDEST PUSH1 0x0 PUSH1 0x3 PUSH1 0x0 SWAP1 SLOAD SWAP1 PUSH2 0x100 EXP SWAP1 DIV PUSH20 0xFFFFFFFFFFFFFFFFFFFFFFFFFFFFFFFFFFFFFFFF AND SWAP1 POP DUP2 PUSH1 0x3 PUSH1 0x0 PUSH2 0x100 EXP DUP2 SLOAD DUP2 PUSH20 0xFFFFFFFFFFFFFFFFFFFFFFFFFFFFFFFFFFFFFFFF MUL NOT AND SWAP1 DUP4 PUSH20 0xFFFFFFFFFFFFFFFFFFFFFFFFFFFFFFFFFFFFFFFF AND MUL OR SWAP1 SSTORE POP DUP2 PUSH20 0xFFFFFFFFFFFFFFFFFFFFFFFFFFFFFFFFFFFFFFFF AND DUP2 PUSH20 0xFFFFFFFFFFFFFFFFFFFFFFFFFFFFFFFFFFFFFFFF AND PUSH32 0x8BE0079C531659141344CD1FD0A4F28419497F9722A3DAAFE3B4186F6B6457E0 PUSH1 0x40 MLOAD PUSH1 0x40 MLOAD DUP1 SWAP2 SUB SWAP1 LOG3 POP POP JUMP JUMPDEST DUP2 PUSH20 0xFFFFFFFFFFFFFFFFFFFFFFFFFFFFFFFFFFFFFFFF AND DUP4 PUSH20 0xFFFFFFFFFFFFFFFFFFFFFFFFFFFFFFFFFFFFFFFF AND EQ ISZERO PUSH2 0x14DE JUMPI PUSH1 0x40 MLOAD PUSH32 0x8C379A000000000000000000000000000000000000000000000000000000000 DUP2 MSTORE PUSH1 0x4 ADD PUSH2 0x14D5 SWAP1 PUSH2 0x2D06 JUMP JUMPDEST PUSH1 0x40 MLOAD DUP1 SWAP2 SUB SWAP1 REVERT JUMPDEST DUP1 PUSH1 0x1 PUSH1 0x0 DUP6 PUSH20 0xFFFFFFFFFFFFFFFFFFFFFFFFFFFFFFFFFFFFFFFF AND PUSH20 0xFFFFFFFFFFFFFFFFFFFFFFFFFFFFFFFFFFFFFFFF AND DUP2 MSTORE PUSH1 0x20 ADD SWAP1 DUP2 MSTORE PUSH1 0x20 ADD PUSH1 0x0 KECCAK256 PUSH1 0x0 DUP5 PUSH20 0xFFFFFFFFFFFFFFFFFFFFFFFFFFFFFFFFFFFFFFFF AND PUSH20 0xFFFFFFFFFFFFFFFFFFFFFFFFFFFFFFFFFFFFFFFF AND DUP2 MSTORE PUSH1 0x20 ADD SWAP1 DUP2 MSTORE PUSH1 0x20 ADD PUSH1 0x0 KECCAK256 PUSH1 0x0 PUSH2 0x100 EXP DUP2 SLOAD DUP2 PUSH1 0xFF MUL NOT AND SWAP1 DUP4 ISZERO ISZERO MUL OR SWAP1 SSTORE POP DUP2 PUSH20 0xFFFFFFFFFFFFFFFFFFFFFFFFFFFFFFFFFFFFFFFF AND DUP4 PUSH20 0xFFFFFFFFFFFFFFFFFFFFFFFFFFFFFFFFFFFFFFFF AND PUSH32 0x17307EAB39AB6107E8899845AD3D59BD9653F200F220920489CA2B5937696C31 DUP4 PUSH1 0x40 MLOAD PUSH2 0x15CF SWAP2 SWAP1 PUSH2 0x2B92 JUMP JUMPDEST PUSH1 0x40 MLOAD DUP1 SWAP2 SUB SWAP1 LOG3 POP POP POP JUMP JUMPDEST PUSH1 0x0 PUSH20 0xFFFFFFFFFFFFFFFFFFFFFFFFFFFFFFFFFFFFFFFF AND DUP5 PUSH20 0xFFFFFFFFFFFFFFFFFFFFFFFFFFFFFFFFFFFFFFFF AND EQ ISZERO PUSH2 0x164C JUMPI PUSH1 0x40 MLOAD PUSH32 0x8C379A000000000000000000000000000000000000000000000000000000000 DUP2 MSTORE PUSH1 0x4 ADD PUSH2 0x1643 SWAP1 PUSH2 0x2D66 JUMP JUMPDEST PUSH1 0x40 MLOAD DUP1 SWAP2 SUB SWAP1 REVERT JUMPDEST DUP2 MLOAD DUP4 MLOAD EQ PUSH2 0x1690 JUMPI PUSH1 0x40 MLOAD PUSH32 0x8C379A000000000000000000000000000000000000000000000000000000000 DUP2 MSTORE PUSH1 0x4 ADD PUSH2 0x1687 SWAP1 PUSH2 0x2D46 JUMP JUMPDEST PUSH1 0x40 MLOAD DUP1 SWAP2 SUB SWAP1 REVERT JUMPDEST PUSH1 0x0 PUSH2 0x169A PUSH2 0xFB5 JUMP JUMPDEST SWAP1 POP PUSH2 0x16AB DUP2 PUSH1 0x0 DUP8 DUP8 DUP8 DUP8 PUSH2 0x1BB7 JUMP JUMPDEST PUSH1 0x0 JUMPDEST DUP5 MLOAD DUP2 LT ISZERO PUSH2 0x17B0 JUMPI DUP4 DUP2 DUP2 MLOAD DUP2 LT PUSH2 0x16F0 JUMPI PUSH32 0x4E487B7100000000000000000000000000000000000000000000000000000000 PUSH1 0x0 MSTORE PUSH1 0x32 PUSH1 0x4 MSTORE PUSH1 0x24 PUSH1 0x0 REVERT JUMPDEST PUSH1 0x20 MUL PUSH1 0x20 ADD ADD MLOAD PUSH1 0x0 DUP1 DUP8 DUP5 DUP2 MLOAD DUP2 LT PUSH2 0x1734 JUMPI PUSH32 0x4E487B7100000000000000000000000000000000000000000000000000000000 PUSH1 0x0 MSTORE PUSH1 0x32 PUSH1 0x4 MSTORE PUSH1 0x24 PUSH1 0x0 REVERT JUMPDEST PUSH1 0x20 MUL PUSH1 0x20 ADD ADD MLOAD DUP2 MSTORE PUSH1 0x20 ADD SWAP1 DUP2 MSTORE PUSH1 0x20 ADD PUSH1 0x0 KECCAK256 PUSH1 0x0 DUP9 PUSH20 0xFFFFFFFFFFFFFFFFFFFFFFFFFFFFFFFFFFFFFFFF AND PUSH20 0xFFFFFFFFFFFFFFFFFFFFFFFFFFFFFFFFFFFFFFFF AND DUP2 MSTORE PUSH1 0x20 ADD SWAP1 DUP2 MSTORE PUSH1 0x20 ADD PUSH1 0x0 KECCAK256 PUSH1 0x0 DUP3 DUP3 SLOAD PUSH2 0x1796 SWAP2 SWAP1 PUSH2 0x2F74 JUMP JUMPDEST SWAP3 POP POP DUP2 SWAP1 SSTORE POP DUP1 DUP1 PUSH2 0x17A8 SWAP1 PUSH2 0x30E3 JUMP JUMPDEST SWAP2 POP POP PUSH2 0x16AE JUMP JUMPDEST POP DUP5 PUSH20 0xFFFFFFFFFFFFFFFFFFFFFFFFFFFFFFFFFFFFFFFF AND PUSH1 0x0 PUSH20 0xFFFFFFFFFFFFFFFFFFFFFFFFFFFFFFFFFFFFFFFF AND DUP3 PUSH20 0xFFFFFFFFFFFFFFFFFFFFFFFFFFFFFFFFFFFFFFFF AND PUSH32 0x4A39DC06D4C0DBC64B70AF90FD698A233A518AA5D07E595D983B8C0526C8F7FB DUP8 DUP8 PUSH1 0x40 MLOAD PUSH2 0x1828 SWAP3 SWAP2 SWAP1 PUSH2 0x2B5B JUMP JUMPDEST PUSH1 0x40 MLOAD DUP1 SWAP2 SUB SWAP1 LOG4 PUSH2 0x183F DUP2 PUSH1 0x0 DUP8 DUP8 DUP8 DUP8 PUSH2 0x1BC7 JUMP JUMPDEST PUSH2 0x184E DUP2 PUSH1 0x0 DUP8 DUP8 DUP8 DUP8 PUSH2 0x1DB6 JUMP JUMPDEST POP POP POP POP POP JUMP JUMPDEST PUSH1 0x0 PUSH20 0xFFFFFFFFFFFFFFFFFFFFFFFFFFFFFFFFFFFFFFFF AND DUP5 PUSH20 0xFFFFFFFFFFFFFFFFFFFFFFFFFFFFFFFFFFFFFFFF AND EQ ISZERO PUSH2 0x18C5 JUMPI PUSH1 0x40 MLOAD PUSH32 0x8C379A000000000000000000000000000000000000000000000000000000000 DUP2 MSTORE PUSH1 0x4 ADD PUSH2 0x18BC SWAP1 PUSH2 0x2CA6 JUMP JUMPDEST PUSH1 0x40 MLOAD DUP1 SWAP2 SUB SWAP1 REVERT JUMPDEST PUSH1 0x0 PUSH2 0x18CF PUSH2 0xFB5 JUMP JUMPDEST SWAP1 POP PUSH1 0x0 PUSH2 0x18DC DUP6 PUSH2 0x1AF1 JUMP JUMPDEST SWAP1 POP PUSH1 0x0 PUSH2 0x18E9 DUP6 PUSH2 0x1AF1 JUMP JUMPDEST SWAP1 POP PUSH2 0x18F9 DUP4 DUP10 DUP10 DUP6 DUP6 DUP10 PUSH2 0x1BB7 JUMP JUMPDEST PUSH1 0x0 DUP1 PUSH1 0x0 DUP9 DUP2 MSTORE PUSH1 0x20 ADD SWAP1 DUP2 MSTORE PUSH1 0x20 ADD PUSH1 0x0 KECCAK256 PUSH1 0x0 DUP11 PUSH20 0xFFFFFFFFFFFFFFFFFFFFFFFFFFFFFFFFFFFFFFFF AND PUSH20 0xFFFFFFFFFFFFFFFFFFFFFFFFFFFFFFFFFFFFFFFF AND DUP2 MSTORE PUSH1 0x20 ADD SWAP1 DUP2 MSTORE PUSH1 0x20 ADD PUSH1 0x0 KECCAK256 SLOAD SWAP1 POP DUP6 DUP2 LT ISZERO PUSH2 0x1990 JUMPI PUSH1 0x40 MLOAD PUSH32 0x8C379A000000000000000000000000000000000000000000000000000000000 DUP2 MSTORE PUSH1 0x4 ADD PUSH2 0x1987 SWAP1 PUSH2 0x2CC6 JUMP JUMPDEST PUSH1 0x40 MLOAD DUP1 SWAP2 SUB SWAP1 REVERT JUMPDEST DUP6 DUP2 SUB PUSH1 0x0 DUP1 DUP10 DUP2 MSTORE PUSH1 0x20 ADD SWAP1 DUP2 MSTORE PUSH1 0x20 ADD PUSH1 0x0 KECCAK256 PUSH1 0x0 DUP12 PUSH20 0xFFFFFFFFFFFFFFFFFFFFFFFFFFFFFFFFFFFFFFFF AND PUSH20 0xFFFFFFFFFFFFFFFFFFFFFFFFFFFFFFFFFFFFFFFF AND DUP2 MSTORE PUSH1 0x20 ADD SWAP1 DUP2 MSTORE PUSH1 0x20 ADD PUSH1 0x0 KECCAK256 DUP2 SWAP1 SSTORE POP DUP6 PUSH1 0x0 DUP1 DUP10 DUP2 MSTORE PUSH1 0x20 ADD SWAP1 DUP2 MSTORE PUSH1 0x20 ADD PUSH1 0x0 KECCAK256 PUSH1 0x0 DUP11 PUSH20 0xFFFFFFFFFFFFFFFFFFFFFFFFFFFFFFFFFFFFFFFF AND PUSH20 0xFFFFFFFFFFFFFFFFFFFFFFFFFFFFFFFFFFFFFFFF AND DUP2 MSTORE PUSH1 0x20 ADD SWAP1 DUP2 MSTORE PUSH1 0x20 ADD PUSH1 0x0 KECCAK256 PUSH1 0x0 DUP3 DUP3 SLOAD PUSH2 0x1A45 SWAP2 SWAP1 PUSH2 0x2F74 JUMP JUMPDEST SWAP3 POP POP DUP2 SWAP1 SSTORE POP DUP8 PUSH20 0xFFFFFFFFFFFFFFFFFFFFFFFFFFFFFFFFFFFFFFFF AND DUP10 PUSH20 0xFFFFFFFFFFFFFFFFFFFFFFFFFFFFFFFFFFFFFFFF AND DUP6 PUSH20 0xFFFFFFFFFFFFFFFFFFFFFFFFFFFFFFFFFFFFFFFF AND PUSH32 0xC3D58168C5AE7397731D063D5BBF3D657854427343F4C083240F7AACAA2D0F62 DUP11 DUP11 PUSH1 0x40 MLOAD PUSH2 0x1AC2 SWAP3 SWAP2 SWAP1 PUSH2 0x2DE6 JUMP JUMPDEST PUSH1 0x40 MLOAD DUP1 SWAP2 SUB SWAP1 LOG4 PUSH2 0x1AD8 DUP5 DUP11 DUP11 DUP7 DUP7 DUP11 PUSH2 0x1BC7 JUMP JUMPDEST PUSH2 0x1AE6 DUP5 DUP11 DUP11 DUP11 DUP11 DUP11 PUSH2 0x1BCF JUMP JUMPDEST POP POP POP POP POP POP POP POP POP JUMP JUMPDEST PUSH1 0x60 PUSH1 0x0 PUSH1 0x1 PUSH8 0xFFFFFFFFFFFFFFFF DUP2 GT ISZERO PUSH2 0x1B36 JUMPI PUSH32 0x4E487B7100000000000000000000000000000000000000000000000000000000 PUSH1 0x0 MSTORE PUSH1 0x41 PUSH1 0x4 MSTORE PUSH1 0x24 PUSH1 0x0 REVERT JUMPDEST PUSH1 0x40 MLOAD SWAP1 DUP1 DUP3 MSTORE DUP1 PUSH1 0x20 MUL PUSH1 0x20 ADD DUP3 ADD PUSH1 0x40 MSTORE DUP1 ISZERO PUSH2 0x1B64 JUMPI DUP2 PUSH1 0x20 ADD PUSH1 0x20 DUP3 MUL DUP1 CALLDATASIZE DUP4 CALLDATACOPY DUP1 DUP3 ADD SWAP2 POP POP SWAP1 POP JUMPDEST POP SWAP1 POP DUP3 DUP2 PUSH1 0x0 DUP2 MLOAD DUP2 LT PUSH2 0x1BA2 JUMPI PUSH32 0x4E487B7100000000000000000000000000000000000000000000000000000000 PUSH1 0x0 MSTORE PUSH1 0x32 PUSH1 0x4 MSTORE PUSH1 0x24 PUSH1 0x0 REVERT JUMPDEST PUSH1 0x20 MUL PUSH1 0x20 ADD ADD DUP2 DUP2 MSTORE POP POP DUP1 SWAP2 POP POP SWAP2 SWAP1 POP JUMP JUMPDEST PUSH2 0x1BBF PUSH2 0x132B JUMP JUMPDEST POP POP POP POP POP POP JUMP JUMPDEST POP POP POP POP POP POP JUMP JUMPDEST PUSH2 0x1BEE DUP5 PUSH20 0xFFFFFFFFFFFFFFFFFFFFFFFFFFFFFFFFFFFFFFFF AND PUSH2 0x1F9D JUMP JUMPDEST ISZERO PUSH2 0x1DAE JUMPI DUP4 PUSH20 0xFFFFFFFFFFFFFFFFFFFFFFFFFFFFFFFFFFFFFFFF AND PUSH4 0xF23A6E61 DUP8 DUP8 DUP7 DUP7 DUP7 PUSH1 0x40 MLOAD DUP7 PUSH4 0xFFFFFFFF AND PUSH1 0xE0 SHL DUP2 MSTORE PUSH1 0x4 ADD PUSH2 0x1C34 SWAP6 SWAP5 SWAP4 SWAP3 SWAP2 SWAP1 PUSH2 0x2ADF JUMP JUMPDEST PUSH1 0x20 PUSH1 0x40 MLOAD DUP1 DUP4 SUB DUP2 PUSH1 0x0 DUP8 DUP1 EXTCODESIZE ISZERO DUP1 ISZERO PUSH2 0x1C4E JUMPI PUSH1 0x0 DUP1 REVERT JUMPDEST POP GAS CALL SWAP3 POP POP POP DUP1 ISZERO PUSH2 0x1C7F JUMPI POP PUSH1 0x40 MLOAD RETURNDATASIZE PUSH1 0x1F NOT PUSH1 0x1F DUP3 ADD AND DUP3 ADD DUP1 PUSH1 0x40 MSTORE POP DUP2 ADD SWAP1 PUSH2 0x1C7C SWAP2 SWAP1 PUSH2 0x2656 JUMP JUMPDEST PUSH1 0x1 JUMPDEST PUSH2 0x1D25 JUMPI PUSH2 0x1C8B PUSH2 0x31B9 JUMP JUMPDEST DUP1 PUSH4 0x8C379A0 EQ ISZERO PUSH2 0x1CE8 JUMPI POP PUSH2 0x1CA0 PUSH2 0x3587 JUMP JUMPDEST DUP1 PUSH2 0x1CAB JUMPI POP PUSH2 0x1CEA JUMP JUMPDEST DUP1 PUSH1 0x40 MLOAD PUSH32 0x8C379A000000000000000000000000000000000000000000000000000000000 DUP2 MSTORE PUSH1 0x4 ADD PUSH2 0x1CDF SWAP2 SWAP1 PUSH2 0x2BAD JUMP JUMPDEST PUSH1 0x40 MLOAD DUP1 SWAP2 SUB SWAP1 REVERT JUMPDEST POP JUMPDEST PUSH1 0x40 MLOAD PUSH32 0x8C379A000000000000000000000000000000000000000000000000000000000 DUP2 MSTORE PUSH1 0x4 ADD PUSH2 0x1D1C SWAP1 PUSH2 0x2C06 JUMP JUMPDEST PUSH1 0x40 MLOAD DUP1 SWAP2 SUB SWAP1 REVERT JUMPDEST PUSH4 0xF23A6E61 PUSH1 0xE0 SHL PUSH28 0xFFFFFFFFFFFFFFFFFFFFFFFFFFFFFFFFFFFFFFFFFFFFFFFFFFFFFFFF NOT AND DUP2 PUSH28 0xFFFFFFFFFFFFFFFFFFFFFFFFFFFFFFFFFFFFFFFFFFFFFFFFFFFFFFFF NOT AND EQ PUSH2 0x1DAC JUMPI PUSH1 0x40 MLOAD PUSH32 0x8C379A000000000000000000000000000000000000000000000000000000000 DUP2 MSTORE PUSH1 0x4 ADD PUSH2 0x1DA3 SWAP1 PUSH2 0x2C46 JUMP JUMPDEST PUSH1 0x40 MLOAD DUP1 SWAP2 SUB SWAP1 REVERT JUMPDEST POP JUMPDEST POP POP POP POP POP POP JUMP JUMPDEST PUSH2 0x1DD5 DUP5 PUSH20 0xFFFFFFFFFFFFFFFFFFFFFFFFFFFFFFFFFFFFFFFF AND PUSH2 0x1F9D JUMP JUMPDEST ISZERO PUSH2 0x1F95 JUMPI DUP4 PUSH20 0xFFFFFFFFFFFFFFFFFFFFFFFFFFFFFFFFFFFFFFFF AND PUSH4 0xBC197C81 DUP8 DUP8 DUP7 DUP7 DUP7 PUSH1 0x40 MLOAD DUP7 PUSH4 0xFFFFFFFF AND PUSH1 0xE0 SHL DUP2 MSTORE PUSH1 0x4 ADD PUSH2 0x1E1B SWAP6 SWAP5 SWAP4 SWAP3 SWAP2 SWAP1 PUSH2 0x2A77 JUMP JUMPDEST PUSH1 0x20 PUSH1 0x40 MLOAD DUP1 DUP4 SUB DUP2 PUSH1 0x0 DUP8 DUP1 EXTCODESIZE ISZERO DUP1 ISZERO PUSH2 0x1E35 JUMPI PUSH1 0x0 DUP1 REVERT JUMPDEST POP GAS CALL SWAP3 POP POP POP DUP1 ISZERO PUSH2 0x1E66 JUMPI POP PUSH1 0x40 MLOAD RETURNDATASIZE PUSH1 0x1F NOT PUSH1 0x1F DUP3 ADD AND DUP3 ADD DUP1 PUSH1 0x40 MSTORE POP DUP2 ADD SWAP1 PUSH2 0x1E63 SWAP2 SWAP1 PUSH2 0x2656 JUMP JUMPDEST PUSH1 0x1 JUMPDEST PUSH2 0x1F0C JUMPI PUSH2 0x1E72 PUSH2 0x31B9 JUMP JUMPDEST DUP1 PUSH4 0x8C379A0 EQ ISZERO PUSH2 0x1ECF JUMPI POP PUSH2 0x1E87 PUSH2 0x3587 JUMP JUMPDEST DUP1 PUSH2 0x1E92 JUMPI POP PUSH2 0x1ED1 JUMP JUMPDEST DUP1 PUSH1 0x40 MLOAD PUSH32 0x8C379A000000000000000000000000000000000000000000000000000000000 DUP2 MSTORE PUSH1 0x4 ADD PUSH2 0x1EC6 SWAP2 SWAP1 PUSH2 0x2BAD JUMP JUMPDEST PUSH1 0x40 MLOAD DUP1 SWAP2 SUB SWAP1 REVERT JUMPDEST POP JUMPDEST PUSH1 0x40 MLOAD PUSH32 0x8C379A000000000000000000000000000000000000000000000000000000000 DUP2 MSTORE PUSH1 0x4 ADD PUSH2 0x1F03 SWAP1 PUSH2 0x2C06 JUMP JUMPDEST PUSH1 0x40 MLOAD DUP1 SWAP2 SUB SWAP1 REVERT JUMPDEST PUSH4 0xBC197C81 PUSH1 0xE0 SHL PUSH28 0xFFFFFFFFFFFFFFFFFFFFFFFFFFFFFFFFFFFFFFFFFFFFFFFFFFFFFFFF NOT AND DUP2 PUSH28 0xFFFFFFFFFFFFFFFFFFFFFFFFFFFFFFFFFFFFFFFFFFFFFFFFFFFFFFFF NOT AND EQ PUSH2 0x1F93 JUMPI PUSH1 0x40 MLOAD PUSH32 0x8C379A000000000000000000000000000000000000000000000000000000000 DUP2 MSTORE PUSH1 0x4 ADD PUSH2 0x1F8A SWAP1 PUSH2 0x2C46 JUMP JUMPDEST PUSH1 0x40 MLOAD DUP1 SWAP2 SUB SWAP1 REVERT JUMPDEST POP JUMPDEST POP POP POP POP POP POP JUMP JUMPDEST PUSH1 0x0 DUP1 DUP3 PUSH20 0xFFFFFFFFFFFFFFFFFFFFFFFFFFFFFFFFFFFFFFFF AND EXTCODESIZE GT SWAP1 POP SWAP2 SWAP1 POP JUMP JUMPDEST DUP3 DUP1 SLOAD PUSH2 0x1FCC SWAP1 PUSH2 0x3080 JUMP JUMPDEST SWAP1 PUSH1 0x0 MSTORE PUSH1 0x20 PUSH1 0x0 KECCAK256 SWAP1 PUSH1 0x1F ADD PUSH1 0x20 SWAP1 DIV DUP2 ADD SWAP3 DUP3 PUSH2 0x1FEE JUMPI PUSH1 0x0 DUP6 SSTORE PUSH2 0x2035 JUMP JUMPDEST DUP3 PUSH1 0x1F LT PUSH2 0x2007 JUMPI DUP1 MLOAD PUSH1 0xFF NOT AND DUP4 DUP1 ADD OR DUP6 SSTORE PUSH2 0x2035 JUMP JUMPDEST DUP3 DUP1 ADD PUSH1 0x1 ADD DUP6 SSTORE DUP3 ISZERO PUSH2 0x2035 JUMPI SWAP2 DUP3 ADD JUMPDEST DUP3 DUP2 GT ISZERO PUSH2 0x2034 JUMPI DUP3 MLOAD DUP3 SSTORE SWAP2 PUSH1 0x20 ADD SWAP2 SWAP1 PUSH1 0x1 ADD SWAP1 PUSH2 0x2019 JUMP JUMPDEST JUMPDEST POP SWAP1 POP PUSH2 0x2042 SWAP2 SWAP1 PUSH2 0x2046 JUMP JUMPDEST POP SWAP1 JUMP JUMPDEST JUMPDEST DUP1 DUP3 GT ISZERO PUSH2 0x205F JUMPI PUSH1 0x0 DUP2 PUSH1 0x0 SWAP1 SSTORE POP PUSH1 0x1 ADD PUSH2 0x2047 JUMP JUMPDEST POP SWAP1 JUMP JUMPDEST PUSH1 0x0 PUSH2 0x2076 PUSH2 0x2071 DUP5 PUSH2 0x2E34 JUMP JUMPDEST PUSH2 0x2E0F JUMP JUMPDEST SWAP1 POP DUP1 DUP4 DUP3 MSTORE PUSH1 0x20 DUP3 ADD SWAP1 POP DUP3 DUP6 PUSH1 0x20 DUP7 MUL DUP3 ADD GT ISZERO PUSH2 0x2095 JUMPI PUSH1 0x0 DUP1 REVERT JUMPDEST PUSH1 0x0 JUMPDEST DUP6 DUP2 LT ISZERO PUSH2 0x20C5 JUMPI DUP2 PUSH2 0x20AB DUP9 DUP3 PUSH2 0x21B7 JUMP JUMPDEST DUP5 MSTORE PUSH1 0x20 DUP5 ADD SWAP4 POP PUSH1 0x20 DUP4 ADD SWAP3 POP POP PUSH1 0x1 DUP2 ADD SWAP1 POP PUSH2 0x2098 JUMP JUMPDEST POP POP POP SWAP4 SWAP3 POP POP POP JUMP JUMPDEST PUSH1 0x0 PUSH2 0x20E2 PUSH2 0x20DD DUP5 PUSH2 0x2E60 JUMP JUMPDEST PUSH2 0x2E0F JUMP JUMPDEST SWAP1 POP DUP1 DUP4 DUP3 MSTORE PUSH1 0x20 DUP3 ADD SWAP1 POP DUP3 DUP6 PUSH1 0x20 DUP7 MUL DUP3 ADD GT ISZERO PUSH2 0x2101 JUMPI PUSH1 0x0 DUP1 REVERT JUMPDEST PUSH1 0x0 JUMPDEST DUP6 DUP2 LT ISZERO PUSH2 0x2131 JUMPI DUP2 PUSH2 0x2117 DUP9 DUP3 PUSH2 0x22B3 JUMP JUMPDEST DUP5 MSTORE PUSH1 0x20 DUP5 ADD SWAP4 POP PUSH1 0x20 DUP4 ADD SWAP3 POP POP PUSH1 0x1 DUP2 ADD SWAP1 POP PUSH2 0x2104 JUMP JUMPDEST POP POP POP SWAP4 SWAP3 POP POP POP JUMP JUMPDEST PUSH1 0x0 PUSH2 0x214E PUSH2 0x2149 DUP5 PUSH2 0x2E8C JUMP JUMPDEST PUSH2 0x2E0F JUMP JUMPDEST SWAP1 POP DUP3 DUP2 MSTORE PUSH1 0x20 DUP2 ADD DUP5 DUP5 DUP5 ADD GT ISZERO PUSH2 0x2166 JUMPI PUSH1 0x0 DUP1 REVERT JUMPDEST PUSH2 0x2171 DUP5 DUP3 DUP6 PUSH2 0x303E JUMP JUMPDEST POP SWAP4 SWAP3 POP POP POP JUMP JUMPDEST PUSH1 0x0 PUSH2 0x218C PUSH2 0x2187 DUP5 PUSH2 0x2EBD JUMP JUMPDEST PUSH2 0x2E0F JUMP JUMPDEST SWAP1 POP DUP3 DUP2 MSTORE PUSH1 0x20 DUP2 ADD DUP5 DUP5 DUP5 ADD GT ISZERO PUSH2 0x21A4 JUMPI PUSH1 0x0 DUP1 REVERT JUMPDEST PUSH2 0x21AF DUP5 DUP3 DUP6 PUSH2 0x303E JUMP JUMPDEST POP SWAP4 SWAP3 POP POP POP JUMP JUMPDEST PUSH1 0x0 DUP2 CALLDATALOAD SWAP1 POP PUSH2 0x21C6 DUP2 PUSH2 0x361D JUMP JUMPDEST SWAP3 SWAP2 POP POP JUMP JUMPDEST PUSH1 0x0 DUP3 PUSH1 0x1F DUP4 ADD SLT PUSH2 0x21DD JUMPI PUSH1 0x0 DUP1 REVERT JUMPDEST DUP2 CALLDATALOAD PUSH2 0x21ED DUP5 DUP3 PUSH1 0x20 DUP7 ADD PUSH2 0x2063 JUMP JUMPDEST SWAP2 POP POP SWAP3 SWAP2 POP POP JUMP JUMPDEST PUSH1 0x0 DUP3 PUSH1 0x1F DUP4 ADD SLT PUSH2 0x2207 JUMPI PUSH1 0x0 DUP1 REVERT JUMPDEST DUP2 CALLDATALOAD PUSH2 0x2217 DUP5 DUP3 PUSH1 0x20 DUP7 ADD PUSH2 0x20CF JUMP JUMPDEST SWAP2 POP POP SWAP3 SWAP2 POP POP JUMP JUMPDEST PUSH1 0x0 DUP2 CALLDATALOAD SWAP1 POP PUSH2 0x222F DUP2 PUSH2 0x3634 JUMP JUMPDEST SWAP3 SWAP2 POP POP JUMP JUMPDEST PUSH1 0x0 DUP2 CALLDATALOAD SWAP1 POP PUSH2 0x2244 DUP2 PUSH2 0x364B JUMP JUMPDEST SWAP3 SWAP2 POP POP JUMP JUMPDEST PUSH1 0x0 DUP2 MLOAD SWAP1 POP PUSH2 0x2259 DUP2 PUSH2 0x364B JUMP JUMPDEST SWAP3 SWAP2 POP POP JUMP JUMPDEST PUSH1 0x0 DUP3 PUSH1 0x1F DUP4 ADD SLT PUSH2 0x2270 JUMPI PUSH1 0x0 DUP1 REVERT JUMPDEST DUP2 CALLDATALOAD PUSH2 0x2280 DUP5 DUP3 PUSH1 0x20 DUP7 ADD PUSH2 0x213B JUMP JUMPDEST SWAP2 POP POP SWAP3 SWAP2 POP POP JUMP JUMPDEST PUSH1 0x0 DUP3 PUSH1 0x1F DUP4 ADD SLT PUSH2 0x229A JUMPI PUSH1 0x0 DUP1 REVERT JUMPDEST DUP2 CALLDATALOAD PUSH2 0x22AA DUP5 DUP3 PUSH1 0x20 DUP7 ADD PUSH2 0x2179 JUMP JUMPDEST SWAP2 POP POP SWAP3 SWAP2 POP POP JUMP JUMPDEST PUSH1 0x0 DUP2 CALLDATALOAD SWAP1 POP PUSH2 0x22C2 DUP2 PUSH2 0x3662 JUMP JUMPDEST SWAP3 SWAP2 POP POP JUMP JUMPDEST PUSH1 0x0 PUSH1 0x20 DUP3 DUP5 SUB SLT ISZERO PUSH2 0x22DA JUMPI PUSH1 0x0 DUP1 REVERT JUMPDEST PUSH1 0x0 PUSH2 0x22E8 DUP5 DUP3 DUP6 ADD PUSH2 0x21B7 JUMP JUMPDEST SWAP2 POP POP SWAP3 SWAP2 POP POP JUMP JUMPDEST PUSH1 0x0 DUP1 PUSH1 0x40 DUP4 DUP6 SUB SLT ISZERO PUSH2 0x2304 JUMPI PUSH1 0x0 DUP1 REVERT JUMPDEST PUSH1 0x0 PUSH2 0x2312 DUP6 DUP3 DUP7 ADD PUSH2 0x21B7 JUMP JUMPDEST SWAP3 POP POP PUSH1 0x20 PUSH2 0x2323 DUP6 DUP3 DUP7 ADD PUSH2 0x21B7 JUMP JUMPDEST SWAP2 POP POP SWAP3 POP SWAP3 SWAP1 POP JUMP JUMPDEST PUSH1 0x0 DUP1 PUSH1 0x0 DUP1 PUSH1 0x0 PUSH1 0xA0 DUP7 DUP9 SUB SLT ISZERO PUSH2 0x2345 JUMPI PUSH1 0x0 DUP1 REVERT JUMPDEST PUSH1 0x0 PUSH2 0x2353 DUP9 DUP3 DUP10 ADD PUSH2 0x21B7 JUMP JUMPDEST SWAP6 POP POP PUSH1 0x20 PUSH2 0x2364 DUP9 DUP3 DUP10 ADD PUSH2 0x21B7 JUMP JUMPDEST SWAP5 POP POP PUSH1 0x40 DUP7 ADD CALLDATALOAD PUSH8 0xFFFFFFFFFFFFFFFF DUP2 GT ISZERO PUSH2 0x2381 JUMPI PUSH1 0x0 DUP1 REVERT JUMPDEST PUSH2 0x238D DUP9 DUP3 DUP10 ADD PUSH2 0x21F6 JUMP JUMPDEST SWAP4 POP POP PUSH1 0x60 DUP7 ADD CALLDATALOAD PUSH8 0xFFFFFFFFFFFFFFFF DUP2 GT ISZERO PUSH2 0x23AA JUMPI PUSH1 0x0 DUP1 REVERT JUMPDEST PUSH2 0x23B6 DUP9 DUP3 DUP10 ADD PUSH2 0x21F6 JUMP JUMPDEST SWAP3 POP POP PUSH1 0x80 DUP7 ADD CALLDATALOAD PUSH8 0xFFFFFFFFFFFFFFFF DUP2 GT ISZERO PUSH2 0x23D3 JUMPI PUSH1 0x0 DUP1 REVERT JUMPDEST PUSH2 0x23DF DUP9 DUP3 DUP10 ADD PUSH2 0x225F JUMP JUMPDEST SWAP2 POP POP SWAP3 SWAP6 POP SWAP3 SWAP6 SWAP1 SWAP4 POP JUMP JUMPDEST PUSH1 0x0 DUP1 PUSH1 0x0 DUP1 PUSH1 0x0 PUSH1 0xA0 DUP7 DUP9 SUB SLT ISZERO PUSH2 0x2404 JUMPI PUSH1 0x0 DUP1 REVERT JUMPDEST PUSH1 0x0 PUSH2 0x2412 DUP9 DUP3 DUP10 ADD PUSH2 0x21B7 JUMP JUMPDEST SWAP6 POP POP PUSH1 0x20 PUSH2 0x2423 DUP9 DUP3 DUP10 ADD PUSH2 0x21B7 JUMP JUMPDEST SWAP5 POP POP PUSH1 0x40 PUSH2 0x2434 DUP9 DUP3 DUP10 ADD PUSH2 0x22B3 JUMP JUMPDEST SWAP4 POP POP PUSH1 0x60 PUSH2 0x2445 DUP9 DUP3 DUP10 ADD PUSH2 0x22B3 JUMP JUMPDEST SWAP3 POP POP PUSH1 0x80 DUP7 ADD CALLDATALOAD PUSH8 0xFFFFFFFFFFFFFFFF DUP2 GT ISZERO PUSH2 0x2462 JUMPI PUSH1 0x0 DUP1 REVERT JUMPDEST PUSH2 0x246E DUP9 DUP3 DUP10 ADD PUSH2 0x225F JUMP JUMPDEST SWAP2 POP POP SWAP3 SWAP6 POP SWAP3 SWAP6 SWAP1 SWAP4 POP JUMP JUMPDEST PUSH1 0x0 DUP1 PUSH1 0x0 PUSH1 0x60 DUP5 DUP7 SUB SLT ISZERO PUSH2 0x2490 JUMPI PUSH1 0x0 DUP1 REVERT JUMPDEST PUSH1 0x0 PUSH2 0x249E DUP7 DUP3 DUP8 ADD PUSH2 0x21B7 JUMP JUMPDEST SWAP4 POP POP PUSH1 0x20 DUP5 ADD CALLDATALOAD PUSH8 0xFFFFFFFFFFFFFFFF DUP2 GT ISZERO PUSH2 0x24BB JUMPI PUSH1 0x0 DUP1 REVERT JUMPDEST PUSH2 0x24C7 DUP7 DUP3 DUP8 ADD PUSH2 0x21F6 JUMP JUMPDEST SWAP3 POP POP PUSH1 0x40 DUP5 ADD CALLDATALOAD PUSH8 0xFFFFFFFFFFFFFFFF DUP2 GT ISZERO PUSH2 0x24E4 JUMPI PUSH1 0x0 DUP1 REVERT JUMPDEST PUSH2 0x24F0 DUP7 DUP3 DUP8 ADD PUSH2 0x21F6 JUMP JUMPDEST SWAP2 POP POP SWAP3 POP SWAP3 POP SWAP3 JUMP JUMPDEST PUSH1 0x0 DUP1 PUSH1 0x40 DUP4 DUP6 SUB SLT ISZERO PUSH2 0x250D JUMPI PUSH1 0x0 DUP1 REVERT JUMPDEST PUSH1 0x0 PUSH2 0x251B DUP6 DUP3 DUP7 ADD PUSH2 0x21B7 JUMP JUMPDEST SWAP3 POP POP PUSH1 0x20 PUSH2 0x252C DUP6 DUP3 DUP7 ADD PUSH2 0x2220 JUMP JUMPDEST SWAP2 POP POP SWAP3 POP SWAP3 SWAP1 POP JUMP JUMPDEST PUSH1 0x0 DUP1 PUSH1 0x40 DUP4 DUP6 SUB SLT ISZERO PUSH2 0x2549 JUMPI PUSH1 0x0 DUP1 REVERT JUMPDEST PUSH1 0x0 PUSH2 0x2557 DUP6 DUP3 DUP7 ADD PUSH2 0x21B7 JUMP JUMPDEST SWAP3 POP POP PUSH1 0x20 PUSH2 0x2568 DUP6 DUP3 DUP7 ADD PUSH2 0x22B3 JUMP JUMPDEST SWAP2 POP POP SWAP3 POP SWAP3 SWAP1 POP JUMP JUMPDEST PUSH1 0x0 DUP1 PUSH1 0x0 PUSH1 0x60 DUP5 DUP7 SUB SLT ISZERO PUSH2 0x2587 JUMPI PUSH1 0x0 DUP1 REVERT JUMPDEST PUSH1 0x0 PUSH2 0x2595 DUP7 DUP3 DUP8 ADD PUSH2 0x21B7 JUMP JUMPDEST SWAP4 POP POP PUSH1 0x20 PUSH2 0x25A6 DUP7 DUP3 DUP8 ADD PUSH2 0x22B3 JUMP JUMPDEST SWAP3 POP POP PUSH1 0x40 PUSH2 0x25B7 DUP7 DUP3 DUP8 ADD PUSH2 0x22B3 JUMP JUMPDEST SWAP2 POP POP SWAP3 POP SWAP3 POP SWAP3 JUMP JUMPDEST PUSH1 0x0 DUP1 PUSH1 0x40 DUP4 DUP6 SUB SLT ISZERO PUSH2 0x25D4 JUMPI PUSH1 0x0 DUP1 REVERT JUMPDEST PUSH1 0x0 DUP4 ADD CALLDATALOAD PUSH8 0xFFFFFFFFFFFFFFFF DUP2 GT ISZERO PUSH2 0x25EE JUMPI PUSH1 0x0 DUP1 REVERT JUMPDEST PUSH2 0x25FA DUP6 DUP3 DUP7 ADD PUSH2 0x21CC JUMP JUMPDEST SWAP3 POP POP PUSH1 0x20 DUP4 ADD CALLDATALOAD PUSH8 0xFFFFFFFFFFFFFFFF DUP2 GT ISZERO PUSH2 0x2617 JUMPI PUSH1 0x0 DUP1 REVERT JUMPDEST PUSH2 0x2623 DUP6 DUP3 DUP7 ADD PUSH2 0x21F6 JUMP JUMPDEST SWAP2 POP POP SWAP3 POP SWAP3 SWAP1 POP JUMP JUMPDEST PUSH1 0x0 PUSH1 0x20 DUP3 DUP5 SUB SLT ISZERO PUSH2 0x263F JUMPI PUSH1 0x0 DUP1 REVERT JUMPDEST PUSH1 0x0 PUSH2 0x264D DUP5 DUP3 DUP6 ADD PUSH2 0x2235 JUMP JUMPDEST SWAP2 POP POP SWAP3 SWAP2 POP POP JUMP JUMPDEST PUSH1 0x0 PUSH1 0x20 DUP3 DUP5 SUB SLT ISZERO PUSH2 0x2668 JUMPI PUSH1 0x0 DUP1 REVERT JUMPDEST PUSH1 0x0 PUSH2 0x2676 DUP5 DUP3 DUP6 ADD PUSH2 0x224A JUMP JUMPDEST SWAP2 POP POP SWAP3 SWAP2 POP POP JUMP JUMPDEST PUSH1 0x0 DUP1 PUSH1 0x40 DUP4 DUP6 SUB SLT ISZERO PUSH2 0x2692 JUMPI PUSH1 0x0 DUP1 REVERT JUMPDEST PUSH1 0x0 DUP4 ADD CALLDATALOAD PUSH8 0xFFFFFFFFFFFFFFFF DUP2 GT ISZERO PUSH2 0x26AC JUMPI PUSH1 0x0 DUP1 REVERT JUMPDEST PUSH2 0x26B8 DUP6 DUP3 DUP7 ADD PUSH2 0x2289 JUMP JUMPDEST SWAP3 POP POP PUSH1 0x20 DUP4 ADD CALLDATALOAD PUSH8 0xFFFFFFFFFFFFFFFF DUP2 GT ISZERO PUSH2 0x26D5 JUMPI PUSH1 0x0 DUP1 REVERT JUMPDEST PUSH2 0x26E1 DUP6 DUP3 DUP7 ADD PUSH2 0x2289 JUMP JUMPDEST SWAP2 POP POP SWAP3 POP SWAP3 SWAP1 POP JUMP JUMPDEST PUSH1 0x0 PUSH1 0x20 DUP3 DUP5 SUB SLT ISZERO PUSH2 0x26FD JUMPI PUSH1 0x0 DUP1 REVERT JUMPDEST PUSH1 0x0 PUSH2 0x270B DUP5 DUP3 DUP6 ADD PUSH2 0x22B3 JUMP JUMPDEST SWAP2 POP POP SWAP3 SWAP2 POP POP JUMP JUMPDEST PUSH1 0x0 PUSH2 0x2720 DUP4 DUP4 PUSH2 0x2A3E JUMP JUMPDEST PUSH1 0x20 DUP4 ADD SWAP1 POP SWAP3 SWAP2 POP POP JUMP JUMPDEST PUSH2 0x2735 DUP2 PUSH2 0x2FCA JUMP JUMPDEST DUP3 MSTORE POP POP JUMP JUMPDEST PUSH1 0x0 PUSH2 0x2746 DUP3 PUSH2 0x2F13 JUMP JUMPDEST PUSH2 0x2750 DUP2 DUP6 PUSH2 0x2F41 JUMP JUMPDEST SWAP4 POP PUSH2 0x275B DUP4 PUSH2 0x2EEE JUMP JUMPDEST DUP1 PUSH1 0x0 JUMPDEST DUP4 DUP2 LT ISZERO PUSH2 0x278C JUMPI DUP2 MLOAD PUSH2 0x2773 DUP9 DUP3 PUSH2 0x2714 JUMP JUMPDEST SWAP8 POP PUSH2 0x277E DUP4 PUSH2 0x2F34 JUMP JUMPDEST SWAP3 POP POP PUSH1 0x1 DUP2 ADD SWAP1 POP PUSH2 0x275F JUMP JUMPDEST POP DUP6 SWAP4 POP POP POP POP SWAP3 SWAP2 POP POP JUMP JUMPDEST PUSH2 0x27A2 DUP2 PUSH2 0x2FDC JUMP JUMPDEST DUP3 MSTORE POP POP JUMP JUMPDEST PUSH1 0x0 PUSH2 0x27B3 DUP3 PUSH2 0x2F1E JUMP JUMPDEST PUSH2 0x27BD DUP2 DUP6 PUSH2 0x2F52 JUMP JUMPDEST SWAP4 POP PUSH2 0x27CD DUP2 DUP6 PUSH1 0x20 DUP7 ADD PUSH2 0x304D JUMP JUMPDEST PUSH2 0x27D6 DUP2 PUSH2 0x31DB JUMP JUMPDEST DUP5 ADD SWAP2 POP POP SWAP3 SWAP2 POP POP JUMP JUMPDEST PUSH1 0x0 PUSH2 0x27EC DUP3 PUSH2 0x2F29 JUMP JUMPDEST PUSH2 0x27F6 DUP2 DUP6 PUSH2 0x2F63 JUMP JUMPDEST SWAP4 POP PUSH2 0x2806 DUP2 DUP6 PUSH1 0x20 DUP7 ADD PUSH2 0x304D JUMP JUMPDEST PUSH2 0x280F DUP2 PUSH2 0x31DB JUMP JUMPDEST DUP5 ADD SWAP2 POP POP SWAP3 SWAP2 POP POP JUMP JUMPDEST PUSH1 0x0 DUP2 SLOAD PUSH2 0x2827 DUP2 PUSH2 0x3080 JUMP JUMPDEST PUSH2 0x2831 DUP2 DUP7 PUSH2 0x2F63 JUMP JUMPDEST SWAP5 POP PUSH1 0x1 DUP3 AND PUSH1 0x0 DUP2 EQ PUSH2 0x284C JUMPI PUSH1 0x1 DUP2 EQ PUSH2 0x285E JUMPI PUSH2 0x2891 JUMP JUMPDEST PUSH1 0xFF NOT DUP4 AND DUP7 MSTORE PUSH1 0x20 DUP7 ADD SWAP4 POP PUSH2 0x2891 JUMP JUMPDEST PUSH2 0x2867 DUP6 PUSH2 0x2EFE JUMP JUMPDEST PUSH1 0x0 JUMPDEST DUP4 DUP2 LT ISZERO PUSH2 0x2889 JUMPI DUP2 SLOAD DUP2 DUP10 ADD MSTORE PUSH1 0x1 DUP3 ADD SWAP2 POP PUSH1 0x20 DUP2 ADD SWAP1 POP PUSH2 0x286A JUMP JUMPDEST DUP1 DUP9 ADD SWAP6 POP POP POP JUMPDEST POP POP POP SWAP3 SWAP2 POP POP JUMP JUMPDEST PUSH1 0x0 PUSH2 0x28A7 PUSH1 0x34 DUP4 PUSH2 0x2F63 JUMP JUMPDEST SWAP2 POP PUSH2 0x28B2 DUP3 PUSH2 0x31F9 JUMP JUMPDEST PUSH1 0x40 DUP3 ADD SWAP1 POP SWAP2 SWAP1 POP JUMP JUMPDEST PUSH1 0x0 PUSH2 0x28CA PUSH1 0x2F DUP4 PUSH2 0x2F63 JUMP JUMPDEST SWAP2 POP PUSH2 0x28D5 DUP3 PUSH2 0x3248 JUMP JUMPDEST PUSH1 0x40 DUP3 ADD SWAP1 POP SWAP2 SWAP1 POP JUMP JUMPDEST PUSH1 0x0 PUSH2 0x28ED PUSH1 0x28 DUP4 PUSH2 0x2F63 JUMP JUMPDEST SWAP2 POP PUSH2 0x28F8 DUP3 PUSH2 0x3297 JUMP JUMPDEST PUSH1 0x40 DUP3 ADD SWAP1 POP SWAP2 SWAP1 POP JUMP JUMPDEST PUSH1 0x0 PUSH2 0x2910 PUSH1 0x26 DUP4 PUSH2 0x2F63 JUMP JUMPDEST SWAP2 POP PUSH2 0x291B DUP3 PUSH2 0x32E6 JUMP JUMPDEST PUSH1 0x40 DUP3 ADD SWAP1 POP SWAP2 SWAP1 POP JUMP JUMPDEST PUSH1 0x0 PUSH2 0x2933 PUSH1 0x2A DUP4 PUSH2 0x2F63 JUMP JUMPDEST SWAP2 POP PUSH2 0x293E DUP3 PUSH2 0x3335 JUMP JUMPDEST PUSH1 0x40 DUP3 ADD SWAP1 POP SWAP2 SWAP1 POP JUMP JUMPDEST PUSH1 0x0 PUSH2 0x2956 PUSH1 0x25 DUP4 PUSH2 0x2F63 JUMP JUMPDEST SWAP2 POP PUSH2 0x2961 DUP3 PUSH2 0x3384 JUMP JUMPDEST PUSH1 0x40 DUP3 ADD SWAP1 POP SWAP2 SWAP1 POP JUMP JUMPDEST PUSH1 0x0 PUSH2 0x2979 PUSH1 0x2A DUP4 PUSH2 0x2F63 JUMP JUMPDEST SWAP2 POP PUSH2 0x2984 DUP3 PUSH2 0x33D3 JUMP JUMPDEST PUSH1 0x40 DUP3 ADD SWAP1 POP SWAP2 SWAP1 POP JUMP JUMPDEST PUSH1 0x0 PUSH2 0x299C PUSH1 0x20 DUP4 PUSH2 0x2F63 JUMP JUMPDEST SWAP2 POP PUSH2 0x29A7 DUP3 PUSH2 0x3422 JUMP JUMPDEST PUSH1 0x20 DUP3 ADD SWAP1 POP SWAP2 SWAP1 POP JUMP JUMPDEST PUSH1 0x0 PUSH2 0x29BF PUSH1 0x29 DUP4 PUSH2 0x2F63 JUMP JUMPDEST SWAP2 POP PUSH2 0x29CA DUP3 PUSH2 0x344B JUMP JUMPDEST PUSH1 0x40 DUP3 ADD SWAP1 POP SWAP2 SWAP1 POP JUMP JUMPDEST PUSH1 0x0 PUSH2 0x29E2 PUSH1 0x29 DUP4 PUSH2 0x2F63 JUMP JUMPDEST SWAP2 POP PUSH2 0x29ED DUP3 PUSH2 0x349A JUMP JUMPDEST PUSH1 0x40 DUP3 ADD SWAP1 POP SWAP2 SWAP1 POP JUMP JUMPDEST PUSH1 0x0 PUSH2 0x2A05 PUSH1 0x28 DUP4 PUSH2 0x2F63 JUMP JUMPDEST SWAP2 POP PUSH2 0x2A10 DUP3 PUSH2 0x34E9 JUMP JUMPDEST PUSH1 0x40 DUP3 ADD SWAP1 POP SWAP2 SWAP1 POP JUMP JUMPDEST PUSH1 0x0 PUSH2 0x2A28 PUSH1 0x21 DUP4 PUSH2 0x2F63 JUMP JUMPDEST SWAP2 POP PUSH2 0x2A33 DUP3 PUSH2 0x3538 JUMP JUMPDEST PUSH1 0x40 DUP3 ADD SWAP1 POP SWAP2 SWAP1 POP JUMP JUMPDEST PUSH2 0x2A47 DUP2 PUSH2 0x3034 JUMP JUMPDEST DUP3 MSTORE POP POP JUMP JUMPDEST PUSH2 0x2A56 DUP2 PUSH2 0x3034 JUMP JUMPDEST DUP3 MSTORE POP POP JUMP JUMPDEST PUSH1 0x0 PUSH1 0x20 DUP3 ADD SWAP1 POP PUSH2 0x2A71 PUSH1 0x0 DUP4 ADD DUP5 PUSH2 0x272C JUMP JUMPDEST SWAP3 SWAP2 POP POP JUMP JUMPDEST PUSH1 0x0 PUSH1 0xA0 DUP3 ADD SWAP1 POP PUSH2 0x2A8C PUSH1 0x0 DUP4 ADD DUP9 PUSH2 0x272C JUMP JUMPDEST PUSH2 0x2A99 PUSH1 0x20 DUP4 ADD DUP8 PUSH2 0x272C JUMP JUMPDEST DUP2 DUP2 SUB PUSH1 0x40 DUP4 ADD MSTORE PUSH2 0x2AAB DUP2 DUP7 PUSH2 0x273B JUMP JUMPDEST SWAP1 POP DUP2 DUP2 SUB PUSH1 0x60 DUP4 ADD MSTORE PUSH2 0x2ABF DUP2 DUP6 PUSH2 0x273B JUMP JUMPDEST SWAP1 POP DUP2 DUP2 SUB PUSH1 0x80 DUP4 ADD MSTORE PUSH2 0x2AD3 DUP2 DUP5 PUSH2 0x27A8 JUMP JUMPDEST SWAP1 POP SWAP7 SWAP6 POP POP POP POP POP POP JUMP JUMPDEST PUSH1 0x0 PUSH1 0xA0 DUP3 ADD SWAP1 POP PUSH2 0x2AF4 PUSH1 0x0 DUP4 ADD DUP9 PUSH2 0x272C JUMP JUMPDEST PUSH2 0x2B01 PUSH1 0x20 DUP4 ADD DUP8 PUSH2 0x272C JUMP JUMPDEST PUSH2 0x2B0E PUSH1 0x40 DUP4 ADD DUP7 PUSH2 0x2A4D JUMP JUMPDEST PUSH2 0x2B1B PUSH1 0x60 DUP4 ADD DUP6 PUSH2 0x2A4D JUMP JUMPDEST DUP2 DUP2 SUB PUSH1 0x80 DUP4 ADD MSTORE PUSH2 0x2B2D DUP2 DUP5 PUSH2 0x27A8 JUMP JUMPDEST SWAP1 POP SWAP7 SWAP6 POP POP POP POP POP POP JUMP JUMPDEST PUSH1 0x0 PUSH1 0x20 DUP3 ADD SWAP1 POP DUP2 DUP2 SUB PUSH1 0x0 DUP4 ADD MSTORE PUSH2 0x2B53 DUP2 DUP5 PUSH2 0x273B JUMP JUMPDEST SWAP1 POP SWAP3 SWAP2 POP POP JUMP JUMPDEST PUSH1 0x0 PUSH1 0x40 DUP3 ADD SWAP1 POP DUP2 DUP2 SUB PUSH1 0x0 DUP4 ADD MSTORE PUSH2 0x2B75 DUP2 DUP6 PUSH2 0x273B JUMP JUMPDEST SWAP1 POP DUP2 DUP2 SUB PUSH1 0x20 DUP4 ADD MSTORE PUSH2 0x2B89 DUP2 DUP5 PUSH2 0x273B JUMP JUMPDEST SWAP1 POP SWAP4 SWAP3 POP POP POP JUMP JUMPDEST PUSH1 0x0 PUSH1 0x20 DUP3 ADD SWAP1 POP PUSH2 0x2BA7 PUSH1 0x0 DUP4 ADD DUP5 PUSH2 0x2799 JUMP JUMPDEST SWAP3 SWAP2 POP POP JUMP JUMPDEST PUSH1 0x0 PUSH1 0x20 DUP3 ADD SWAP1 POP DUP2 DUP2 SUB PUSH1 0x0 DUP4 ADD MSTORE PUSH2 0x2BC7 DUP2 DUP5 PUSH2 0x27E1 JUMP JUMPDEST SWAP1 POP SWAP3 SWAP2 POP POP JUMP JUMPDEST PUSH1 0x0 PUSH1 0x40 DUP3 ADD SWAP1 POP DUP2 DUP2 SUB PUSH1 0x0 DUP4 ADD MSTORE PUSH2 0x2BE9 DUP2 DUP6 PUSH2 0x27E1 JUMP JUMPDEST SWAP1 POP DUP2 DUP2 SUB PUSH1 0x20 DUP4 ADD MSTORE PUSH2 0x2BFD DUP2 DUP5 PUSH2 0x27E1 JUMP JUMPDEST SWAP1 POP SWAP4 SWAP3 POP POP POP JUMP JUMPDEST PUSH1 0x0 PUSH1 0x20 DUP3 ADD SWAP1 POP DUP2 DUP2 SUB PUSH1 0x0 DUP4 ADD MSTORE PUSH2 0x2C1F DUP2 PUSH2 0x289A JUMP JUMPDEST SWAP1 POP SWAP2 SWAP1 POP JUMP JUMPDEST PUSH1 0x0 PUSH1 0x20 DUP3 ADD SWAP1 POP DUP2 DUP2 SUB PUSH1 0x0 DUP4 ADD MSTORE PUSH2 0x2C3F DUP2 PUSH2 0x28BD JUMP JUMPDEST SWAP1 POP SWAP2 SWAP1 POP JUMP JUMPDEST PUSH1 0x0 PUSH1 0x20 DUP3 ADD SWAP1 POP DUP2 DUP2 SUB PUSH1 0x0 DUP4 ADD MSTORE PUSH2 0x2C5F DUP2 PUSH2 0x28E0 JUMP JUMPDEST SWAP1 POP SWAP2 SWAP1 POP JUMP JUMPDEST PUSH1 0x0 PUSH1 0x20 DUP3 ADD SWAP1 POP DUP2 DUP2 SUB PUSH1 0x0 DUP4 ADD MSTORE PUSH2 0x2C7F DUP2 PUSH2 0x2903 JUMP JUMPDEST SWAP1 POP SWAP2 SWAP1 POP JUMP JUMPDEST PUSH1 0x0 PUSH1 0x20 DUP3 ADD SWAP1 POP DUP2 DUP2 SUB PUSH1 0x0 DUP4 ADD MSTORE PUSH2 0x2C9F DUP2 PUSH2 0x2926 JUMP JUMPDEST SWAP1 POP SWAP2 SWAP1 POP JUMP JUMPDEST PUSH1 0x0 PUSH1 0x20 DUP3 ADD SWAP1 POP DUP2 DUP2 SUB PUSH1 0x0 DUP4 ADD MSTORE PUSH2 0x2CBF DUP2 PUSH2 0x2949 JUMP JUMPDEST SWAP1 POP SWAP2 SWAP1 POP JUMP JUMPDEST PUSH1 0x0 PUSH1 0x20 DUP3 ADD SWAP1 POP DUP2 DUP2 SUB PUSH1 0x0 DUP4 ADD MSTORE PUSH2 0x2CDF DUP2 PUSH2 0x296C JUMP JUMPDEST SWAP1 POP SWAP2 SWAP1 POP JUMP JUMPDEST PUSH1 0x0 PUSH1 0x20 DUP3 ADD SWAP1 POP DUP2 DUP2 SUB PUSH1 0x0 DUP4 ADD MSTORE PUSH2 0x2CFF DUP2 PUSH2 0x298F JUMP JUMPDEST SWAP1 POP SWAP2 SWAP1 POP JUMP JUMPDEST PUSH1 0x0 PUSH1 0x20 DUP3 ADD SWAP1 POP DUP2 DUP2 SUB PUSH1 0x0 DUP4 ADD MSTORE PUSH2 0x2D1F DUP2 PUSH2 0x29B2 JUMP JUMPDEST SWAP1 POP SWAP2 SWAP1 POP JUMP JUMPDEST PUSH1 0x0 PUSH1 0x20 DUP3 ADD SWAP1 POP DUP2 DUP2 SUB PUSH1 0x0 DUP4 ADD MSTORE PUSH2 0x2D3F DUP2 PUSH2 0x29D5 JUMP JUMPDEST SWAP1 POP SWAP2 SWAP1 POP JUMP JUMPDEST PUSH1 0x0 PUSH1 0x20 DUP3 ADD SWAP1 POP DUP2 DUP2 SUB PUSH1 0x0 DUP4 ADD MSTORE PUSH2 0x2D5F DUP2 PUSH2 0x29F8 JUMP JUMPDEST SWAP1 POP SWAP2 SWAP1 POP JUMP JUMPDEST PUSH1 0x0 PUSH1 0x20 DUP3 ADD SWAP1 POP DUP2 DUP2 SUB PUSH1 0x0 DUP4 ADD MSTORE PUSH2 0x2D7F DUP2 PUSH2 0x2A1B JUMP JUMPDEST SWAP1 POP SWAP2 SWAP1 POP JUMP JUMPDEST PUSH1 0x0 PUSH1 0x20 DUP3 ADD SWAP1 POP PUSH2 0x2D9B PUSH1 0x0 DUP4 ADD DUP5 PUSH2 0x2A4D JUMP JUMPDEST SWAP3 SWAP2 POP POP JUMP JUMPDEST PUSH1 0x0 PUSH1 0x60 DUP3 ADD SWAP1 POP PUSH2 0x2DB6 PUSH1 0x0 DUP4 ADD DUP7 PUSH2 0x2A4D JUMP JUMPDEST DUP2 DUP2 SUB PUSH1 0x20 DUP4 ADD MSTORE PUSH2 0x2DC8 DUP2 DUP6 PUSH2 0x281A JUMP JUMPDEST SWAP1 POP DUP2 DUP2 SUB PUSH1 0x40 DUP4 ADD MSTORE PUSH2 0x2DDC DUP2 DUP5 PUSH2 0x281A JUMP JUMPDEST SWAP1 POP SWAP5 SWAP4 POP POP POP POP JUMP JUMPDEST PUSH1 0x0 PUSH1 0x40 DUP3 ADD SWAP1 POP PUSH2 0x2DFB PUSH1 0x0 DUP4 ADD DUP6 PUSH2 0x2A4D JUMP JUMPDEST PUSH2 0x2E08 PUSH1 0x20 DUP4 ADD DUP5 PUSH2 0x2A4D JUMP JUMPDEST SWAP4 SWAP3 POP POP POP JUMP JUMPDEST PUSH1 0x0 PUSH2 0x2E19 PUSH2 0x2E2A JUMP JUMPDEST SWAP1 POP PUSH2 0x2E25 DUP3 DUP3 PUSH2 0x30B2 JUMP JUMPDEST SWAP2 SWAP1 POP JUMP JUMPDEST PUSH1 0x0 PUSH1 0x40 MLOAD SWAP1 POP SWAP1 JUMP JUMPDEST PUSH1 0x0 PUSH8 0xFFFFFFFFFFFFFFFF DUP3 GT ISZERO PUSH2 0x2E4F JUMPI PUSH2 0x2E4E PUSH2 0x318A JUMP JUMPDEST JUMPDEST PUSH1 0x20 DUP3 MUL SWAP1 POP PUSH1 0x20 DUP2 ADD SWAP1 POP SWAP2 SWAP1 POP JUMP JUMPDEST PUSH1 0x0 PUSH8 0xFFFFFFFFFFFFFFFF DUP3 GT ISZERO PUSH2 0x2E7B JUMPI PUSH2 0x2E7A PUSH2 0x318A JUMP JUMPDEST JUMPDEST PUSH1 0x20 DUP3 MUL SWAP1 POP PUSH1 0x20 DUP2 ADD SWAP1 POP SWAP2 SWAP1 POP JUMP JUMPDEST PUSH1 0x0 PUSH8 0xFFFFFFFFFFFFFFFF DUP3 GT ISZERO PUSH2 0x2EA7 JUMPI PUSH2 0x2EA6 PUSH2 0x318A JUMP JUMPDEST JUMPDEST PUSH2 0x2EB0 DUP3 PUSH2 0x31DB JUMP JUMPDEST SWAP1 POP PUSH1 0x20 DUP2 ADD SWAP1 POP SWAP2 SWAP1 POP JUMP JUMPDEST PUSH1 0x0 PUSH8 0xFFFFFFFFFFFFFFFF DUP3 GT ISZERO PUSH2 0x2ED8 JUMPI PUSH2 0x2ED7 PUSH2 0x318A JUMP JUMPDEST JUMPDEST PUSH2 0x2EE1 DUP3 PUSH2 0x31DB JUMP JUMPDEST SWAP1 POP PUSH1 0x20 DUP2 ADD SWAP1 POP SWAP2 SWAP1 POP JUMP JUMPDEST PUSH1 0x0 DUP2 SWAP1 POP PUSH1 0x20 DUP3 ADD SWAP1 POP SWAP2 SWAP1 POP JUMP JUMPDEST PUSH1 0x0 DUP2 SWAP1 POP DUP2 PUSH1 0x0 MSTORE PUSH1 0x20 PUSH1 0x0 KECCAK256 SWAP1 POP SWAP2 SWAP1 POP JUMP JUMPDEST PUSH1 0x0 DUP2 MLOAD SWAP1 POP SWAP2 SWAP1 POP JUMP JUMPDEST PUSH1 0x0 DUP2 MLOAD SWAP1 POP SWAP2 SWAP1 POP JUMP JUMPDEST PUSH1 0x0 DUP2 MLOAD SWAP1 POP SWAP2 SWAP1 POP JUMP JUMPDEST PUSH1 0x0 PUSH1 0x20 DUP3 ADD SWAP1 POP SWAP2 SWAP1 POP JUMP JUMPDEST PUSH1 0x0 DUP3 DUP3 MSTORE PUSH1 0x20 DUP3 ADD SWAP1 POP SWAP3 SWAP2 POP POP JUMP JUMPDEST PUSH1 0x0 DUP3 DUP3 MSTORE PUSH1 0x20 DUP3 ADD SWAP1 POP SWAP3 SWAP2 POP POP JUMP JUMPDEST PUSH1 0x0 DUP3 DUP3 MSTORE PUSH1 0x20 DUP3 ADD SWAP1 POP SWAP3 SWAP2 POP POP JUMP JUMPDEST PUSH1 0x0 PUSH2 0x2F7F DUP3 PUSH2 0x3034 JUMP JUMPDEST SWAP2 POP PUSH2 0x2F8A DUP4 PUSH2 0x3034 JUMP JUMPDEST SWAP3 POP DUP3 PUSH32 0xFFFFFFFFFFFFFFFFFFFFFFFFFFFFFFFFFFFFFFFFFFFFFFFFFFFFFFFFFFFFFFFF SUB DUP3 GT ISZERO PUSH2 0x2FBF JUMPI PUSH2 0x2FBE PUSH2 0x312C JUMP JUMPDEST JUMPDEST DUP3 DUP3 ADD SWAP1 POP SWAP3 SWAP2 POP POP JUMP JUMPDEST PUSH1 0x0 PUSH2 0x2FD5 DUP3 PUSH2 0x3014 JUMP JUMPDEST SWAP1 POP SWAP2 SWAP1 POP JUMP JUMPDEST PUSH1 0x0 DUP2 ISZERO ISZERO SWAP1 POP SWAP2 SWAP1 POP JUMP JUMPDEST PUSH1 0x0 PUSH32 0xFFFFFFFF00000000000000000000000000000000000000000000000000000000 DUP3 AND SWAP1 POP SWAP2 SWAP1 POP JUMP JUMPDEST PUSH1 0x0 PUSH20 0xFFFFFFFFFFFFFFFFFFFFFFFFFFFFFFFFFFFFFFFF DUP3 AND SWAP1 POP SWAP2 SWAP1 POP JUMP JUMPDEST PUSH1 0x0 DUP2 SWAP1 POP SWAP2 SWAP1 POP JUMP JUMPDEST DUP3 DUP2 DUP4 CALLDATACOPY PUSH1 0x0 DUP4 DUP4 ADD MSTORE POP POP POP JUMP JUMPDEST PUSH1 0x0 JUMPDEST DUP4 DUP2 LT ISZERO PUSH2 0x306B JUMPI DUP1 DUP3 ADD MLOAD DUP2 DUP5 ADD MSTORE PUSH1 0x20 DUP2 ADD SWAP1 POP PUSH2 0x3050 JUMP JUMPDEST DUP4 DUP2 GT ISZERO PUSH2 0x307A JUMPI PUSH1 0x0 DUP5 DUP5 ADD MSTORE JUMPDEST POP POP POP POP JUMP JUMPDEST PUSH1 0x0 PUSH1 0x2 DUP3 DIV SWAP1 POP PUSH1 0x1 DUP3 AND DUP1 PUSH2 0x3098 JUMPI PUSH1 0x7F DUP3 AND SWAP2 POP JUMPDEST PUSH1 0x20 DUP3 LT DUP2 EQ ISZERO PUSH2 0x30AC JUMPI PUSH2 0x30AB PUSH2 0x315B JUMP JUMPDEST JUMPDEST POP SWAP2 SWAP1 POP JUMP JUMPDEST PUSH2 0x30BB DUP3 PUSH2 0x31DB JUMP JUMPDEST DUP2 ADD DUP2 DUP2 LT PUSH8 0xFFFFFFFFFFFFFFFF DUP3 GT OR ISZERO PUSH2 0x30DA JUMPI PUSH2 0x30D9 PUSH2 0x318A JUMP JUMPDEST JUMPDEST DUP1 PUSH1 0x40 MSTORE POP POP POP JUMP JUMPDEST PUSH1 0x0 PUSH2 0x30EE DUP3 PUSH2 0x3034 JUMP JUMPDEST SWAP2 POP PUSH32 0xFFFFFFFFFFFFFFFFFFFFFFFFFFFFFFFFFFFFFFFFFFFFFFFFFFFFFFFFFFFFFFFF DUP3 EQ ISZERO PUSH2 0x3121 JUMPI PUSH2 0x3120 PUSH2 0x312C JUMP JUMPDEST JUMPDEST PUSH1 0x1 DUP3 ADD SWAP1 POP SWAP2 SWAP1 POP JUMP JUMPDEST PUSH32 0x4E487B7100000000000000000000000000000000000000000000000000000000 PUSH1 0x0 MSTORE PUSH1 0x11 PUSH1 0x4 MSTORE PUSH1 0x24 PUSH1 0x0 REVERT JUMPDEST PUSH32 0x4E487B7100000000000000000000000000000000000000000000000000000000 PUSH1 0x0 MSTORE PUSH1 0x22 PUSH1 0x4 MSTORE PUSH1 0x24 PUSH1 0x0 REVERT JUMPDEST PUSH32 0x4E487B7100000000000000000000000000000000000000000000000000000000 PUSH1 0x0 MSTORE PUSH1 0x41 PUSH1 0x4 MSTORE PUSH1 0x24 PUSH1 0x0 REVERT JUMPDEST PUSH1 0x0 PUSH1 0x3 RETURNDATASIZE GT ISZERO PUSH2 0x31D8 JUMPI PUSH1 0x4 PUSH1 0x0 DUP1 RETURNDATACOPY PUSH2 0x31D5 PUSH1 0x0 MLOAD PUSH2 0x31EC JUMP JUMPDEST SWAP1 POP JUMPDEST SWAP1 JUMP JUMPDEST PUSH1 0x0 PUSH1 0x1F NOT PUSH1 0x1F DUP4 ADD AND SWAP1 POP SWAP2 SWAP1 POP JUMP JUMPDEST PUSH1 0x0 DUP2 PUSH1 0xE0 SHR SWAP1 POP SWAP2 SWAP1 POP JUMP JUMPDEST PUSH32 0x455243313135353A207472616E7366657220746F206E6F6E2045524331313535 PUSH1 0x0 DUP3 ADD MSTORE PUSH32 0x526563656976657220696D706C656D656E746572000000000000000000000000 PUSH1 0x20 DUP3 ADD MSTORE POP JUMP JUMPDEST PUSH32 0x455243313135353A2063616C6C6572206973206E6F7420746F6B656E206F776E PUSH1 0x0 DUP3 ADD MSTORE PUSH32 0x6572206E6F7220617070726F7665640000000000000000000000000000000000 PUSH1 0x20 DUP3 ADD MSTORE POP JUMP JUMPDEST PUSH32 0x455243313135353A204552433131353552656365697665722072656A65637465 PUSH1 0x0 DUP3 ADD MSTORE PUSH32 0x6420746F6B656E73000000000000000000000000000000000000000000000000 PUSH1 0x20 DUP3 ADD MSTORE POP JUMP JUMPDEST PUSH32 0x4F776E61626C653A206E6577206F776E657220697320746865207A65726F2061 PUSH1 0x0 DUP3 ADD MSTORE PUSH32 0x6464726573730000000000000000000000000000000000000000000000000000 PUSH1 0x20 DUP3 ADD MSTORE POP JUMP JUMPDEST PUSH32 0x455243313135353A2061646472657373207A65726F206973206E6F7420612076 PUSH1 0x0 DUP3 ADD MSTORE PUSH32 0x616C6964206F776E657200000000000000000000000000000000000000000000 PUSH1 0x20 DUP3 ADD MSTORE POP JUMP JUMPDEST PUSH32 0x455243313135353A207472616E7366657220746F20746865207A65726F206164 PUSH1 0x0 DUP3 ADD MSTORE PUSH32 0x6472657373000000000000000000000000000000000000000000000000000000 PUSH1 0x20 DUP3 ADD MSTORE POP JUMP JUMPDEST PUSH32 0x455243313135353A20696E73756666696369656E742062616C616E636520666F PUSH1 0x0 DUP3 ADD MSTORE PUSH32 0x72207472616E7366657200000000000000000000000000000000000000000000 PUSH1 0x20 DUP3 ADD MSTORE POP JUMP JUMPDEST PUSH32 0x4F776E61626C653A2063616C6C6572206973206E6F7420746865206F776E6572 PUSH1 0x0 DUP3 ADD MSTORE POP JUMP JUMPDEST PUSH32 0x455243313135353A2073657474696E6720617070726F76616C20737461747573 PUSH1 0x0 DUP3 ADD MSTORE PUSH32 0x20666F722073656C660000000000000000000000000000000000000000000000 PUSH1 0x20 DUP3 ADD MSTORE POP JUMP JUMPDEST PUSH32 0x455243313135353A206163636F756E747320616E6420696473206C656E677468 PUSH1 0x0 DUP3 ADD MSTORE PUSH32 0x206D69736D617463680000000000000000000000000000000000000000000000 PUSH1 0x20 DUP3 ADD MSTORE POP JUMP JUMPDEST PUSH32 0x455243313135353A2069647320616E6420616D6F756E7473206C656E67746820 PUSH1 0x0 DUP3 ADD MSTORE PUSH32 0x6D69736D61746368000000000000000000000000000000000000000000000000 PUSH1 0x20 DUP3 ADD MSTORE POP JUMP JUMPDEST PUSH32 0x455243313135353A206D696E7420746F20746865207A65726F20616464726573 PUSH1 0x0 DUP3 ADD MSTORE PUSH32 0x7300000000000000000000000000000000000000000000000000000000000000 PUSH1 0x20 DUP3 ADD MSTORE POP JUMP JUMPDEST PUSH1 0x0 PUSH1 0x44 RETURNDATASIZE LT ISZERO PUSH2 0x3597 JUMPI PUSH2 0x361A JUMP JUMPDEST PUSH2 0x359F PUSH2 0x2E2A JUMP JUMPDEST PUSH1 0x4 RETURNDATASIZE SUB PUSH1 0x4 DUP3 RETURNDATACOPY DUP1 MLOAD RETURNDATASIZE PUSH1 0x24 DUP3 ADD GT PUSH8 0xFFFFFFFFFFFFFFFF DUP3 GT OR ISZERO PUSH2 0x35C7 JUMPI POP POP PUSH2 0x361A JUMP JUMPDEST DUP1 DUP3 ADD DUP1 MLOAD PUSH8 0xFFFFFFFFFFFFFFFF DUP2 GT ISZERO PUSH2 0x35E5 JUMPI POP POP POP POP PUSH2 0x361A JUMP JUMPDEST DUP1 PUSH1 0x20 DUP4 ADD ADD PUSH1 0x4 RETURNDATASIZE SUB DUP6 ADD DUP2 GT ISZERO PUSH2 0x3602 JUMPI POP POP POP POP POP PUSH2 0x361A JUMP JUMPDEST PUSH2 0x3611 DUP3 PUSH1 0x20 ADD DUP6 ADD DUP7 PUSH2 0x30B2 JUMP JUMPDEST DUP3 SWAP6 POP POP POP POP POP POP JUMPDEST SWAP1 JUMP JUMPDEST PUSH2 0x3626 DUP2 PUSH2 0x2FCA JUMP JUMPDEST DUP2 EQ PUSH2 0x3631 JUMPI PUSH1 0x0 DUP1 REVERT JUMPDEST POP JUMP JUMPDEST PUSH2 0x363D DUP2 PUSH2 0x2FDC JUMP JUMPDEST DUP2 EQ PUSH2 0x3648 JUMPI PUSH1 0x0 DUP1 REVERT JUMPDEST POP JUMP JUMPDEST PUSH2 0x3654 DUP2 PUSH2 0x2FE8 JUMP JUMPDEST DUP2 EQ PUSH2 0x365F JUMPI PUSH1 0x0 DUP1 REVERT JUMPDEST POP JUMP JUMPDEST PUSH2 0x366B DUP2 PUSH2 0x3034 JUMP JUMPDEST DUP2 EQ PUSH2 0x3676 JUMPI PUSH1 0x0 DUP1 REVERT JUMPDEST POP JUMP INVALID LOG2 PUSH5 0x6970667358 0x22 SLT KECCAK256 0x2F SAR 0xBC ORIGIN 0xC3 EXTCODEHASH 0xDB 0x48 SWAP7 0x1F 0x2D 0xC9 GAS SWAP1 SWAP1 ADDRESS 0xAE 0xBA SSTORE 0xCD SWAP6 BALANCE PUSH17 0xB18FE80EE57006AE9964736F6C63430008 ADD STOP CALLER "},"methodIdentifiers":{"addToken(string,string)":"5192a8f7","balanceOf(address,uint256)":"00fdd58e","balanceOfBatch(address[],uint256[])":"4e1273f4","getToken(uint256)":"e4b50cb8","isApprovedForAll(address,address)":"e985e9c5","mint(address,uint256,uint256)":"156e29f6","mintBatch(address,uint256[],uint256[])":"d81d0a15","owner()":"8da5cb5b","renounceOwnership()":"715018a6","safeBatchTransferFrom(address,address,uint256[],uint256[],bytes)":"2eb2c2d6","safeTransferFrom(address,address,uint256,uint256,bytes)":"f242432a","setApprovalForAll(address,bool)":"a22cb465","supportsInterface(bytes4)":"01ffc9a7","tokens(uint256)":"4f64b2be","transferOwnership(address)":"f2fde38b","uri(uint256)":"0e89341c"}},"storageLayout":{"storage":[{"astId":138,"contract":"Contracts/CharityRewards.sol:CharityRewards","label":"_balances","offset":0,"slot":"0","type":"t_mapping(t_uint256,t_mapping(t_address,t_uint256))"},{"astId":144,"contract":"Contracts/CharityRewards.sol:CharityRewards","label":"_operatorApprovals","offset":0,"slot":"1","type":"t_mapping(t_address,t_mapping(t_address,t_bool))"},{"astId":146,"contract":"Contracts/CharityRewards.sol:CharityRewards","label":"_uri","offset":0,"slot":"2","type":"t_string_storage"},{"astId":7,"contract":"Contracts/CharityRewards.sol:CharityRewards","label":"_owner","offset":0,"slot":"3","type":"t_address"},{"astId":1877,"contract":"Contracts/CharityRewards.sol:CharityRewards","label":"tokensCount","offset":0,"slot":"4","type":"t_uint256"},{"astId":1882,"contract":"Contracts/CharityRewards.sol:CharityRewards","label":"tokens","offset":0,"slot":"5","type":"t_mapping(t_uint256,t_struct(Token)1887_storage)"}],"types":{"t_address":{"encoding":"inplace","label":"address","numberOfBytes":"20"},"t_bool":{"encoding":"inplace","label":"bool","numberOfBytes":"1"},"t_mapping(t_address,t_bool)":{"encoding":"mapping","key":"t_address","label":"mapping(address => bool)","numberOfBytes":"32","value":"t_bool"},"t_mapping(t_address,t_mapping(t_address,t_bool))":{"encoding":"mapping","key":"t_address","label":"mapping(address => mapping(address => bool))","numberOfBytes":"32","value":"t_mapping(t_address,t_bool)"},"t_mapping(t_address,t_uint256)":{"encoding":"mapping","key":"t_address","label":"mapping(address => uint256)","numberOfBytes":"32","value":"t_uint256"},"t_mapping(t_uint256,t_mapping(t_address,t_uint256))":{"encoding":"mapping","key":"t_uint256","label":"mapping(uint256 => mapping(address => uint256))","numberOfBytes":"32","value":"t_mapping(t_address,t_uint256)"},"t_mapping(t_uint256,t_struct(Token)1887_storage)":{"encoding":"mapping","key":"t_uint256","label":"mapping(uint256 => struct CharityRewards.Token)","numberOfBytes":"32","value":"t_struct(Token)1887_storage"},"t_string_storage":{"encoding":"bytes","label":"string","numberOfBytes":"32"},"t_struct(Token)1887_storage":{"encoding":"inplace","label":"struct CharityRewards.Token","members":[{"astId":1884,"contract":"Contracts/CharityRewards.sol:CharityRewards","label":"name","offset":0,"slot":"0","type":"t_string_storage"},{"astId":1886,"contract":"Contracts/CharityRewards.sol:CharityRewards","label":"uri","offset":0,"slot":"1","type":"t_string_storage"}],"numberOfBytes":"64"},"t_uint256":{"encoding":"inplace","label":"uint256","numberOfBytes":"32"}}}}}}