{
  "_format": "hh-sol-artifact-1",
  "contractName": "CharityRewards",
  "sourceName": "Contracts/CharityRewards.sol",
  "abi": [
    {
      "inputs": [],
      "stateMutability": "nonpayable",
      "type": "constructor"
    },
    {
      "anonymous": false,
      "inputs": [
        {
          "indexed": false,
          "internalType": "uint256",
          "name": "tokenId",
          "type": "uint256"
        },
        {
          "indexed": false,
          "internalType": "string",
          "name": "tokenName",
          "type": "string"
        },
        {
          "indexed": false,
          "internalType": "string",
          "name": "tokenUri",
          "type": "string"
        }
      ],
      "name": "Added",
      "type": "event"
    },
    {
      "anonymous": false,
      "inputs": [
        {
          "indexed": true,
          "internalType": "address",
          "name": "account",
          "type": "address"
        },
        {
          "indexed": true,
          "internalType": "address",
          "name": "operator",
          "type": "address"
        },
        {
          "indexed": false,
          "internalType": "bool",
          "name": "approved",
          "type": "bool"
        }
      ],
      "name": "ApprovalForAll",
      "type": "event"
    },
    {
      "anonymous": false,
      "inputs": [
        {
          "indexed": true,
          "internalType": "address",
          "name": "previousOwner",
          "type": "address"
        },
        {
          "indexed": true,
          "internalType": "address",
          "name": "newOwner",
          "type": "address"
        }
      ],
      "name": "OwnershipTransferred",
      "type": "event"
    },
    {
      "anonymous": false,
      "inputs": [
        {
          "indexed": true,
          "internalType": "address",
          "name": "operator",
          "type": "address"
        },
        {
          "indexed": true,
          "internalType": "address",
          "name": "from",
          "type": "address"
        },
        {
          "indexed": true,
          "internalType": "address",
          "name": "to",
          "type": "address"
        },
        {
          "indexed": false,
          "internalType": "uint256[]",
          "name": "ids",
          "type": "uint256[]"
        },
        {
          "indexed": false,
          "internalType": "uint256[]",
          "name": "values",
          "type": "uint256[]"
        }
      ],
      "name": "TransferBatch",
      "type": "event"
    },
    {
      "anonymous": false,
      "inputs": [
        {
          "indexed": true,
          "internalType": "address",
          "name": "operator",
          "type": "address"
        },
        {
          "indexed": true,
          "internalType": "address",
          "name": "from",
          "type": "address"
        },
        {
          "indexed": true,
          "internalType": "address",
          "name": "to",
          "type": "address"
        },
        {
          "indexed": false,
          "internalType": "uint256",
          "name": "id",
          "type": "uint256"
        },
        {
          "indexed": false,
          "internalType": "uint256",
          "name": "value",
          "type": "uint256"
        }
      ],
      "name": "TransferSingle",
      "type": "event"
    },
    {
      "anonymous": false,
      "inputs": [
        {
          "indexed": false,
          "internalType": "string",
          "name": "value",
          "type": "string"
        },
        {
          "indexed": true,
          "internalType": "uint256",
          "name": "id",
          "type": "uint256"
        }
      ],
      "name": "URI",
      "type": "event"
    },
    {
      "inputs": [
        {
          "internalType": "string",
          "name": "_tokenName",
          "type": "string"
        },
        {
          "internalType": "string",
          "name": "_tokenUri",
          "type": "string"
        }
      ],
      "name": "addToken",
      "outputs": [],
      "stateMutability": "nonpayable",
      "type": "function"
    },
    {
      "inputs": [
        {
          "internalType": "address",
          "name": "account",
          "type": "address"
        },
        {
          "internalType": "uint256",
          "name": "id",
          "type": "uint256"
        }
      ],
      "name": "balanceOf",
      "outputs": [
        {
          "internalType": "uint256",
          "name": "",
          "type": "uint256"
        }
      ],
      "stateMutability": "view",
      "type": "function"
    },
    {
      "inputs": [
        {
          "internalType": "address[]",
          "name": "accounts",
          "type": "address[]"
        },
        {
          "internalType": "uint256[]",
          "name": "ids",
          "type": "uint256[]"
        }
      ],
      "name": "balanceOfBatch",
      "outputs": [
        {
          "internalType": "uint256[]",
          "name": "",
          "type": "uint256[]"
        }
      ],
      "stateMutability": "view",
      "type": "function"
    },
    {
      "inputs": [
        {
          "internalType": "uint256",
          "name": "_tokenId",
          "type": "uint256"
        }
      ],
      "name": "getToken",
      "outputs": [
        {
          "internalType": "string",
          "name": "_name",
          "type": "string"
        },
        {
          "internalType": "string",
          "name": "_uri",
          "type": "string"
        }
      ],
      "stateMutability": "view",
      "type": "function"
    },
    {
      "inputs": [
        {
          "internalType": "address",
          "name": "account",
          "type": "address"
        },
        {
          "internalType": "address",
          "name": "operator",
          "type": "address"
        }
      ],
      "name": "isApprovedForAll",
      "outputs": [
        {
          "internalType": "bool",
          "name": "",
          "type": "bool"
        }
      ],
      "stateMutability": "view",
      "type": "function"
    },
    {
      "inputs": [
        {
          "internalType": "address",
          "name": "_to",
          "type": "address"
        },
        {
          "internalType": "uint256",
          "name": "_tokenId",
          "type": "uint256"
        },
        {
          "internalType": "uint256",
          "name": "_tokenAmount",
          "type": "uint256"
        }
      ],
      "name": "mint",
      "outputs": [],
      "stateMutability": "nonpayable",
      "type": "function"
    },
    {
      "inputs": [
        {
          "internalType": "address",
          "name": "_to",
          "type": "address"
        },
        {
          "internalType": "uint256[]",
          "name": "tokensIds",
          "type": "uint256[]"
        },
        {
          "internalType": "uint256[]",
          "name": "tokensAmounts",
          "type": "uint256[]"
        }
      ],
      "name": "mintBatch",
      "outputs": [],
      "stateMutability": "nonpayable",
      "type": "function"
    },
    {
      "inputs": [],
      "name": "owner",
      "outputs": [
        {
          "internalType": "address",
          "name": "",
          "type": "address"
        }
      ],
      "stateMutability": "view",
      "type": "function"
    },
    {
      "inputs": [],
      "name": "renounceOwnership",
      "outputs": [],
      "stateMutability": "nonpayable",
      "type": "function"
    },
    {
      "inputs": [
        {
          "internalType": "address",
          "name": "from",
          "type": "address"
        },
        {
          "internalType": "address",
          "name": "to",
          "type": "address"
        },
        {
          "internalType": "uint256[]",
          "name": "ids",
          "type": "uint256[]"
        },
        {
          "internalType": "uint256[]",
          "name": "amounts",
          "type": "uint256[]"
        },
        {
          "internalType": "bytes",
          "name": "data",
          "type": "bytes"
        }
      ],
      "name": "safeBatchTransferFrom",
      "outputs": [],
      "stateMutability": "nonpayable",
      "type": "function"
    },
    {
      "inputs": [
        {
          "internalType": "address",
          "name": "from",
          "type": "address"
        },
        {
          "internalType": "address",
          "name": "to",
          "type": "address"
        },
        {
          "internalType": "uint256",
          "name": "id",
          "type": "uint256"
        },
        {
          "internalType": "uint256",
          "name": "amount",
          "type": "uint256"
        },
        {
          "internalType": "bytes",
          "name": "data",
          "type": "bytes"
        }
      ],
      "name": "safeTransferFrom",
      "outputs": [],
      "stateMutability": "nonpayable",
      "type": "function"
    },
    {
      "inputs": [
        {
          "internalType": "address",
          "name": "operator",
          "type": "address"
        },
        {
          "internalType": "bool",
          "name": "approved",
          "type": "bool"
        }
      ],
      "name": "setApprovalForAll",
      "outputs": [],
      "stateMutability": "nonpayable",
      "type": "function"
    },
    {
      "inputs": [
        {
          "internalType": "bytes4",
          "name": "interfaceId",
          "type": "bytes4"
        }
      ],
      "name": "supportsInterface",
      "outputs": [
        {
          "internalType": "bool",
          "name": "",
          "type": "bool"
        }
      ],
      "stateMutability": "view",
      "type": "function"
    },
    {
      "inputs": [
        {
          "internalType": "uint256",
          "name": "",
          "type": "uint256"
        }
      ],
      "name": "tokens",
      "outputs": [
        {
          "internalType": "string",
          "name": "name",
          "type": "string"
        },
        {
          "internalType": "string",
          "name": "uri",
          "type": "string"
        }
      ],
      "stateMutability": "view",
      "type": "function"
    },
    {
      "inputs": [
        {
          "internalType": "address",
          "name": "newOwner",
          "type": "address"
        }
      ],
      "name": "transferOwnership",
      "outputs": [],
      "stateMutability": "nonpayable",
      "type": "function"
    },
    {
      "inputs": [
        {
          "internalType": "uint256",
          "name": "",
          "type": "uint256"
        }
      ],
      "name": "uri",
      "outputs": [
        {
          "internalType": "string",
          "name": "",
          "type": "string"
        }
      ],
      "stateMutability": "view",
      "type": "function"
    }
  ],
  "bytecode": "0x608060405260006004553480156200001657600080fd5b506040518060200160405280600081525062000038816200005f60201b60201c565b50620000596200004d6200007b60201b60201c565b6200008360201b60201c565b6200025e565b80600290805190602001906200007792919062000149565b5050565b600033905090565b6000600360009054906101000a900473ffffffffffffffffffffffffffffffffffffffff16905081600360006101000a81548173ffffffffffffffffffffffffffffffffffffffff021916908373ffffffffffffffffffffffffffffffffffffffff1602179055508173ffffffffffffffffffffffffffffffffffffffff168173ffffffffffffffffffffffffffffffffffffffff167f8be0079c531659141344cd1fd0a4f28419497f9722a3daafe3b4186f6b6457e060405160405180910390a35050565b8280546200015790620001f9565b90600052602060002090601f0160209004810192826200017b5760008555620001c7565b82601f106200019657805160ff1916838001178555620001c7565b82800160010185558215620001c7579182015b82811115620001c6578251825591602001919060010190620001a9565b5b509050620001d69190620001da565b5090565b5b80821115620001f5576000816000905550600101620001db565b5090565b600060028204905060018216806200021257607f821691505b602082108114156200022957620002286200022f565b5b50919050565b7f4e487b7100000000000000000000000000000000000000000000000000000000600052602260045260246000fd5b6136af806200026e6000396000f3fe608060405234801561001057600080fd5b50600436106100ff5760003560e01c8063715018a611610097578063e4b50cb811610066578063e4b50cb8146102a9578063e985e9c5146102da578063f242432a1461030a578063f2fde38b14610326576100ff565b8063715018a6146102495780638da5cb5b14610253578063a22cb46514610271578063d81d0a151461028d576100ff565b80632eb2c2d6116100d35780632eb2c2d6146101b05780634e1273f4146101cc5780634f64b2be146101fc5780635192a8f71461022d576100ff565b8062fdd58e1461010457806301ffc9a7146101345780630e89341c14610164578063156e29f614610194575b600080fd5b61011e60048036038101906101199190612536565b610342565b60405161012b9190612d86565b60405180910390f35b61014e6004803603810190610149919061262d565b61040b565b60405161015b9190612b92565b60405180910390f35b61017e600480360381019061017991906126eb565b6104ed565b60405161018b9190612bad565b60405180910390f35b6101ae60048036038101906101a99190612572565b610581565b005b6101ca60048036038101906101c5919061232d565b6105a1565b005b6101e660048036038101906101e191906125c1565b610642565b6040516101f39190612b39565b60405180910390f35b610216600480360381019061021191906126eb565b6107f3565b604051610224929190612bcf565b60405180910390f35b6102476004803603810190610242919061267f565b610927565b005b610251610a1d565b005b61025b610a31565b6040516102689190612a5c565b60405180910390f35b61028b600480360381019061028691906124fa565b610a5b565b005b6102a760048036038101906102a2919061247b565b610a71565b005b6102c360048036038101906102be91906126eb565b610a91565b6040516102d1929190612bcf565b60405180910390f35b6102f460048036038101906102ef91906122f1565b610be1565b6040516103019190612b92565b60405180910390f35b610324600480360381019061031f91906123ec565b610c75565b005b610340600480360381019061033b91906122c8565b610d16565b005b60008073ffffffffffffffffffffffffffffffffffffffff168373ffffffffffffffffffffffffffffffffffffffff1614156103b3576040517f08c379a00000000000000000000000000000000000000000000000000000000081526004016103aa90612c86565b60405180910390fd5b60008083815260200190815260200160002060008473ffffffffffffffffffffffffffffffffffffffff1673ffffffffffffffffffffffffffffffffffffffff16815260200190815260200160002054905092915050565b60007fd9b67a26000000000000000000000000000000000000000000000000000000007bffffffffffffffffffffffffffffffffffffffffffffffffffffffff1916827bffffffffffffffffffffffffffffffffffffffffffffffffffffffff191614806104d657507f0e89341c000000000000000000000000000000000000000000000000000000007bffffffffffffffffffffffffffffffffffffffffffffffffffffffff1916827bffffffffffffffffffffffffffffffffffffffffffffffffffffffff1916145b806104e657506104e582610d9a565b5b9050919050565b6060600280546104fc90613080565b80601f016020809104026020016040519081016040528092919081815260200182805461052890613080565b80156105755780601f1061054a57610100808354040283529160200191610575565b820191906000526020600020905b81548152906001019060200180831161055857829003601f168201915b50505050509050919050565b61059c83838360405180602001604052806000815250610e04565b505050565b6105a9610fb5565b73ffffffffffffffffffffffffffffffffffffffff168573ffffffffffffffffffffffffffffffffffffffff1614806105ef57506105ee856105e9610fb5565b610be1565b5b61062e576040517f08c379a000000000000000000000000000000000000000000000000000000000815260040161062590612c26565b60405180910390fd5b61063b8585858585610fbd565b5050505050565b60608151835114610688576040517f08c379a000000000000000000000000000000000000000000000000000000000815260040161067f90612d26565b60405180910390fd5b6000835167ffffffffffffffff8111156106cb577f4e487b7100000000000000000000000000000000000000000000000000000000600052604160045260246000fd5b6040519080825280602002602001820160405280156106f95781602001602082028036833780820191505090505b50905060005b84518110156107e857610792858281518110610744577f4e487b7100000000000000000000000000000000000000000000000000000000600052603260045260246000fd5b6020026020010151858381518110610785577f4e487b7100000000000000000000000000000000000000000000000000000000600052603260045260246000fd5b6020026020010151610342565b8282815181106107cb577f4e487b7100000000000000000000000000000000000000000000000000000000600052603260045260246000fd5b602002602001018181525050806107e1906130e3565b90506106ff565b508091505092915050565b600560205280600052604060002060009150905080600001805461081690613080565b80601f016020809104026020016040519081016040528092919081815260200182805461084290613080565b801561088f5780601f106108645761010080835404028352916020019161088f565b820191906000526020600020905b81548152906001019060200180831161087257829003601f168201915b5050505050908060010180546108a490613080565b80601f01602080910402602001604051908101604052809291908181526020018280546108d090613080565b801561091d5780601f106108f25761010080835404028352916020019161091d565b820191906000526020600020905b81548152906001019060200180831161090057829003601f168201915b5050505050905082565b61092f61132b565b60046000815480929190610942906130e3565b9190505550604051806040016040528083815260200182815250600560006004548152602001908152602001600020600082015181600001908051906020019061098d929190611fc0565b5060208201518160010190805190602001906109aa929190611fc0565b509050507f064380938bf3e3a2f9fc9392be0e05db59af7785fc0988c19ffdb2c3c2a8bb20600454600560006004548152602001908152602001600020600001600560006004548152602001908152602001600020600101604051610a1193929190612da1565b60405180910390a15050565b610a2561132b565b610a2f60006113a9565b565b6000600360009054906101000a900473ffffffffffffffffffffffffffffffffffffffff16905090565b610a6d610a66610fb5565b838361146f565b5050565b610a8c838383604051806020016040528060008152506115dc565b505050565b6060806005600084815260200190815260200160002060000160056000858152602001908152602001600020600101818054610acc90613080565b80601f0160208091040260200160405190810160405280929190818152602001828054610af890613080565b8015610b455780601f10610b1a57610100808354040283529160200191610b45565b820191906000526020600020905b815481529060010190602001808311610b2857829003601f168201915b50505050509150808054610b5890613080565b80601f0160208091040260200160405190810160405280929190818152602001828054610b8490613080565b8015610bd15780601f10610ba657610100808354040283529160200191610bd1565b820191906000526020600020905b815481529060010190602001808311610bb457829003601f168201915b5050505050905091509150915091565b6000600160008473ffffffffffffffffffffffffffffffffffffffff1673ffffffffffffffffffffffffffffffffffffffff16815260200190815260200160002060008373ffffffffffffffffffffffffffffffffffffffff1673ffffffffffffffffffffffffffffffffffffffff16815260200190815260200160002060009054906101000a900460ff16905092915050565b610c7d610fb5565b73ffffffffffffffffffffffffffffffffffffffff168573ffffffffffffffffffffffffffffffffffffffff161480610cc35750610cc285610cbd610fb5565b610be1565b5b610d02576040517f08c379a0000000000000000000000000000000000000000000000000000000008152600401610cf990612c26565b60405180910390fd5b610d0f8585858585611855565b5050505050565b610d1e61132b565b600073ffffffffffffffffffffffffffffffffffffffff168173ffffffffffffffffffffffffffffffffffffffff161415610d8e576040517f08c379a0000000000000000000000000000000000000000000000000000000008152600401610d8590612c66565b60405180910390fd5b610d97816113a9565b50565b60007f01ffc9a7000000000000000000000000000000000000000000000000000000007bffffffffffffffffffffffffffffffffffffffffffffffffffffffff1916827bffffffffffffffffffffffffffffffffffffffffffffffffffffffff1916149050919050565b600073ffffffffffffffffffffffffffffffffffffffff168473ffffffffffffffffffffffffffffffffffffffff161415610e74576040517f08c379a0000000000000000000000000000000000000000000000000000000008152600401610e6b90612d66565b60405180910390fd5b6000610e7e610fb5565b90506000610e8b85611af1565b90506000610e9885611af1565b9050610ea983600089858589611bb7565b8460008088815260200190815260200160002060008973ffffffffffffffffffffffffffffffffffffffff1673ffffffffffffffffffffffffffffffffffffffff1681526020019081526020016000206000828254610f089190612f74565b925050819055508673ffffffffffffffffffffffffffffffffffffffff16600073ffffffffffffffffffffffffffffffffffffffff168473ffffffffffffffffffffffffffffffffffffffff167fc3d58168c5ae7397731d063d5bbf3d657854427343f4c083240f7aacaa2d0f628989604051610f86929190612de6565b60405180910390a4610f9d83600089858589611bc7565b610fac83600089898989611bcf565b50505050505050565b600033905090565b8151835114611001576040517f08c379a0000000000000000000000000000000000000000000000000000000008152600401610ff890612d46565b60405180910390fd5b600073ffffffffffffffffffffffffffffffffffffffff168473ffffffffffffffffffffffffffffffffffffffff161415611071576040517f08c379a000000000000000000000000000000000000000000000000000000000815260040161106890612ca6565b60405180910390fd5b600061107b610fb5565b905061108b818787878787611bb7565b60005b84518110156112885760008582815181106110d2577f4e487b7100000000000000000000000000000000000000000000000000000000600052603260045260246000fd5b602002602001015190506000858381518110611117577f4e487b7100000000000000000000000000000000000000000000000000000000600052603260045260246000fd5b60200260200101519050600080600084815260200190815260200160002060008b73ffffffffffffffffffffffffffffffffffffffff1673ffffffffffffffffffffffffffffffffffffffff168152602001908152602001600020549050818110156111b8576040517f08c379a00000000000000000000000000000000000000000000000000000000081526004016111af90612cc6565b60405180910390fd5b81810360008085815260200190815260200160002060008c73ffffffffffffffffffffffffffffffffffffffff1673ffffffffffffffffffffffffffffffffffffffff168152602001908152602001600020819055508160008085815260200190815260200160002060008b73ffffffffffffffffffffffffffffffffffffffff1673ffffffffffffffffffffffffffffffffffffffff168152602001908152602001600020600082825461126d9190612f74565b9250508190555050505080611281906130e3565b905061108e565b508473ffffffffffffffffffffffffffffffffffffffff168673ffffffffffffffffffffffffffffffffffffffff168273ffffffffffffffffffffffffffffffffffffffff167f4a39dc06d4c0dbc64b70af90fd698a233a518aa5d07e595d983b8c0526c8f7fb87876040516112ff929190612b5b565b60405180910390a4611315818787878787611bc7565b611323818787878787611db6565b505050505050565b611333610fb5565b73ffffffffffffffffffffffffffffffffffffffff16611351610a31565b73ffffffffffffffffffffffffffffffffffffffff16146113a7576040517f08c379a000000000000000000000000000000000000000000000000000000000815260040161139e90612ce6565b60405180910390fd5b565b6000600360009054906101000a900473ffffffffffffffffffffffffffffffffffffffff16905081600360006101000a81548173ffffffffffffffffffffffffffffffffffffffff021916908373ffffffffffffffffffffffffffffffffffffffff1602179055508173ffffffffffffffffffffffffffffffffffffffff168173ffffffffffffffffffffffffffffffffffffffff167f8be0079c531659141344cd1fd0a4f28419497f9722a3daafe3b4186f6b6457e060405160405180910390a35050565b8173ffffffffffffffffffffffffffffffffffffffff168373ffffffffffffffffffffffffffffffffffffffff1614156114de576040517f08c379a00000000000000000000000000000000000000000000000000000000081526004016114d590612d06565b60405180910390fd5b80600160008573ffffffffffffffffffffffffffffffffffffffff1673ffffffffffffffffffffffffffffffffffffffff16815260200190815260200160002060008473ffffffffffffffffffffffffffffffffffffffff1673ffffffffffffffffffffffffffffffffffffffff16815260200190815260200160002060006101000a81548160ff0219169083151502179055508173ffffffffffffffffffffffffffffffffffffffff168373ffffffffffffffffffffffffffffffffffffffff167f17307eab39ab6107e8899845ad3d59bd9653f200f220920489ca2b5937696c31836040516115cf9190612b92565b60405180910390a3505050565b600073ffffffffffffffffffffffffffffffffffffffff168473ffffffffffffffffffffffffffffffffffffffff16141561164c576040517f08c379a000000000000000000000000000000000000000000000000000000000815260040161164390612d66565b60405180910390fd5b8151835114611690576040517f08c379a000000000000000000000000000000000000000000000000000000000815260040161168790612d46565b60405180910390fd5b600061169a610fb5565b90506116ab81600087878787611bb7565b60005b84518110156117b0578381815181106116f0577f4e487b7100000000000000000000000000000000000000000000000000000000600052603260045260246000fd5b6020026020010151600080878481518110611734577f4e487b7100000000000000000000000000000000000000000000000000000000600052603260045260246000fd5b6020026020010151815260200190815260200160002060008873ffffffffffffffffffffffffffffffffffffffff1673ffffffffffffffffffffffffffffffffffffffff16815260200190815260200160002060008282546117969190612f74565b9250508190555080806117a8906130e3565b9150506116ae565b508473ffffffffffffffffffffffffffffffffffffffff16600073ffffffffffffffffffffffffffffffffffffffff168273ffffffffffffffffffffffffffffffffffffffff167f4a39dc06d4c0dbc64b70af90fd698a233a518aa5d07e595d983b8c0526c8f7fb8787604051611828929190612b5b565b60405180910390a461183f81600087878787611bc7565b61184e81600087878787611db6565b5050505050565b600073ffffffffffffffffffffffffffffffffffffffff168473ffffffffffffffffffffffffffffffffffffffff1614156118c5576040517f08c379a00000000000000000000000000000000000000000000000000000000081526004016118bc90612ca6565b60405180910390fd5b60006118cf610fb5565b905060006118dc85611af1565b905060006118e985611af1565b90506118f9838989858589611bb7565b600080600088815260200190815260200160002060008a73ffffffffffffffffffffffffffffffffffffffff1673ffffffffffffffffffffffffffffffffffffffff16815260200190815260200160002054905085811015611990576040517f08c379a000000000000000000000000000000000000000000000000000000000815260040161198790612cc6565b60405180910390fd5b85810360008089815260200190815260200160002060008b73ffffffffffffffffffffffffffffffffffffffff1673ffffffffffffffffffffffffffffffffffffffff168152602001908152602001600020819055508560008089815260200190815260200160002060008a73ffffffffffffffffffffffffffffffffffffffff1673ffffffffffffffffffffffffffffffffffffffff1681526020019081526020016000206000828254611a459190612f74565b925050819055508773ffffffffffffffffffffffffffffffffffffffff168973ffffffffffffffffffffffffffffffffffffffff168573ffffffffffffffffffffffffffffffffffffffff167fc3d58168c5ae7397731d063d5bbf3d657854427343f4c083240f7aacaa2d0f628a8a604051611ac2929190612de6565b60405180910390a4611ad8848a8a86868a611bc7565b611ae6848a8a8a8a8a611bcf565b505050505050505050565b60606000600167ffffffffffffffff811115611b36577f4e487b7100000000000000000000000000000000000000000000000000000000600052604160045260246000fd5b604051908082528060200260200182016040528015611b645781602001602082028036833780820191505090505b5090508281600081518110611ba2577f4e487b7100000000000000000000000000000000000000000000000000000000600052603260045260246000fd5b60200260200101818152505080915050919050565b611bbf61132b565b505050505050565b505050505050565b611bee8473ffffffffffffffffffffffffffffffffffffffff16611f9d565b15611dae578373ffffffffffffffffffffffffffffffffffffffff1663f23a6e6187878686866040518663ffffffff1660e01b8152600401611c34959493929190612adf565b602060405180830381600087803b158015611c4e57600080fd5b505af1925050508015611c7f57506040513d601f19601f82011682018060405250810190611c7c9190612656565b60015b611d2557611c8b6131b9565b806308c379a01415611ce85750611ca0613587565b80611cab5750611cea565b806040517f08c379a0000000000000000000000000000000000000000000000000000000008152600401611cdf9190612bad565b60405180910390fd5b505b6040517f08c379a0000000000000000000000000000000000000000000000000000000008152600401611d1c90612c06565b60405180910390fd5b63f23a6e6160e01b7bffffffffffffffffffffffffffffffffffffffffffffffffffffffff1916817bffffffffffffffffffffffffffffffffffffffffffffffffffffffff191614611dac576040517f08c379a0000000000000000000000000000000000000000000000000000000008152600401611da390612c46565b60405180910390fd5b505b505050505050565b611dd58473ffffffffffffffffffffffffffffffffffffffff16611f9d565b15611f95578373ffffffffffffffffffffffffffffffffffffffff1663bc197c8187878686866040518663ffffffff1660e01b8152600401611e1b959493929190612a77565b602060405180830381600087803b158015611e3557600080fd5b505af1925050508015611e6657506040513d601f19601f82011682018060405250810190611e639190612656565b60015b611f0c57611e726131b9565b806308c379a01415611ecf5750611e87613587565b80611e925750611ed1565b806040517f08c379a0000000000000000000000000000000000000000000000000000000008152600401611ec69190612bad565b60405180910390fd5b505b6040517f08c379a0000000000000000000000000000000000000000000000000000000008152600401611f0390612c06565b60405180910390fd5b63bc197c8160e01b7bffffffffffffffffffffffffffffffffffffffffffffffffffffffff1916817bffffffffffffffffffffffffffffffffffffffffffffffffffffffff191614611f93576040517f08c379a0000000000000000000000000000000000000000000000000000000008152600401611f8a90612c46565b60405180910390fd5b505b505050505050565b6000808273ffffffffffffffffffffffffffffffffffffffff163b119050919050565b828054611fcc90613080565b90600052602060002090601f016020900481019282611fee5760008555612035565b82601f1061200757805160ff1916838001178555612035565b82800160010185558215612035579182015b82811115612034578251825591602001919060010190612019565b5b5090506120429190612046565b5090565b5b8082111561205f576000816000905550600101612047565b5090565b600061207661207184612e34565b612e0f565b9050808382526020820190508285602086028201111561209557600080fd5b60005b858110156120c557816120ab88826121b7565b845260208401935060208301925050600181019050612098565b5050509392505050565b60006120e26120dd84612e60565b612e0f565b9050808382526020820190508285602086028201111561210157600080fd5b60005b85811015612131578161211788826122b3565b845260208401935060208301925050600181019050612104565b5050509392505050565b600061214e61214984612e8c565b612e0f565b90508281526020810184848401111561216657600080fd5b61217184828561303e565b509392505050565b600061218c61218784612ebd565b612e0f565b9050828152602081018484840111156121a457600080fd5b6121af84828561303e565b509392505050565b6000813590506121c68161361d565b92915050565b600082601f8301126121dd57600080fd5b81356121ed848260208601612063565b91505092915050565b600082601f83011261220757600080fd5b81356122178482602086016120cf565b91505092915050565b60008135905061222f81613634565b92915050565b6000813590506122448161364b565b92915050565b6000815190506122598161364b565b92915050565b600082601f83011261227057600080fd5b813561228084826020860161213b565b91505092915050565b600082601f83011261229a57600080fd5b81356122aa848260208601612179565b91505092915050565b6000813590506122c281613662565b92915050565b6000602082840312156122da57600080fd5b60006122e8848285016121b7565b91505092915050565b6000806040838503121561230457600080fd5b6000612312858286016121b7565b9250506020612323858286016121b7565b9150509250929050565b600080600080600060a0868803121561234557600080fd5b6000612353888289016121b7565b9550506020612364888289016121b7565b945050604086013567ffffffffffffffff81111561238157600080fd5b61238d888289016121f6565b935050606086013567ffffffffffffffff8111156123aa57600080fd5b6123b6888289016121f6565b925050608086013567ffffffffffffffff8111156123d357600080fd5b6123df8882890161225f565b9150509295509295909350565b600080600080600060a0868803121561240457600080fd5b6000612412888289016121b7565b9550506020612423888289016121b7565b9450506040612434888289016122b3565b9350506060612445888289016122b3565b925050608086013567ffffffffffffffff81111561246257600080fd5b61246e8882890161225f565b9150509295509295909350565b60008060006060848603121561249057600080fd5b600061249e868287016121b7565b935050602084013567ffffffffffffffff8111156124bb57600080fd5b6124c7868287016121f6565b925050604084013567ffffffffffffffff8111156124e457600080fd5b6124f0868287016121f6565b9150509250925092565b6000806040838503121561250d57600080fd5b600061251b858286016121b7565b925050602061252c85828601612220565b9150509250929050565b6000806040838503121561254957600080fd5b6000612557858286016121b7565b9250506020612568858286016122b3565b9150509250929050565b60008060006060848603121561258757600080fd5b6000612595868287016121b7565b93505060206125a6868287016122b3565b92505060406125b7868287016122b3565b9150509250925092565b600080604083850312156125d457600080fd5b600083013567ffffffffffffffff8111156125ee57600080fd5b6125fa858286016121cc565b925050602083013567ffffffffffffffff81111561261757600080fd5b612623858286016121f6565b9150509250929050565b60006020828403121561263f57600080fd5b600061264d84828501612235565b91505092915050565b60006020828403121561266857600080fd5b60006126768482850161224a565b91505092915050565b6000806040838503121561269257600080fd5b600083013567ffffffffffffffff8111156126ac57600080fd5b6126b885828601612289565b925050602083013567ffffffffffffffff8111156126d557600080fd5b6126e185828601612289565b9150509250929050565b6000602082840312156126fd57600080fd5b600061270b848285016122b3565b91505092915050565b60006127208383612a3e565b60208301905092915050565b61273581612fca565b82525050565b600061274682612f13565b6127508185612f41565b935061275b83612eee565b8060005b8381101561278c5781516127738882612714565b975061277e83612f34565b92505060018101905061275f565b5085935050505092915050565b6127a281612fdc565b82525050565b60006127b382612f1e565b6127bd8185612f52565b93506127cd81856020860161304d565b6127d6816131db565b840191505092915050565b60006127ec82612f29565b6127f68185612f63565b935061280681856020860161304d565b61280f816131db565b840191505092915050565b6000815461282781613080565b6128318186612f63565b9450600182166000811461284c576001811461285e57612891565b60ff1983168652602086019350612891565b61286785612efe565b60005b838110156128895781548189015260018201915060208101905061286a565b808801955050505b50505092915050565b60006128a7603483612f63565b91506128b2826131f9565b604082019050919050565b60006128ca602f83612f63565b91506128d582613248565b604082019050919050565b60006128ed602883612f63565b91506128f882613297565b604082019050919050565b6000612910602683612f63565b915061291b826132e6565b604082019050919050565b6000612933602a83612f63565b915061293e82613335565b604082019050919050565b6000612956602583612f63565b915061296182613384565b604082019050919050565b6000612979602a83612f63565b9150612984826133d3565b604082019050919050565b600061299c602083612f63565b91506129a782613422565b602082019050919050565b60006129bf602983612f63565b91506129ca8261344b565b604082019050919050565b60006129e2602983612f63565b91506129ed8261349a565b604082019050919050565b6000612a05602883612f63565b9150612a10826134e9565b604082019050919050565b6000612a28602183612f63565b9150612a3382613538565b604082019050919050565b612a4781613034565b82525050565b612a5681613034565b82525050565b6000602082019050612a71600083018461272c565b92915050565b600060a082019050612a8c600083018861272c565b612a99602083018761272c565b8181036040830152612aab818661273b565b90508181036060830152612abf818561273b565b90508181036080830152612ad381846127a8565b90509695505050505050565b600060a082019050612af4600083018861272c565b612b01602083018761272c565b612b0e6040830186612a4d565b612b1b6060830185612a4d565b8181036080830152612b2d81846127a8565b90509695505050505050565b60006020820190508181036000830152612b53818461273b565b905092915050565b60006040820190508181036000830152612b75818561273b565b90508181036020830152612b89818461273b565b90509392505050565b6000602082019050612ba76000830184612799565b92915050565b60006020820190508181036000830152612bc781846127e1565b905092915050565b60006040820190508181036000830152612be981856127e1565b90508181036020830152612bfd81846127e1565b90509392505050565b60006020820190508181036000830152612c1f8161289a565b9050919050565b60006020820190508181036000830152612c3f816128bd565b9050919050565b60006020820190508181036000830152612c5f816128e0565b9050919050565b60006020820190508181036000830152612c7f81612903565b9050919050565b60006020820190508181036000830152612c9f81612926565b9050919050565b60006020820190508181036000830152612cbf81612949565b9050919050565b60006020820190508181036000830152612cdf8161296c565b9050919050565b60006020820190508181036000830152612cff8161298f565b9050919050565b60006020820190508181036000830152612d1f816129b2565b9050919050565b60006020820190508181036000830152612d3f816129d5565b9050919050565b60006020820190508181036000830152612d5f816129f8565b9050919050565b60006020820190508181036000830152612d7f81612a1b565b9050919050565b6000602082019050612d9b6000830184612a4d565b92915050565b6000606082019050612db66000830186612a4d565b8181036020830152612dc8818561281a565b90508181036040830152612ddc818461281a565b9050949350505050565b6000604082019050612dfb6000830185612a4d565b612e086020830184612a4d565b9392505050565b6000612e19612e2a565b9050612e2582826130b2565b919050565b6000604051905090565b600067ffffffffffffffff821115612e4f57612e4e61318a565b5b602082029050602081019050919050565b600067ffffffffffffffff821115612e7b57612e7a61318a565b5b602082029050602081019050919050565b600067ffffffffffffffff821115612ea757612ea661318a565b5b612eb0826131db565b9050602081019050919050565b600067ffffffffffffffff821115612ed857612ed761318a565b5b612ee1826131db565b9050602081019050919050565b6000819050602082019050919050565b60008190508160005260206000209050919050565b600081519050919050565b600081519050919050565b600081519050919050565b6000602082019050919050565b600082825260208201905092915050565b600082825260208201905092915050565b600082825260208201905092915050565b6000612f7f82613034565b9150612f8a83613034565b9250827fffffffffffffffffffffffffffffffffffffffffffffffffffffffffffffffff03821115612fbf57612fbe61312c565b5b828201905092915050565b6000612fd582613014565b9050919050565b60008115159050919050565b60007fffffffff0000000000000000000000000000000000000000000000000000000082169050919050565b600073ffffffffffffffffffffffffffffffffffffffff82169050919050565b6000819050919050565b82818337600083830152505050565b60005b8381101561306b578082015181840152602081019050613050565b8381111561307a576000848401525b50505050565b6000600282049050600182168061309857607f821691505b602082108114156130ac576130ab61315b565b5b50919050565b6130bb826131db565b810181811067ffffffffffffffff821117156130da576130d961318a565b5b80604052505050565b60006130ee82613034565b91507fffffffffffffffffffffffffffffffffffffffffffffffffffffffffffffffff8214156131215761312061312c565b5b600182019050919050565b7f4e487b7100000000000000000000000000000000000000000000000000000000600052601160045260246000fd5b7f4e487b7100000000000000000000000000000000000000000000000000000000600052602260045260246000fd5b7f4e487b7100000000000000000000000000000000000000000000000000000000600052604160045260246000fd5b600060033d11156131d85760046000803e6131d56000516131ec565b90505b90565b6000601f19601f8301169050919050565b60008160e01c9050919050565b7f455243313135353a207472616e7366657220746f206e6f6e204552433131353560008201527f526563656976657220696d706c656d656e746572000000000000000000000000602082015250565b7f455243313135353a2063616c6c6572206973206e6f7420746f6b656e206f776e60008201527f6572206e6f7220617070726f7665640000000000000000000000000000000000602082015250565b7f455243313135353a204552433131353552656365697665722072656a6563746560008201527f6420746f6b656e73000000000000000000000000000000000000000000000000602082015250565b7f4f776e61626c653a206e6577206f776e657220697320746865207a65726f206160008201527f6464726573730000000000000000000000000000000000000000000000000000602082015250565b7f455243313135353a2061646472657373207a65726f206973206e6f742061207660008201527f616c6964206f776e657200000000000000000000000000000000000000000000602082015250565b7f455243313135353a207472616e7366657220746f20746865207a65726f20616460008201527f6472657373000000000000000000000000000000000000000000000000000000602082015250565b7f455243313135353a20696e73756666696369656e742062616c616e636520666f60008201527f72207472616e7366657200000000000000000000000000000000000000000000602082015250565b7f4f776e61626c653a2063616c6c6572206973206e6f7420746865206f776e6572600082015250565b7f455243313135353a2073657474696e6720617070726f76616c2073746174757360008201527f20666f722073656c660000000000000000000000000000000000000000000000602082015250565b7f455243313135353a206163636f756e747320616e6420696473206c656e67746860008201527f206d69736d617463680000000000000000000000000000000000000000000000602082015250565b7f455243313135353a2069647320616e6420616d6f756e7473206c656e6774682060008201527f6d69736d61746368000000000000000000000000000000000000000000000000602082015250565b7f455243313135353a206d696e7420746f20746865207a65726f2061646472657360008201527f7300000000000000000000000000000000000000000000000000000000000000602082015250565b600060443d10156135975761361a565b61359f612e2a565b60043d036004823e80513d602482011167ffffffffffffffff821117156135c757505061361a565b808201805167ffffffffffffffff8111156135e5575050505061361a565b80602083010160043d03850181111561360257505050505061361a565b613611826020018501866130b2565b82955050505050505b90565b61362681612fca565b811461363157600080fd5b50565b61363d81612fdc565b811461364857600080fd5b50565b61365481612fe8565b811461365f57600080fd5b50565b61366b81613034565b811461367657600080fd5b5056fea26469706673582212202f1dbc32c33fdb48961f2dc95a909030aeba55cd953170b18fe80ee57006ae9964736f6c63430008010033",
  "linkReferences": {},
  "deployedLinkReferences": {}
}