{
  "_format": "hh-sol-artifact-1",
  "contractName": "CharityRewards",
  "sourceName": "Contracts/CharityRewards.sol",
  "abi": [
    {
      "inputs": [
        {
          "internalType": "address",
          "name": "_deployer",
          "type": "address"
        }
      ],
      "stateMutability": "nonpayable",
      "type": "constructor"
    },
    {
      "anonymous": false,
      "inputs": [
        {
          "indexed": false,
          "internalType": "uint256",
          "name": "tokenId",
          "type": "uint256"
        },
        {
          "indexed": false,
          "internalType": "string",
          "name": "tokenName",
          "type": "string"
        },
        {
          "indexed": false,
          "internalType": "string",
          "name": "tokenUri",
          "type": "string"
        }
      ],
      "name": "Added",
      "type": "event"
    },
    {
      "anonymous": false,
      "inputs": [
        {
          "indexed": true,
          "internalType": "address",
          "name": "account",
          "type": "address"
        },
        {
          "indexed": true,
          "internalType": "address",
          "name": "operator",
          "type": "address"
        },
        {
          "indexed": false,
          "internalType": "bool",
          "name": "approved",
          "type": "bool"
        }
      ],
      "name": "ApprovalForAll",
      "type": "event"
    },
    {
      "anonymous": false,
      "inputs": [
        {
          "indexed": true,
          "internalType": "address",
          "name": "previousOwner",
          "type": "address"
        },
        {
          "indexed": true,
          "internalType": "address",
          "name": "newOwner",
          "type": "address"
        }
      ],
      "name": "OwnershipTransferred",
      "type": "event"
    },
    {
      "anonymous": false,
      "inputs": [
        {
          "indexed": true,
          "internalType": "address",
          "name": "operator",
          "type": "address"
        },
        {
          "indexed": true,
          "internalType": "address",
          "name": "from",
          "type": "address"
        },
        {
          "indexed": true,
          "internalType": "address",
          "name": "to",
          "type": "address"
        },
        {
          "indexed": false,
          "internalType": "uint256[]",
          "name": "ids",
          "type": "uint256[]"
        },
        {
          "indexed": false,
          "internalType": "uint256[]",
          "name": "values",
          "type": "uint256[]"
        }
      ],
      "name": "TransferBatch",
      "type": "event"
    },
    {
      "anonymous": false,
      "inputs": [
        {
          "indexed": true,
          "internalType": "address",
          "name": "operator",
          "type": "address"
        },
        {
          "indexed": true,
          "internalType": "address",
          "name": "from",
          "type": "address"
        },
        {
          "indexed": true,
          "internalType": "address",
          "name": "to",
          "type": "address"
        },
        {
          "indexed": false,
          "internalType": "uint256",
          "name": "id",
          "type": "uint256"
        },
        {
          "indexed": false,
          "internalType": "uint256",
          "name": "value",
          "type": "uint256"
        }
      ],
      "name": "TransferSingle",
      "type": "event"
    },
    {
      "anonymous": false,
      "inputs": [
        {
          "indexed": false,
          "internalType": "string",
          "name": "value",
          "type": "string"
        },
        {
          "indexed": true,
          "internalType": "uint256",
          "name": "id",
          "type": "uint256"
        }
      ],
      "name": "URI",
      "type": "event"
    },
    {
      "inputs": [
        {
          "internalType": "string",
          "name": "_tokenName",
          "type": "string"
        },
        {
          "internalType": "string",
          "name": "_tokenUri",
          "type": "string"
        }
      ],
      "name": "addToken",
      "outputs": [],
      "stateMutability": "nonpayable",
      "type": "function"
    },
    {
      "inputs": [
        {
          "internalType": "address",
          "name": "account",
          "type": "address"
        },
        {
          "internalType": "uint256",
          "name": "id",
          "type": "uint256"
        }
      ],
      "name": "balanceOf",
      "outputs": [
        {
          "internalType": "uint256",
          "name": "",
          "type": "uint256"
        }
      ],
      "stateMutability": "view",
      "type": "function"
    },
    {
      "inputs": [
        {
          "internalType": "address[]",
          "name": "accounts",
          "type": "address[]"
        },
        {
          "internalType": "uint256[]",
          "name": "ids",
          "type": "uint256[]"
        }
      ],
      "name": "balanceOfBatch",
      "outputs": [
        {
          "internalType": "uint256[]",
          "name": "",
          "type": "uint256[]"
        }
      ],
      "stateMutability": "view",
      "type": "function"
    },
    {
      "inputs": [],
      "name": "deployer",
      "outputs": [
        {
          "internalType": "address",
          "name": "",
          "type": "address"
        }
      ],
      "stateMutability": "view",
      "type": "function"
    },
    {
      "inputs": [
        {
          "internalType": "uint256",
          "name": "_tokenId",
          "type": "uint256"
        }
      ],
      "name": "getToken",
      "outputs": [
        {
          "internalType": "string",
          "name": "_name",
          "type": "string"
        },
        {
          "internalType": "string",
          "name": "_uri",
          "type": "string"
        }
      ],
      "stateMutability": "view",
      "type": "function"
    },
    {
      "inputs": [
        {
          "internalType": "address",
          "name": "account",
          "type": "address"
        },
        {
          "internalType": "address",
          "name": "operator",
          "type": "address"
        }
      ],
      "name": "isApprovedForAll",
      "outputs": [
        {
          "internalType": "bool",
          "name": "",
          "type": "bool"
        }
      ],
      "stateMutability": "view",
      "type": "function"
    },
    {
      "inputs": [
        {
          "internalType": "address",
          "name": "_to",
          "type": "address"
        },
        {
          "internalType": "uint256",
          "name": "_tokenId",
          "type": "uint256"
        },
        {
          "internalType": "uint256",
          "name": "_tokenAmount",
          "type": "uint256"
        }
      ],
      "name": "mint",
      "outputs": [],
      "stateMutability": "nonpayable",
      "type": "function"
    },
    {
      "inputs": [
        {
          "internalType": "address",
          "name": "_to",
          "type": "address"
        },
        {
          "internalType": "uint256[]",
          "name": "tokensIds",
          "type": "uint256[]"
        },
        {
          "internalType": "uint256[]",
          "name": "tokensAmounts",
          "type": "uint256[]"
        }
      ],
      "name": "mintBatch",
      "outputs": [],
      "stateMutability": "nonpayable",
      "type": "function"
    },
    {
      "inputs": [],
      "name": "owner",
      "outputs": [
        {
          "internalType": "address",
          "name": "",
          "type": "address"
        }
      ],
      "stateMutability": "view",
      "type": "function"
    },
    {
      "inputs": [],
      "name": "renounceOwnership",
      "outputs": [],
      "stateMutability": "nonpayable",
      "type": "function"
    },
    {
      "inputs": [
        {
          "internalType": "address",
          "name": "from",
          "type": "address"
        },
        {
          "internalType": "address",
          "name": "to",
          "type": "address"
        },
        {
          "internalType": "uint256[]",
          "name": "ids",
          "type": "uint256[]"
        },
        {
          "internalType": "uint256[]",
          "name": "amounts",
          "type": "uint256[]"
        },
        {
          "internalType": "bytes",
          "name": "data",
          "type": "bytes"
        }
      ],
      "name": "safeBatchTransferFrom",
      "outputs": [],
      "stateMutability": "nonpayable",
      "type": "function"
    },
    {
      "inputs": [
        {
          "internalType": "address",
          "name": "from",
          "type": "address"
        },
        {
          "internalType": "address",
          "name": "to",
          "type": "address"
        },
        {
          "internalType": "uint256",
          "name": "id",
          "type": "uint256"
        },
        {
          "internalType": "uint256",
          "name": "amount",
          "type": "uint256"
        },
        {
          "internalType": "bytes",
          "name": "data",
          "type": "bytes"
        }
      ],
      "name": "safeTransferFrom",
      "outputs": [],
      "stateMutability": "nonpayable",
      "type": "function"
    },
    {
      "inputs": [
        {
          "internalType": "address",
          "name": "operator",
          "type": "address"
        },
        {
          "internalType": "bool",
          "name": "approved",
          "type": "bool"
        }
      ],
      "name": "setApprovalForAll",
      "outputs": [],
      "stateMutability": "nonpayable",
      "type": "function"
    },
    {
      "inputs": [
        {
          "internalType": "bytes4",
          "name": "interfaceId",
          "type": "bytes4"
        }
      ],
      "name": "supportsInterface",
      "outputs": [
        {
          "internalType": "bool",
          "name": "",
          "type": "bool"
        }
      ],
      "stateMutability": "view",
      "type": "function"
    },
    {
      "inputs": [
        {
          "internalType": "uint256",
          "name": "",
          "type": "uint256"
        }
      ],
      "name": "tokens",
      "outputs": [
        {
          "internalType": "string",
          "name": "name",
          "type": "string"
        },
        {
          "internalType": "string",
          "name": "uri",
          "type": "string"
        }
      ],
      "stateMutability": "view",
      "type": "function"
    },
    {
      "inputs": [
        {
          "internalType": "address",
          "name": "newOwner",
          "type": "address"
        }
      ],
      "name": "transferOwnership",
      "outputs": [],
      "stateMutability": "nonpayable",
      "type": "function"
    },
    {
      "inputs": [
        {
          "internalType": "uint256",
          "name": "",
          "type": "uint256"
        }
      ],
      "name": "uri",
      "outputs": [
        {
          "internalType": "string",
          "name": "",
          "type": "string"
        }
      ],
      "stateMutability": "view",
      "type": "function"
    }
  ],
  "bytecode": "0x608060405260006005553480156200001657600080fd5b5060405162003b7e38038062003b7e83398181016040528101906200003c919062000277565b604051806020016040528060008152506200005d81620000c660201b60201c565b506200007e62000072620000e260201b60201c565b620000ea60201b60201c565b80600460006101000a81548173ffffffffffffffffffffffffffffffffffffffff021916908373ffffffffffffffffffffffffffffffffffffffff1602179055505062000356565b8060029080519060200190620000de929190620001b0565b5050565b600033905090565b6000600360009054906101000a900473ffffffffffffffffffffffffffffffffffffffff16905081600360006101000a81548173ffffffffffffffffffffffffffffffffffffffff021916908373ffffffffffffffffffffffffffffffffffffffff1602179055508173ffffffffffffffffffffffffffffffffffffffff168173ffffffffffffffffffffffffffffffffffffffff167f8be0079c531659141344cd1fd0a4f28419497f9722a3daafe3b4186f6b6457e060405160405180910390a35050565b828054620001be90620002d7565b90600052602060002090601f016020900481019282620001e257600085556200022e565b82601f10620001fd57805160ff19168380011785556200022e565b828001600101855582156200022e579182015b828111156200022d57825182559160200191906001019062000210565b5b5090506200023d919062000241565b5090565b5b808211156200025c57600081600090555060010162000242565b5090565b60008151905062000271816200033c565b92915050565b6000602082840312156200028a57600080fd5b60006200029a8482850162000260565b91505092915050565b6000620002b082620002b7565b9050919050565b600073ffffffffffffffffffffffffffffffffffffffff82169050919050565b60006002820490506001821680620002f057607f821691505b602082108114156200030757620003066200030d565b5b50919050565b7f4e487b7100000000000000000000000000000000000000000000000000000000600052602260045260246000fd5b6200034781620002a3565b81146200035357600080fd5b50565b61381880620003666000396000f3fe608060405234801561001057600080fd5b506004361061010a5760003560e01c8063715018a6116100a2578063d81d0a1511610071578063d81d0a15146102b6578063e4b50cb8146102d2578063e985e9c514610303578063f242432a14610333578063f2fde38b1461034f5761010a565b8063715018a6146102545780638da5cb5b1461025e578063a22cb4651461027c578063d5f39488146102985761010a565b80632eb2c2d6116100de5780632eb2c2d6146101bb5780634e1273f4146101d75780634f64b2be146102075780635192a8f7146102385761010a565b8062fdd58e1461010f57806301ffc9a71461013f5780630e89341c1461016f578063156e29f61461019f575b600080fd5b6101296004803603810190610124919061260d565b61036b565b6040516101369190612ea0565b60405180910390f35b61015960048036038101906101549190612704565b610434565b6040516101669190612c8c565b60405180910390f35b610189600480360381019061018491906127c2565b610516565b6040516101969190612ca7565b60405180910390f35b6101b960048036038101906101b49190612649565b6105aa565b005b6101d560048036038101906101d09190612404565b6105ca565b005b6101f160048036038101906101ec9190612698565b61066b565b6040516101fe9190612c33565b60405180910390f35b610221600480360381019061021c91906127c2565b61081c565b60405161022f929190612cc9565b60405180910390f35b610252600480360381019061024d9190612756565b610950565b005b61025c610ace565b005b610266610ae2565b6040516102739190612b56565b60405180910390f35b610296600480360381019061029191906125d1565b610b0c565b005b6102a0610b22565b6040516102ad9190612b56565b60405180910390f35b6102d060048036038101906102cb9190612552565b610b48565b005b6102ec60048036038101906102e791906127c2565b610b68565b6040516102fa929190612cc9565b60405180910390f35b61031d600480360381019061031891906123c8565b610cb8565b60405161032a9190612c8c565b60405180910390f35b61034d600480360381019061034891906124c3565b610d4c565b005b6103696004803603810190610364919061239f565b610ded565b005b60008073ffffffffffffffffffffffffffffffffffffffff168373ffffffffffffffffffffffffffffffffffffffff1614156103dc576040517f08c379a00000000000000000000000000000000000000000000000000000000081526004016103d390612d80565b60405180910390fd5b60008083815260200190815260200160002060008473ffffffffffffffffffffffffffffffffffffffff1673ffffffffffffffffffffffffffffffffffffffff16815260200190815260200160002054905092915050565b60007fd9b67a26000000000000000000000000000000000000000000000000000000007bffffffffffffffffffffffffffffffffffffffffffffffffffffffff1916827bffffffffffffffffffffffffffffffffffffffffffffffffffffffff191614806104ff57507f0e89341c000000000000000000000000000000000000000000000000000000007bffffffffffffffffffffffffffffffffffffffffffffffffffffffff1916827bffffffffffffffffffffffffffffffffffffffffffffffffffffffff1916145b8061050f575061050e82610e71565b5b9050919050565b6060600280546105259061319a565b80601f01602080910402602001604051908101604052809291908181526020018280546105519061319a565b801561059e5780601f106105735761010080835404028352916020019161059e565b820191906000526020600020905b81548152906001019060200180831161058157829003601f168201915b50505050509050919050565b6105c583838360405180602001604052806000815250610edb565b505050565b6105d261108c565b73ffffffffffffffffffffffffffffffffffffffff168573ffffffffffffffffffffffffffffffffffffffff16148061061857506106178561061261108c565b610cb8565b5b610657576040517f08c379a000000000000000000000000000000000000000000000000000000000815260040161064e90612d20565b60405180910390fd5b6106648585858585611094565b5050505050565b606081518351146106b1576040517f08c379a00000000000000000000000000000000000000000000000000000000081526004016106a890612e40565b60405180910390fd5b6000835167ffffffffffffffff8111156106f4577f4e487b7100000000000000000000000000000000000000000000000000000000600052604160045260246000fd5b6040519080825280602002602001820160405280156107225781602001602082028036833780820191505090505b50905060005b8451811015610811576107bb85828151811061076d577f4e487b7100000000000000000000000000000000000000000000000000000000600052603260045260246000fd5b60200260200101518583815181106107ae577f4e487b7100000000000000000000000000000000000000000000000000000000600052603260045260246000fd5b602002602001015161036b565b8282815181106107f4577f4e487b7100000000000000000000000000000000000000000000000000000000600052603260045260246000fd5b6020026020010181815250508061080a906131fd565b9050610728565b508091505092915050565b600660205280600052604060002060009150905080600001805461083f9061319a565b80601f016020809104026020016040519081016040528092919081815260200182805461086b9061319a565b80156108b85780601f1061088d576101008083540402835291602001916108b8565b820191906000526020600020905b81548152906001019060200180831161089b57829003601f168201915b5050505050908060010180546108cd9061319a565b80601f01602080910402602001604051908101604052809291908181526020018280546108f99061319a565b80156109465780601f1061091b57610100808354040283529160200191610946565b820191906000526020600020905b81548152906001019060200180831161092957829003601f168201915b5050505050905082565b600460009054906101000a900473ffffffffffffffffffffffffffffffffffffffff1673ffffffffffffffffffffffffffffffffffffffff163373ffffffffffffffffffffffffffffffffffffffff16146109e0576040517f08c379a00000000000000000000000000000000000000000000000000000000081526004016109d790612e00565b60405180910390fd5b6040518060400160405280838152602001828152506006600060055481526020019081526020016000206000820151816000019080519060200190610a26929190612097565b506020820151816001019080519060200190610a43929190612097565b509050507f064380938bf3e3a2f9fc9392be0e05db59af7785fc0988c19ffdb2c3c2a8bb20600554600660006005548152602001908152602001600020600001600660006005548152602001908152602001600020600101604051610aaa93929190612ebb565b60405180910390a160056000815480929190610ac5906131fd565b91905055505050565b610ad6611402565b610ae06000611480565b565b6000600360009054906101000a900473ffffffffffffffffffffffffffffffffffffffff16905090565b610b1e610b1761108c565b8383611546565b5050565b600460009054906101000a900473ffffffffffffffffffffffffffffffffffffffff1681565b610b63838383604051806020016040528060008152506116b3565b505050565b6060806006600084815260200190815260200160002060000160066000858152602001908152602001600020600101818054610ba39061319a565b80601f0160208091040260200160405190810160405280929190818152602001828054610bcf9061319a565b8015610c1c5780601f10610bf157610100808354040283529160200191610c1c565b820191906000526020600020905b815481529060010190602001808311610bff57829003601f168201915b50505050509150808054610c2f9061319a565b80601f0160208091040260200160405190810160405280929190818152602001828054610c5b9061319a565b8015610ca85780601f10610c7d57610100808354040283529160200191610ca8565b820191906000526020600020905b815481529060010190602001808311610c8b57829003601f168201915b5050505050905091509150915091565b6000600160008473ffffffffffffffffffffffffffffffffffffffff1673ffffffffffffffffffffffffffffffffffffffff16815260200190815260200160002060008373ffffffffffffffffffffffffffffffffffffffff1673ffffffffffffffffffffffffffffffffffffffff16815260200190815260200160002060009054906101000a900460ff16905092915050565b610d5461108c565b73ffffffffffffffffffffffffffffffffffffffff168573ffffffffffffffffffffffffffffffffffffffff161480610d9a5750610d9985610d9461108c565b610cb8565b5b610dd9576040517f08c379a0000000000000000000000000000000000000000000000000000000008152600401610dd090612d20565b60405180910390fd5b610de6858585858561192c565b5050505050565b610df5611402565b600073ffffffffffffffffffffffffffffffffffffffff168173ffffffffffffffffffffffffffffffffffffffff161415610e65576040517f08c379a0000000000000000000000000000000000000000000000000000000008152600401610e5c90612d60565b60405180910390fd5b610e6e81611480565b50565b60007f01ffc9a7000000000000000000000000000000000000000000000000000000007bffffffffffffffffffffffffffffffffffffffffffffffffffffffff1916827bffffffffffffffffffffffffffffffffffffffffffffffffffffffff1916149050919050565b600073ffffffffffffffffffffffffffffffffffffffff168473ffffffffffffffffffffffffffffffffffffffff161415610f4b576040517f08c379a0000000000000000000000000000000000000000000000000000000008152600401610f4290612e80565b60405180910390fd5b6000610f5561108c565b90506000610f6285611bc8565b90506000610f6f85611bc8565b9050610f8083600089858589611c8e565b8460008088815260200190815260200160002060008973ffffffffffffffffffffffffffffffffffffffff1673ffffffffffffffffffffffffffffffffffffffff1681526020019081526020016000206000828254610fdf919061308e565b925050819055508673ffffffffffffffffffffffffffffffffffffffff16600073ffffffffffffffffffffffffffffffffffffffff168473ffffffffffffffffffffffffffffffffffffffff167fc3d58168c5ae7397731d063d5bbf3d657854427343f4c083240f7aacaa2d0f62898960405161105d929190612f00565b60405180910390a461107483600089858589611c9e565b61108383600089898989611ca6565b50505050505050565b600033905090565b81518351146110d8576040517f08c379a00000000000000000000000000000000000000000000000000000000081526004016110cf90612e60565b60405180910390fd5b600073ffffffffffffffffffffffffffffffffffffffff168473ffffffffffffffffffffffffffffffffffffffff161415611148576040517f08c379a000000000000000000000000000000000000000000000000000000000815260040161113f90612da0565b60405180910390fd5b600061115261108c565b9050611162818787878787611c8e565b60005b845181101561135f5760008582815181106111a9577f4e487b7100000000000000000000000000000000000000000000000000000000600052603260045260246000fd5b6020026020010151905060008583815181106111ee577f4e487b7100000000000000000000000000000000000000000000000000000000600052603260045260246000fd5b60200260200101519050600080600084815260200190815260200160002060008b73ffffffffffffffffffffffffffffffffffffffff1673ffffffffffffffffffffffffffffffffffffffff1681526020019081526020016000205490508181101561128f576040517f08c379a000000000000000000000000000000000000000000000000000000000815260040161128690612dc0565b60405180910390fd5b81810360008085815260200190815260200160002060008c73ffffffffffffffffffffffffffffffffffffffff1673ffffffffffffffffffffffffffffffffffffffff168152602001908152602001600020819055508160008085815260200190815260200160002060008b73ffffffffffffffffffffffffffffffffffffffff1673ffffffffffffffffffffffffffffffffffffffff1681526020019081526020016000206000828254611344919061308e565b9250508190555050505080611358906131fd565b9050611165565b508473ffffffffffffffffffffffffffffffffffffffff168673ffffffffffffffffffffffffffffffffffffffff168273ffffffffffffffffffffffffffffffffffffffff167f4a39dc06d4c0dbc64b70af90fd698a233a518aa5d07e595d983b8c0526c8f7fb87876040516113d6929190612c55565b60405180910390a46113ec818787878787611c9e565b6113fa818787878787611e8d565b505050505050565b61140a61108c565b73ffffffffffffffffffffffffffffffffffffffff16611428610ae2565b73ffffffffffffffffffffffffffffffffffffffff161461147e576040517f08c379a000000000000000000000000000000000000000000000000000000000815260040161147590612de0565b60405180910390fd5b565b6000600360009054906101000a900473ffffffffffffffffffffffffffffffffffffffff16905081600360006101000a81548173ffffffffffffffffffffffffffffffffffffffff021916908373ffffffffffffffffffffffffffffffffffffffff1602179055508173ffffffffffffffffffffffffffffffffffffffff168173ffffffffffffffffffffffffffffffffffffffff167f8be0079c531659141344cd1fd0a4f28419497f9722a3daafe3b4186f6b6457e060405160405180910390a35050565b8173ffffffffffffffffffffffffffffffffffffffff168373ffffffffffffffffffffffffffffffffffffffff1614156115b5576040517f08c379a00000000000000000000000000000000000000000000000000000000081526004016115ac90612e20565b60405180910390fd5b80600160008573ffffffffffffffffffffffffffffffffffffffff1673ffffffffffffffffffffffffffffffffffffffff16815260200190815260200160002060008473ffffffffffffffffffffffffffffffffffffffff1673ffffffffffffffffffffffffffffffffffffffff16815260200190815260200160002060006101000a81548160ff0219169083151502179055508173ffffffffffffffffffffffffffffffffffffffff168373ffffffffffffffffffffffffffffffffffffffff167f17307eab39ab6107e8899845ad3d59bd9653f200f220920489ca2b5937696c31836040516116a69190612c8c565b60405180910390a3505050565b600073ffffffffffffffffffffffffffffffffffffffff168473ffffffffffffffffffffffffffffffffffffffff161415611723576040517f08c379a000000000000000000000000000000000000000000000000000000000815260040161171a90612e80565b60405180910390fd5b8151835114611767576040517f08c379a000000000000000000000000000000000000000000000000000000000815260040161175e90612e60565b60405180910390fd5b600061177161108c565b905061178281600087878787611c8e565b60005b8451811015611887578381815181106117c7577f4e487b7100000000000000000000000000000000000000000000000000000000600052603260045260246000fd5b602002602001015160008087848151811061180b577f4e487b7100000000000000000000000000000000000000000000000000000000600052603260045260246000fd5b6020026020010151815260200190815260200160002060008873ffffffffffffffffffffffffffffffffffffffff1673ffffffffffffffffffffffffffffffffffffffff168152602001908152602001600020600082825461186d919061308e565b92505081905550808061187f906131fd565b915050611785565b508473ffffffffffffffffffffffffffffffffffffffff16600073ffffffffffffffffffffffffffffffffffffffff168273ffffffffffffffffffffffffffffffffffffffff167f4a39dc06d4c0dbc64b70af90fd698a233a518aa5d07e595d983b8c0526c8f7fb87876040516118ff929190612c55565b60405180910390a461191681600087878787611c9e565b61192581600087878787611e8d565b5050505050565b600073ffffffffffffffffffffffffffffffffffffffff168473ffffffffffffffffffffffffffffffffffffffff16141561199c576040517f08c379a000000000000000000000000000000000000000000000000000000000815260040161199390612da0565b60405180910390fd5b60006119a661108c565b905060006119b385611bc8565b905060006119c085611bc8565b90506119d0838989858589611c8e565b600080600088815260200190815260200160002060008a73ffffffffffffffffffffffffffffffffffffffff1673ffffffffffffffffffffffffffffffffffffffff16815260200190815260200160002054905085811015611a67576040517f08c379a0000000000000000000000000000000000000000000000000000000008152600401611a5e90612dc0565b60405180910390fd5b85810360008089815260200190815260200160002060008b73ffffffffffffffffffffffffffffffffffffffff1673ffffffffffffffffffffffffffffffffffffffff168152602001908152602001600020819055508560008089815260200190815260200160002060008a73ffffffffffffffffffffffffffffffffffffffff1673ffffffffffffffffffffffffffffffffffffffff1681526020019081526020016000206000828254611b1c919061308e565b925050819055508773ffffffffffffffffffffffffffffffffffffffff168973ffffffffffffffffffffffffffffffffffffffff168573ffffffffffffffffffffffffffffffffffffffff167fc3d58168c5ae7397731d063d5bbf3d657854427343f4c083240f7aacaa2d0f628a8a604051611b99929190612f00565b60405180910390a4611baf848a8a86868a611c9e565b611bbd848a8a8a8a8a611ca6565b505050505050505050565b60606000600167ffffffffffffffff811115611c0d577f4e487b7100000000000000000000000000000000000000000000000000000000600052604160045260246000fd5b604051908082528060200260200182016040528015611c3b5781602001602082028036833780820191505090505b5090508281600081518110611c79577f4e487b7100000000000000000000000000000000000000000000000000000000600052603260045260246000fd5b60200260200101818152505080915050919050565b611c96611402565b505050505050565b505050505050565b611cc58473ffffffffffffffffffffffffffffffffffffffff16612074565b15611e85578373ffffffffffffffffffffffffffffffffffffffff1663f23a6e6187878686866040518663ffffffff1660e01b8152600401611d0b959493929190612bd9565b602060405180830381600087803b158015611d2557600080fd5b505af1925050508015611d5657506040513d601f19601f82011682018060405250810190611d53919061272d565b60015b611dfc57611d626132d3565b806308c379a01415611dbf5750611d776136f0565b80611d825750611dc1565b806040517f08c379a0000000000000000000000000000000000000000000000000000000008152600401611db69190612ca7565b60405180910390fd5b505b6040517f08c379a0000000000000000000000000000000000000000000000000000000008152600401611df390612d00565b60405180910390fd5b63f23a6e6160e01b7bffffffffffffffffffffffffffffffffffffffffffffffffffffffff1916817bffffffffffffffffffffffffffffffffffffffffffffffffffffffff191614611e83576040517f08c379a0000000000000000000000000000000000000000000000000000000008152600401611e7a90612d40565b60405180910390fd5b505b505050505050565b611eac8473ffffffffffffffffffffffffffffffffffffffff16612074565b1561206c578373ffffffffffffffffffffffffffffffffffffffff1663bc197c8187878686866040518663ffffffff1660e01b8152600401611ef2959493929190612b71565b602060405180830381600087803b158015611f0c57600080fd5b505af1925050508015611f3d57506040513d601f19601f82011682018060405250810190611f3a919061272d565b60015b611fe357611f496132d3565b806308c379a01415611fa65750611f5e6136f0565b80611f695750611fa8565b806040517f08c379a0000000000000000000000000000000000000000000000000000000008152600401611f9d9190612ca7565b60405180910390fd5b505b6040517f08c379a0000000000000000000000000000000000000000000000000000000008152600401611fda90612d00565b60405180910390fd5b63bc197c8160e01b7bffffffffffffffffffffffffffffffffffffffffffffffffffffffff1916817bffffffffffffffffffffffffffffffffffffffffffffffffffffffff19161461206a576040517f08c379a000000000000000000000000000000000000000000000000000000000815260040161206190612d40565b60405180910390fd5b505b505050505050565b6000808273ffffffffffffffffffffffffffffffffffffffff163b119050919050565b8280546120a39061319a565b90600052602060002090601f0160209004810192826120c5576000855561210c565b82601f106120de57805160ff191683800117855561210c565b8280016001018555821561210c579182015b8281111561210b5782518255916020019190600101906120f0565b5b509050612119919061211d565b5090565b5b8082111561213657600081600090555060010161211e565b5090565b600061214d61214884612f4e565b612f29565b9050808382526020820190508285602086028201111561216c57600080fd5b60005b8581101561219c5781612182888261228e565b84526020840193506020830192505060018101905061216f565b5050509392505050565b60006121b96121b484612f7a565b612f29565b905080838252602082019050828560208602820111156121d857600080fd5b60005b8581101561220857816121ee888261238a565b8452602084019350602083019250506001810190506121db565b5050509392505050565b600061222561222084612fa6565b612f29565b90508281526020810184848401111561223d57600080fd5b612248848285613158565b509392505050565b600061226361225e84612fd7565b612f29565b90508281526020810184848401111561227b57600080fd5b612286848285613158565b509392505050565b60008135905061229d81613786565b92915050565b600082601f8301126122b457600080fd5b81356122c484826020860161213a565b91505092915050565b600082601f8301126122de57600080fd5b81356122ee8482602086016121a6565b91505092915050565b6000813590506123068161379d565b92915050565b60008135905061231b816137b4565b92915050565b600081519050612330816137b4565b92915050565b600082601f83011261234757600080fd5b8135612357848260208601612212565b91505092915050565b600082601f83011261237157600080fd5b8135612381848260208601612250565b91505092915050565b600081359050612399816137cb565b92915050565b6000602082840312156123b157600080fd5b60006123bf8482850161228e565b91505092915050565b600080604083850312156123db57600080fd5b60006123e98582860161228e565b92505060206123fa8582860161228e565b9150509250929050565b600080600080600060a0868803121561241c57600080fd5b600061242a8882890161228e565b955050602061243b8882890161228e565b945050604086013567ffffffffffffffff81111561245857600080fd5b612464888289016122cd565b935050606086013567ffffffffffffffff81111561248157600080fd5b61248d888289016122cd565b925050608086013567ffffffffffffffff8111156124aa57600080fd5b6124b688828901612336565b9150509295509295909350565b600080600080600060a086880312156124db57600080fd5b60006124e98882890161228e565b95505060206124fa8882890161228e565b945050604061250b8882890161238a565b935050606061251c8882890161238a565b925050608086013567ffffffffffffffff81111561253957600080fd5b61254588828901612336565b9150509295509295909350565b60008060006060848603121561256757600080fd5b60006125758682870161228e565b935050602084013567ffffffffffffffff81111561259257600080fd5b61259e868287016122cd565b925050604084013567ffffffffffffffff8111156125bb57600080fd5b6125c7868287016122cd565b9150509250925092565b600080604083850312156125e457600080fd5b60006125f28582860161228e565b9250506020612603858286016122f7565b9150509250929050565b6000806040838503121561262057600080fd5b600061262e8582860161228e565b925050602061263f8582860161238a565b9150509250929050565b60008060006060848603121561265e57600080fd5b600061266c8682870161228e565b935050602061267d8682870161238a565b925050604061268e8682870161238a565b9150509250925092565b600080604083850312156126ab57600080fd5b600083013567ffffffffffffffff8111156126c557600080fd5b6126d1858286016122a3565b925050602083013567ffffffffffffffff8111156126ee57600080fd5b6126fa858286016122cd565b9150509250929050565b60006020828403121561271657600080fd5b60006127248482850161230c565b91505092915050565b60006020828403121561273f57600080fd5b600061274d84828501612321565b91505092915050565b6000806040838503121561276957600080fd5b600083013567ffffffffffffffff81111561278357600080fd5b61278f85828601612360565b925050602083013567ffffffffffffffff8111156127ac57600080fd5b6127b885828601612360565b9150509250929050565b6000602082840312156127d457600080fd5b60006127e28482850161238a565b91505092915050565b60006127f78383612b38565b60208301905092915050565b61280c816130e4565b82525050565b600061281d8261302d565b612827818561305b565b935061283283613008565b8060005b8381101561286357815161284a88826127eb565b97506128558361304e565b925050600181019050612836565b5085935050505092915050565b612879816130f6565b82525050565b600061288a82613038565b612894818561306c565b93506128a4818560208601613167565b6128ad816132f5565b840191505092915050565b60006128c382613043565b6128cd818561307d565b93506128dd818560208601613167565b6128e6816132f5565b840191505092915050565b600081546128fe8161319a565b612908818661307d565b94506001821660008114612923576001811461293557612968565b60ff1983168652602086019350612968565b61293e85613018565b60005b8381101561296057815481890152600182019150602081019050612941565b808801955050505b50505092915050565b600061297e60348361307d565b915061298982613313565b604082019050919050565b60006129a1602f8361307d565b91506129ac82613362565b604082019050919050565b60006129c460288361307d565b91506129cf826133b1565b604082019050919050565b60006129e760268361307d565b91506129f282613400565b604082019050919050565b6000612a0a602a8361307d565b9150612a158261344f565b604082019050919050565b6000612a2d60258361307d565b9150612a388261349e565b604082019050919050565b6000612a50602a8361307d565b9150612a5b826134ed565b604082019050919050565b6000612a7360208361307d565b9150612a7e8261353c565b602082019050919050565b6000612a9660228361307d565b9150612aa182613565565b604082019050919050565b6000612ab960298361307d565b9150612ac4826135b4565b604082019050919050565b6000612adc60298361307d565b9150612ae782613603565b604082019050919050565b6000612aff60288361307d565b9150612b0a82613652565b604082019050919050565b6000612b2260218361307d565b9150612b2d826136a1565b604082019050919050565b612b418161314e565b82525050565b612b508161314e565b82525050565b6000602082019050612b6b6000830184612803565b92915050565b600060a082019050612b866000830188612803565b612b936020830187612803565b8181036040830152612ba58186612812565b90508181036060830152612bb98185612812565b90508181036080830152612bcd818461287f565b90509695505050505050565b600060a082019050612bee6000830188612803565b612bfb6020830187612803565b612c086040830186612b47565b612c156060830185612b47565b8181036080830152612c27818461287f565b90509695505050505050565b60006020820190508181036000830152612c4d8184612812565b905092915050565b60006040820190508181036000830152612c6f8185612812565b90508181036020830152612c838184612812565b90509392505050565b6000602082019050612ca16000830184612870565b92915050565b60006020820190508181036000830152612cc181846128b8565b905092915050565b60006040820190508181036000830152612ce381856128b8565b90508181036020830152612cf781846128b8565b90509392505050565b60006020820190508181036000830152612d1981612971565b9050919050565b60006020820190508181036000830152612d3981612994565b9050919050565b60006020820190508181036000830152612d59816129b7565b9050919050565b60006020820190508181036000830152612d79816129da565b9050919050565b60006020820190508181036000830152612d99816129fd565b9050919050565b60006020820190508181036000830152612db981612a20565b9050919050565b60006020820190508181036000830152612dd981612a43565b9050919050565b60006020820190508181036000830152612df981612a66565b9050919050565b60006020820190508181036000830152612e1981612a89565b9050919050565b60006020820190508181036000830152612e3981612aac565b9050919050565b60006020820190508181036000830152612e5981612acf565b9050919050565b60006020820190508181036000830152612e7981612af2565b9050919050565b60006020820190508181036000830152612e9981612b15565b9050919050565b6000602082019050612eb56000830184612b47565b92915050565b6000606082019050612ed06000830186612b47565b8181036020830152612ee281856128f1565b90508181036040830152612ef681846128f1565b9050949350505050565b6000604082019050612f156000830185612b47565b612f226020830184612b47565b9392505050565b6000612f33612f44565b9050612f3f82826131cc565b919050565b6000604051905090565b600067ffffffffffffffff821115612f6957612f686132a4565b5b602082029050602081019050919050565b600067ffffffffffffffff821115612f9557612f946132a4565b5b602082029050602081019050919050565b600067ffffffffffffffff821115612fc157612fc06132a4565b5b612fca826132f5565b9050602081019050919050565b600067ffffffffffffffff821115612ff257612ff16132a4565b5b612ffb826132f5565b9050602081019050919050565b6000819050602082019050919050565b60008190508160005260206000209050919050565b600081519050919050565b600081519050919050565b600081519050919050565b6000602082019050919050565b600082825260208201905092915050565b600082825260208201905092915050565b600082825260208201905092915050565b60006130998261314e565b91506130a48361314e565b9250827fffffffffffffffffffffffffffffffffffffffffffffffffffffffffffffffff038211156130d9576130d8613246565b5b828201905092915050565b60006130ef8261312e565b9050919050565b60008115159050919050565b60007fffffffff0000000000000000000000000000000000000000000000000000000082169050919050565b600073ffffffffffffffffffffffffffffffffffffffff82169050919050565b6000819050919050565b82818337600083830152505050565b60005b8381101561318557808201518184015260208101905061316a565b83811115613194576000848401525b50505050565b600060028204905060018216806131b257607f821691505b602082108114156131c6576131c5613275565b5b50919050565b6131d5826132f5565b810181811067ffffffffffffffff821117156131f4576131f36132a4565b5b80604052505050565b60006132088261314e565b91507fffffffffffffffffffffffffffffffffffffffffffffffffffffffffffffffff82141561323b5761323a613246565b5b600182019050919050565b7f4e487b7100000000000000000000000000000000000000000000000000000000600052601160045260246000fd5b7f4e487b7100000000000000000000000000000000000000000000000000000000600052602260045260246000fd5b7f4e487b7100000000000000000000000000000000000000000000000000000000600052604160045260246000fd5b600060033d11156132f25760046000803e6132ef600051613306565b90505b90565b6000601f19601f8301169050919050565b60008160e01c9050919050565b7f455243313135353a207472616e7366657220746f206e6f6e204552433131353560008201527f526563656976657220696d706c656d656e746572000000000000000000000000602082015250565b7f455243313135353a2063616c6c6572206973206e6f7420746f6b656e206f776e60008201527f6572206e6f7220617070726f7665640000000000000000000000000000000000602082015250565b7f455243313135353a204552433131353552656365697665722072656a6563746560008201527f6420746f6b656e73000000000000000000000000000000000000000000000000602082015250565b7f4f776e61626c653a206e6577206f776e657220697320746865207a65726f206160008201527f6464726573730000000000000000000000000000000000000000000000000000602082015250565b7f455243313135353a2061646472657373207a65726f206973206e6f742061207660008201527f616c6964206f776e657200000000000000000000000000000000000000000000602082015250565b7f455243313135353a207472616e7366657220746f20746865207a65726f20616460008201527f6472657373000000000000000000000000000000000000000000000000000000602082015250565b7f455243313135353a20696e73756666696369656e742062616c616e636520666f60008201527f72207472616e7366657200000000000000000000000000000000000000000000602082015250565b7f4f776e61626c653a2063616c6c6572206973206e6f7420746865206f776e6572600082015250565b7f4f726967696e616c206f776e6572206f6e6c792063616e2061646420746f6b6560008201527f6e73000000000000000000000000000000000000000000000000000000000000602082015250565b7f455243313135353a2073657474696e6720617070726f76616c2073746174757360008201527f20666f722073656c660000000000000000000000000000000000000000000000602082015250565b7f455243313135353a206163636f756e747320616e6420696473206c656e67746860008201527f206d69736d617463680000000000000000000000000000000000000000000000602082015250565b7f455243313135353a2069647320616e6420616d6f756e7473206c656e6774682060008201527f6d69736d61746368000000000000000000000000000000000000000000000000602082015250565b7f455243313135353a206d696e7420746f20746865207a65726f2061646472657360008201527f7300000000000000000000000000000000000000000000000000000000000000602082015250565b600060443d101561370057613783565b613708612f44565b60043d036004823e80513d602482011167ffffffffffffffff82111715613730575050613783565b808201805167ffffffffffffffff81111561374e5750505050613783565b80602083010160043d03850181111561376b575050505050613783565b61377a826020018501866131cc565b82955050505050505b90565b61378f816130e4565b811461379a57600080fd5b50565b6137a6816130f6565b81146137b157600080fd5b50565b6137bd81613102565b81146137c857600080fd5b50565b6137d48161314e565b81146137df57600080fd5b5056fea2646970667358221220d4d14e528021587121b5e4cca51c97d12714f9464fc992b3d04516f2949537da64736f6c63430008010033",
  "linkReferences": {},
  "deployedLinkReferences": {}
}