{
  "_format": "hh-sol-artifact-1",
  "contractName": "CrowdCharity",
  "sourceName": "contracts/CrowdCharity.sol",
  "abi": [
    {
      "anonymous": false,
      "inputs": [
        {
          "indexed": false,
          "internalType": "uint256",
          "name": "campaignId",
          "type": "uint256"
        },
        {
          "indexed": true,
          "internalType": "address",
          "name": "campaignOwner",
          "type": "address"
        },
        {
          "indexed": false,
          "internalType": "bool",
          "name": "isOpen",
          "type": "bool"
        }
      ],
      "name": "Closed",
      "type": "event"
    },
    {
      "anonymous": false,
      "inputs": [
        {
          "indexed": false,
          "internalType": "uint256",
          "name": "campaignId",
          "type": "uint256"
        },
        {
          "indexed": false,
          "internalType": "uint256",
          "name": "fundedAmount",
          "type": "uint256"
        },
        {
          "indexed": true,
          "internalType": "address",
          "name": "funder",
          "type": "address"
        },
        {
          "indexed": true,
          "internalType": "address",
          "name": "campaignOwner",
          "type": "address"
        }
      ],
      "name": "Funded",
      "type": "event"
    },
    {
      "anonymous": false,
      "inputs": [
        {
          "indexed": false,
          "internalType": "uint256",
          "name": "campaignId",
          "type": "uint256"
        },
        {
          "indexed": false,
          "internalType": "uint256",
          "name": "campaignTarget",
          "type": "uint256"
        },
        {
          "indexed": true,
          "internalType": "address",
          "name": "campaignOwner",
          "type": "address"
        }
      ],
      "name": "Started",
      "type": "event"
    },
    {
      "inputs": [],
      "name": "campaignCount",
      "outputs": [
        {
          "internalType": "uint256",
          "name": "",
          "type": "uint256"
        }
      ],
      "stateMutability": "view",
      "type": "function"
    },
    {
      "inputs": [
        {
          "internalType": "uint256",
          "name": "",
          "type": "uint256"
        }
      ],
      "name": "campaigns",
      "outputs": [
        {
          "internalType": "address payable",
          "name": "owner",
          "type": "address"
        },
        {
          "internalType": "uint256",
          "name": "target",
          "type": "uint256"
        },
        {
          "internalType": "uint256",
          "name": "raisedAmount",
          "type": "uint256"
        },
        {
          "internalType": "bool",
          "name": "isOpen",
          "type": "bool"
        }
      ],
      "stateMutability": "view",
      "type": "function"
    },
    {
      "inputs": [
        {
          "internalType": "uint256",
          "name": "_campaignId",
          "type": "uint256"
        }
      ],
      "name": "closeCampaign",
      "outputs": [],
      "stateMutability": "nonpayable",
      "type": "function"
    },
    {
      "inputs": [
        {
          "internalType": "uint256",
          "name": "_campaignTarget",
          "type": "uint256"
        }
      ],
      "name": "createCampaign",
      "outputs": [],
      "stateMutability": "nonpayable",
      "type": "function"
    },
    {
      "inputs": [
        {
          "internalType": "uint256",
          "name": "_campaignId",
          "type": "uint256"
        }
      ],
      "name": "fundCampaign",
      "outputs": [],
      "stateMutability": "payable",
      "type": "function"
    },
    {
      "inputs": [
        {
          "internalType": "uint256",
          "name": "",
          "type": "uint256"
        },
        {
          "internalType": "address",
          "name": "",
          "type": "address"
        }
      ],
      "name": "funderAmount",
      "outputs": [
        {
          "internalType": "uint256",
          "name": "",
          "type": "uint256"
        }
      ],
      "stateMutability": "view",
      "type": "function"
    },
    {
      "inputs": [
        {
          "internalType": "uint256",
          "name": "_campaignId",
          "type": "uint256"
        }
      ],
      "name": "getCampaign",
      "outputs": [
        {
          "internalType": "address payable",
          "name": "owner",
          "type": "address"
        },
        {
          "internalType": "uint256",
          "name": "target",
          "type": "uint256"
        },
        {
          "internalType": "uint256",
          "name": "raisedAmount",
          "type": "uint256"
        },
        {
          "internalType": "bool",
          "name": "isOpen",
          "type": "bool"
        }
      ],
      "stateMutability": "view",
      "type": "function"
    }
  ],
  "bytecode": "0x6080604052600160005534801561001557600080fd5b50610d80806100256000396000f3fe6080604052600436106100705760003560e01c806392bd38bc1161004e57806392bd38bc14610120578063a3303a751461013c578063b0e1c1e114610165578063df5c7d1a1461018e57610070565b8063141961bc146100755780635598f8cc146100b55780637274e30d146100f5575b600080fd5b34801561008157600080fd5b5061009c600480360381019061009791906108d3565b6101cb565b6040516100ac9493929190610ab1565b60405180910390f35b3480156100c157600080fd5b506100dc60048036038101906100d791906108d3565b610228565b6040516100ec9493929190610ab1565b60405180910390f35b34801561010157600080fd5b5061010a6102c6565b6040516101179190610b76565b60405180910390f35b61013a600480360381019061013591906108d3565b6102cc565b005b34801561014857600080fd5b50610163600480360381019061015e91906108d3565b610514565b005b34801561017157600080fd5b5061018c600480360381019061018791906108d3565b61069b565b005b34801561019a57600080fd5b506101b560048036038101906101b091906108fc565b610884565b6040516101c29190610b76565b60405180910390f35b60026020528060005260406000206000915090508060000160009054906101000a900473ffffffffffffffffffffffffffffffffffffffff16908060010154908060020154908060030160009054906101000a900460ff16905084565b6000806000806002600086815260200190815260200160002060000160009054906101000a900473ffffffffffffffffffffffffffffffffffffffff16600260008781526020019081526020016000206001015460026000888152602001908152602001600020600201546002600089815260200190815260200160002060030160009054906101000a900460ff1693509350935093509193509193565b60005481565b600115156002600083815260200190815260200160002060030160009054906101000a900460ff16151514610336576040517f08c379a000000000000000000000000000000000000000000000000000000000815260040161032d90610b36565b60405180910390fd5b6002600082815260200190815260200160002060000160009054906101000a900473ffffffffffffffffffffffffffffffffffffffff1673ffffffffffffffffffffffffffffffffffffffff166108fc349081150290604051600060405180830381858888f193505050506103e0576040517f08c379a00000000000000000000000000000000000000000000000000000000081526004016103d790610b16565b60405180910390fd5b346001600083815260200190815260200160002060003373ffffffffffffffffffffffffffffffffffffffff1673ffffffffffffffffffffffffffffffffffffffff16815260200190815260200160002060008282546104409190610bf4565b925050819055503460026000838152602001908152602001600020600201600082825461046d9190610bf4565b925050819055506002600082815260200190815260200160002060000160009054906101000a900473ffffffffffffffffffffffffffffffffffffffff1673ffffffffffffffffffffffffffffffffffffffff163373ffffffffffffffffffffffffffffffffffffffff167f1f117071c521f07ec6359ca53a9990d92efa4e79ddb6f328271424f54ff271b98334604051610509929190610bba565b60405180910390a350565b60405180608001604052803373ffffffffffffffffffffffffffffffffffffffff1681526020018281526020016000815260200160011515815250600260008054815260200190815260200160002060008201518160000160006101000a81548173ffffffffffffffffffffffffffffffffffffffff021916908373ffffffffffffffffffffffffffffffffffffffff160217905550602082015181600101556040820151816002015560608201518160030160006101000a81548160ff021916908315150217905550905050600260008054815260200190815260200160002060000160009054906101000a900473ffffffffffffffffffffffffffffffffffffffff1673ffffffffffffffffffffffffffffffffffffffff167fb6ee77ade1d0e34eb31fa99c9c729d65b350d7fed6ad3d710cf9b560e62cb3c8600054600260008054815260200190815260200160002060010154604051610679929190610bba565b60405180910390a260008081548092919061069390610ca4565b919050555050565b3373ffffffffffffffffffffffffffffffffffffffff166002600083815260200190815260200160002060000160009054906101000a900473ffffffffffffffffffffffffffffffffffffffff1673ffffffffffffffffffffffffffffffffffffffff161461073f576040517f08c379a000000000000000000000000000000000000000000000000000000000815260040161073690610af6565b60405180910390fd5b600115156002600083815260200190815260200160002060030160009054906101000a900460ff161515146107a9576040517f08c379a00000000000000000000000000000000000000000000000000000000081526004016107a090610b56565b60405180910390fd5b60006002600083815260200190815260200160002060030160006101000a81548160ff0219169083151502179055506002600082815260200190815260200160002060000160009054906101000a900473ffffffffffffffffffffffffffffffffffffffff1673ffffffffffffffffffffffffffffffffffffffff167fecbcc0f69172bf54c6cc02c6b099b70f146b61086ecdbc4d1e3c44b4f689bbd6826002600085815260200190815260200160002060030160009054906101000a900460ff16604051610879929190610b91565b60405180910390a250565b6001602052816000526040600020602052806000526040600020600091509150505481565b6000813590506108b881610d1c565b92915050565b6000813590506108cd81610d33565b92915050565b6000602082840312156108e557600080fd5b60006108f3848285016108be565b91505092915050565b6000806040838503121561090f57600080fd5b600061091d858286016108be565b925050602061092e858286016108a9565b9150509250929050565b61094181610c5c565b82525050565b61095081610c6e565b82525050565b6000610963602583610be3565b91507f4f6e6c79206f776e65722063616e20636c6f7365206869732f6865722063616d60008301527f706169676e0000000000000000000000000000000000000000000000000000006020830152604082019050919050565b60006109c9601e83610be3565b91507f4572726f723a207472616e73666572696e672066756e6473206572726f7200006000830152602082019050919050565b6000610a09602d83610be3565b91507f5361646c79207468652063616d706169676e20697320636c6f7365642062792060008301527f74686520697473206f776e6572000000000000000000000000000000000000006020830152604082019050919050565b6000610a6f601a83610be3565b91507f63616d706169676e20697320616c726561647920636c6f7365640000000000006000830152602082019050919050565b610aab81610c9a565b82525050565b6000608082019050610ac66000830187610938565b610ad36020830186610aa2565b610ae06040830185610aa2565b610aed6060830184610947565b95945050505050565b60006020820190508181036000830152610b0f81610956565b9050919050565b60006020820190508181036000830152610b2f816109bc565b9050919050565b60006020820190508181036000830152610b4f816109fc565b9050919050565b60006020820190508181036000830152610b6f81610a62565b9050919050565b6000602082019050610b8b6000830184610aa2565b92915050565b6000604082019050610ba66000830185610aa2565b610bb36020830184610947565b9392505050565b6000604082019050610bcf6000830185610aa2565b610bdc6020830184610aa2565b9392505050565b600082825260208201905092915050565b6000610bff82610c9a565b9150610c0a83610c9a565b9250827fffffffffffffffffffffffffffffffffffffffffffffffffffffffffffffffff03821115610c3f57610c3e610ced565b5b828201905092915050565b6000610c5582610c7a565b9050919050565b6000610c6782610c7a565b9050919050565b60008115159050919050565b600073ffffffffffffffffffffffffffffffffffffffff82169050919050565b6000819050919050565b6000610caf82610c9a565b91507fffffffffffffffffffffffffffffffffffffffffffffffffffffffffffffffff821415610ce257610ce1610ced565b5b600182019050919050565b7f4e487b7100000000000000000000000000000000000000000000000000000000600052601160045260246000fd5b610d2581610c4a565b8114610d3057600080fd5b50565b610d3c81610c9a565b8114610d4757600080fd5b5056fea2646970667358221220ac13d2e9f4081b42695e6bf692de479e9cb6190c8b2ab44ac9e4b473e367114a64736f6c63430008000033",
  "linkReferences": {},
  "deployedLinkReferences": {}
}