{
  "_format": "hh-sol-artifact-1",
  "contractName": "CrowdCharity",
  "sourceName": "Contracts/CrowdCharity.sol",
  "abi": [
    {
      "anonymous": false,
      "inputs": [
        {
          "indexed": false,
          "internalType": "uint256",
          "name": "campaignId",
          "type": "uint256"
        },
        {
          "indexed": true,
          "internalType": "address",
          "name": "campaignOwner",
          "type": "address"
        },
        {
          "indexed": false,
          "internalType": "bool",
          "name": "isOpen",
          "type": "bool"
        }
      ],
      "name": "Closed",
      "type": "event"
    },
    {
      "anonymous": false,
      "inputs": [
        {
          "indexed": false,
          "internalType": "uint256",
          "name": "campaignId",
          "type": "uint256"
        },
        {
          "indexed": false,
          "internalType": "uint256",
          "name": "fundedAmount",
          "type": "uint256"
        },
        {
          "indexed": true,
          "internalType": "address",
          "name": "funder",
          "type": "address"
        },
        {
          "indexed": true,
          "internalType": "address",
          "name": "campaignOwner",
          "type": "address"
        }
      ],
      "name": "Funded",
      "type": "event"
    },
    {
      "anonymous": false,
      "inputs": [
        {
          "indexed": false,
          "internalType": "uint256",
          "name": "campaignId",
          "type": "uint256"
        },
        {
          "indexed": false,
          "internalType": "uint256",
          "name": "campaignTarget",
          "type": "uint256"
        },
        {
          "indexed": true,
          "internalType": "address",
          "name": "campaignOwner",
          "type": "address"
        }
      ],
      "name": "Started",
      "type": "event"
    },
    {
      "stateMutability": "payable",
      "type": "fallback"
    },
    {
      "inputs": [],
      "name": "campaignCount",
      "outputs": [
        {
          "internalType": "uint256",
          "name": "",
          "type": "uint256"
        }
      ],
      "stateMutability": "view",
      "type": "function"
    },
    {
      "inputs": [
        {
          "internalType": "uint256",
          "name": "",
          "type": "uint256"
        }
      ],
      "name": "campaigns",
      "outputs": [
        {
          "internalType": "address payable",
          "name": "owner",
          "type": "address"
        },
        {
          "internalType": "uint256",
          "name": "target",
          "type": "uint256"
        },
        {
          "internalType": "uint256",
          "name": "raisedAmount",
          "type": "uint256"
        },
        {
          "internalType": "bool",
          "name": "isOpen",
          "type": "bool"
        }
      ],
      "stateMutability": "view",
      "type": "function"
    },
    {
      "inputs": [
        {
          "internalType": "uint256",
          "name": "_campaignId",
          "type": "uint256"
        }
      ],
      "name": "closeCampaign",
      "outputs": [],
      "stateMutability": "nonpayable",
      "type": "function"
    },
    {
      "inputs": [
        {
          "internalType": "uint256",
          "name": "_campaignTarget",
          "type": "uint256"
        }
      ],
      "name": "createCampaign",
      "outputs": [],
      "stateMutability": "nonpayable",
      "type": "function"
    },
    {
      "inputs": [
        {
          "internalType": "uint256",
          "name": "_campaignId",
          "type": "uint256"
        }
      ],
      "name": "fundCampaign",
      "outputs": [],
      "stateMutability": "payable",
      "type": "function"
    },
    {
      "inputs": [
        {
          "internalType": "uint256",
          "name": "",
          "type": "uint256"
        },
        {
          "internalType": "address",
          "name": "",
          "type": "address"
        }
      ],
      "name": "funderAmount",
      "outputs": [
        {
          "internalType": "uint256",
          "name": "",
          "type": "uint256"
        }
      ],
      "stateMutability": "view",
      "type": "function"
    },
    {
      "inputs": [
        {
          "internalType": "uint256",
          "name": "_campaignId",
          "type": "uint256"
        }
      ],
      "name": "getCampaign",
      "outputs": [
        {
          "internalType": "address payable",
          "name": "owner",
          "type": "address"
        },
        {
          "internalType": "uint256",
          "name": "target",
          "type": "uint256"
        },
        {
          "internalType": "uint256",
          "name": "raisedAmount",
          "type": "uint256"
        },
        {
          "internalType": "bool",
          "name": "isOpen",
          "type": "bool"
        }
      ],
      "stateMutability": "view",
      "type": "function"
    },
    {
      "stateMutability": "payable",
      "type": "receive"
    }
  ],
  "bytecode": "0x6080604052600160005534801561001557600080fd5b50610db8806100256000396000f3fe6080604052600436106100745760003560e01c806392bd38bc1161004e57806392bd38bc14610128578063a3303a7514610144578063b0e1c1e11461016d578063df5c7d1a146101965761007b565b8063141961bc1461007d5780635598f8cc146100bd5780637274e30d146100fd5761007b565b3661007b57005b005b34801561008957600080fd5b506100a4600480360381019061009f91906108db565b6101d3565b6040516100b494939291906109f9565b60405180910390f35b3480156100c957600080fd5b506100e460048036038101906100df91906108db565b610230565b6040516100f494939291906109f9565b60405180910390f35b34801561010957600080fd5b506101126102ce565b60405161011f9190610abe565b60405180910390f35b610142600480360381019061013d91906108db565b6102d4565b005b34801561015057600080fd5b5061016b600480360381019061016691906108db565b61051c565b005b34801561017957600080fd5b50610194600480360381019061018f91906108db565b6106a3565b005b3480156101a257600080fd5b506101bd60048036038101906101b89190610904565b61088c565b6040516101ca9190610abe565b60405180910390f35b60026020528060005260406000206000915090508060000160009054906101000a900473ffffffffffffffffffffffffffffffffffffffff16908060010154908060020154908060030160009054906101000a900460ff16905084565b6000806000806002600086815260200190815260200160002060000160009054906101000a900473ffffffffffffffffffffffffffffffffffffffff16600260008781526020019081526020016000206001015460026000888152602001908152602001600020600201546002600089815260200190815260200160002060030160009054906101000a900460ff1693509350935093509193509193565b60005481565b600115156002600083815260200190815260200160002060030160009054906101000a900460ff1615151461033e576040517f08c379a000000000000000000000000000000000000000000000000000000000815260040161033590610a7e565b60405180910390fd5b6002600082815260200190815260200160002060000160009054906101000a900473ffffffffffffffffffffffffffffffffffffffff1673ffffffffffffffffffffffffffffffffffffffff166108fc349081150290604051600060405180830381858888f193505050506103e8576040517f08c379a00000000000000000000000000000000000000000000000000000000081526004016103df90610a5e565b60405180910390fd5b346001600083815260200190815260200160002060003373ffffffffffffffffffffffffffffffffffffffff1673ffffffffffffffffffffffffffffffffffffffff16815260200190815260200160002060008282546104489190610b3c565b92505081905550346002600083815260200190815260200160002060020160008282546104759190610b3c565b925050819055506002600082815260200190815260200160002060000160009054906101000a900473ffffffffffffffffffffffffffffffffffffffff1673ffffffffffffffffffffffffffffffffffffffff163373ffffffffffffffffffffffffffffffffffffffff167f1f117071c521f07ec6359ca53a9990d92efa4e79ddb6f328271424f54ff271b98334604051610511929190610b02565b60405180910390a350565b60405180608001604052803373ffffffffffffffffffffffffffffffffffffffff1681526020018281526020016000815260200160011515815250600260008054815260200190815260200160002060008201518160000160006101000a81548173ffffffffffffffffffffffffffffffffffffffff021916908373ffffffffffffffffffffffffffffffffffffffff160217905550602082015181600101556040820151816002015560608201518160030160006101000a81548160ff021916908315150217905550905050600260008054815260200190815260200160002060000160009054906101000a900473ffffffffffffffffffffffffffffffffffffffff1673ffffffffffffffffffffffffffffffffffffffff167fb6ee77ade1d0e34eb31fa99c9c729d65b350d7fed6ad3d710cf9b560e62cb3c8600054600260008054815260200190815260200160002060010154604051610681929190610b02565b60405180910390a260008081548092919061069b90610bec565b919050555050565b3373ffffffffffffffffffffffffffffffffffffffff166002600083815260200190815260200160002060000160009054906101000a900473ffffffffffffffffffffffffffffffffffffffff1673ffffffffffffffffffffffffffffffffffffffff1614610747576040517f08c379a000000000000000000000000000000000000000000000000000000000815260040161073e90610a3e565b60405180910390fd5b600115156002600083815260200190815260200160002060030160009054906101000a900460ff161515146107b1576040517f08c379a00000000000000000000000000000000000000000000000000000000081526004016107a890610a9e565b60405180910390fd5b60006002600083815260200190815260200160002060030160006101000a81548160ff0219169083151502179055506002600082815260200190815260200160002060000160009054906101000a900473ffffffffffffffffffffffffffffffffffffffff1673ffffffffffffffffffffffffffffffffffffffff167fecbcc0f69172bf54c6cc02c6b099b70f146b61086ecdbc4d1e3c44b4f689bbd6826002600085815260200190815260200160002060030160009054906101000a900460ff16604051610881929190610ad9565b60405180910390a250565b6001602052816000526040600020602052806000526040600020600091509150505481565b6000813590506108c081610d54565b92915050565b6000813590506108d581610d6b565b92915050565b6000602082840312156108ed57600080fd5b60006108fb848285016108c6565b91505092915050565b6000806040838503121561091757600080fd5b6000610925858286016108c6565b9250506020610936858286016108b1565b9150509250929050565b61094981610ba4565b82525050565b61095881610bb6565b82525050565b600061096b602583610b2b565b915061097682610c64565b604082019050919050565b600061098e601e83610b2b565b915061099982610cb3565b602082019050919050565b60006109b1602d83610b2b565b91506109bc82610cdc565b604082019050919050565b60006109d4601a83610b2b565b91506109df82610d2b565b602082019050919050565b6109f381610be2565b82525050565b6000608082019050610a0e6000830187610940565b610a1b60208301866109ea565b610a2860408301856109ea565b610a35606083018461094f565b95945050505050565b60006020820190508181036000830152610a578161095e565b9050919050565b60006020820190508181036000830152610a7781610981565b9050919050565b60006020820190508181036000830152610a97816109a4565b9050919050565b60006020820190508181036000830152610ab7816109c7565b9050919050565b6000602082019050610ad360008301846109ea565b92915050565b6000604082019050610aee60008301856109ea565b610afb602083018461094f565b9392505050565b6000604082019050610b1760008301856109ea565b610b2460208301846109ea565b9392505050565b600082825260208201905092915050565b6000610b4782610be2565b9150610b5283610be2565b9250827fffffffffffffffffffffffffffffffffffffffffffffffffffffffffffffffff03821115610b8757610b86610c35565b5b828201905092915050565b6000610b9d82610bc2565b9050919050565b6000610baf82610bc2565b9050919050565b60008115159050919050565b600073ffffffffffffffffffffffffffffffffffffffff82169050919050565b6000819050919050565b6000610bf782610be2565b91507fffffffffffffffffffffffffffffffffffffffffffffffffffffffffffffffff821415610c2a57610c29610c35565b5b600182019050919050565b7f4e487b7100000000000000000000000000000000000000000000000000000000600052601160045260246000fd5b7f4f6e6c79206f776e65722063616e20636c6f7365206869732f6865722063616d60008201527f706169676e000000000000000000000000000000000000000000000000000000602082015250565b7f4572726f723a207472616e73666572696e672066756e6473206572726f720000600082015250565b7f5361646c79207468652063616d706169676e20697320636c6f7365642062792060008201527f74686520697473206f776e657200000000000000000000000000000000000000602082015250565b7f63616d706169676e20697320616c726561647920636c6f736564000000000000600082015250565b610d5d81610b92565b8114610d6857600080fd5b50565b610d7481610be2565b8114610d7f57600080fd5b5056fea26469706673582212208319b96e4c09d63eda0cddebc3ef38301c05a3f908b8e0715b71b75895c331d164736f6c63430008010033",
  "linkReferences": {},
  "deployedLinkReferences": {}
}