{
  "_format": "hh-sol-artifact-1",
  "contractName": "IfElse",
  "sourceName": "contracts/ifelse.sol",
  "abi": [
    {
      "inputs": [
        {
          "internalType": "uint256",
          "name": "x",
          "type": "uint256"
        }
      ],
      "name": "foo",
      "outputs": [
        {
          "internalType": "uint256",
          "name": "",
          "type": "uint256"
        }
      ],
      "stateMutability": "pure",
      "type": "function"
    },
    {
      "inputs": [
        {
          "internalType": "uint256",
          "name": "_x",
          "type": "uint256"
        }
      ],
      "name": "ternary",
      "outputs": [
        {
          "internalType": "uint256",
          "name": "",
          "type": "uint256"
        }
      ],
      "stateMutability": "pure",
      "type": "function"
    }
  ],
  "bytecode": "0x608060405234801561001057600080fd5b506101a8806100206000396000f3fe608060405234801561001057600080fd5b50600436106100365760003560e01c80632fbebd381461003b57806355278c5b1461006b575b600080fd5b610055600480360381019061005091906100fe565b61009b565b6040516100629190610136565b60405180910390f35b610085600480360381019061008091906100fe565b6100cb565b6040516100929190610136565b60405180910390f35b6000600a8210156100af57600090506100c6565b60148210156100c157600190506100c6565b600290505b919050565b6000600a82106100dc5760026100df565b60015b60ff169050919050565b6000813590506100f88161015b565b92915050565b60006020828403121561011057600080fd5b600061011e848285016100e9565b91505092915050565b61013081610151565b82525050565b600060208201905061014b6000830184610127565b92915050565b6000819050919050565b61016481610151565b811461016f57600080fd5b5056fea2646970667358221220875013c97c8b5ff94e1938b3b4fc24e47b6fcb16adc643778d4c4f2b09e7ac0364736f6c63430008000033",
  "linkReferences": {},
  "deployedLinkReferences": {}
}