{
  "_format": "hh-sol-artifact-1",
  "contractName": "EthereumWallet",
  "sourceName": "contracts/ether_walet.sol",
  "abi": [
    {
      "inputs": [],
      "stateMutability": "nonpayable",
      "type": "constructor"
    },
    {
      "inputs": [],
      "name": "balance",
      "outputs": [
        {
          "internalType": "uint256",
          "name": "",
          "type": "uint256"
        }
      ],
      "stateMutability": "view",
      "type": "function"
    },
    {
      "inputs": [],
      "name": "deposit",
      "outputs": [],
      "stateMutability": "payable",
      "type": "function"
    },
    {
      "inputs": [],
      "name": "getOwner",
      "outputs": [
        {
          "internalType": "address",
          "name": "",
          "type": "address"
        }
      ],
      "stateMutability": "view",
      "type": "function"
    },
    {
      "inputs": [
        {
          "internalType": "address payable",
          "name": "_recipient",
          "type": "address"
        }
      ],
      "name": "send",
      "outputs": [],
      "stateMutability": "payable",
      "type": "function"
    },
    {
      "inputs": [
        {
          "internalType": "uint256",
          "name": "_amount",
          "type": "uint256"
        }
      ],
      "name": "withdraw",
      "outputs": [],
      "stateMutability": "nonpayable",
      "type": "function"
    }
  ],
  "bytecode": "0x608060405234801561001057600080fd5b50336000806101000a81548173ffffffffffffffffffffffffffffffffffffffff021916908373ffffffffffffffffffffffffffffffffffffffff1602179055506104f0806100606000396000f3fe60806040526004361061004a5760003560e01c80632e1a7d4d1461004f5780633e58c58c14610078578063893d20e814610094578063b69ef8a8146100bf578063d0e30db0146100ea575b600080fd5b34801561005b57600080fd5b506100766004803603810190610071919061032a565b6100f4565b005b610092600480360381019061008d9190610301565b6101cc565b005b3480156100a057600080fd5b506100a96102a4565b6040516100b691906103d7565b60405180910390f35b3480156100cb57600080fd5b506100d46102cd565b6040516100e19190610412565b60405180910390f35b6100f26102d5565b005b60008054906101000a900473ffffffffffffffffffffffffffffffffffffffff1673ffffffffffffffffffffffffffffffffffffffff163373ffffffffffffffffffffffffffffffffffffffff1614610182576040517f08c379a0000000000000000000000000000000000000000000000000000000008152600401610179906103f2565b60405180910390fd5b3373ffffffffffffffffffffffffffffffffffffffff166108fc829081150290604051600060405180830381858888f193505050501580156101c8573d6000803e3d6000fd5b5050565b60008054906101000a900473ffffffffffffffffffffffffffffffffffffffff1673ffffffffffffffffffffffffffffffffffffffff163373ffffffffffffffffffffffffffffffffffffffff161461025a576040517f08c379a0000000000000000000000000000000000000000000000000000000008152600401610251906103f2565b60405180910390fd5b8073ffffffffffffffffffffffffffffffffffffffff166108fc349081150290604051600060405180830381858888f193505050501580156102a0573d6000803e3d6000fd5b5050565b60008060009054906101000a900473ffffffffffffffffffffffffffffffffffffffff16905090565b600047905090565b565b6000813590506102e68161048c565b92915050565b6000813590506102fb816104a3565b92915050565b60006020828403121561031357600080fd5b6000610321848285016102d7565b91505092915050565b60006020828403121561033c57600080fd5b600061034a848285016102ec565b91505092915050565b61035c8161043e565b82525050565b600061036f60258361042d565b91507f6f6e6c7920746865206f776e65722063616e2063616c6c20746869732066756e60008301527f6374696f6e0000000000000000000000000000000000000000000000000000006020830152604082019050919050565b6103d181610482565b82525050565b60006020820190506103ec6000830184610353565b92915050565b6000602082019050818103600083015261040b81610362565b9050919050565b600060208201905061042760008301846103c8565b92915050565b600082825260208201905092915050565b600061044982610462565b9050919050565b600061045b82610462565b9050919050565b600073ffffffffffffffffffffffffffffffffffffffff82169050919050565b6000819050919050565b61049581610450565b81146104a057600080fd5b50565b6104ac81610482565b81146104b757600080fd5b5056fea26469706673582212206e7496abb44dc8365c12ad0a5ec75b2183b2d4d45afcb74a0dbadda21f042a7e64736f6c63430008000033",
  "linkReferences": {},
  "deployedLinkReferences": {}
}